{"abi":[{"inputs":[{"internalType":"uint256","name":"minimum","type":"uint256"}],"name":"createCampaign","outputs":[],"stateMutability":"nonpayable","type":"function"},{"inputs":[{"internalType":"uint256","name":"","type":"uint256"}],"name":"deployedCampaigns","outputs":[{"internalType":"address","name":"","type":"address"}],"stateMutability":"view","type":"function"},{"inputs":[],"name":"getDeployedCampaigns","outputs":[{"internalType":"address[]","name":"","type":"address[]"}],"stateMutability":"view","type":"function"}],"devdoc":{"kind":"dev","methods":{},"version":1},"evm":{"assembly":"    /* \"Campaign.sol\":63:916  contract CampaignFactory{... */\n  mstore(0x40, 0x80)\n  callvalue\n  dup1\n  iszero\n  tag_1\n  jumpi\n  0x00\n  dup1\n  revert\ntag_1:\n  pop\n  dataSize(sub_0)\n  dup1\n  dataOffset(sub_0)\n  0x00\n  codecopy\n  0x00\n  return\nstop\n\nsub_0: assembly {\n        /* \"Campaign.sol\":63:916  contract CampaignFactory{... */\n      mstore(0x40, 0x80)\n      callvalue\n      dup1\n      iszero\n      tag_1\n      jumpi\n      0x00\n      dup1\n      revert\n    tag_1:\n      pop\n      jumpi(tag_2, lt(calldatasize, 0x04))\n      shr(0xe0, calldataload(0x00))\n      dup1\n      0x339d50a5\n      eq\n      tag_3\n      jumpi\n      dup1\n      0x4acb9d4f\n      eq\n      tag_4\n      jumpi\n      dup1\n      0xa3303a75\n      eq\n      tag_5\n      jumpi\n    tag_2:\n      0x00\n      dup1\n      revert\n        /* \"Campaign.sol\":94:128  address[] public deployedCampaigns */\n    tag_3:\n      tag_6\n      0x04\n      dup1\n      calldatasize\n      sub\n      dup2\n      add\n      swap1\n      tag_7\n      swap2\n      swap1\n      tag_8\n      jump\t// in\n    tag_7:\n      tag_9\n      jump\t// in\n    tag_6:\n      mload(0x40)\n      tag_10\n      swap2\n      swap1\n      tag_11\n      jump\t// in\n    tag_10:\n      mload(0x40)\n      dup1\n      swap2\n      sub\n      swap1\n      return\n        /* \"Campaign.sol\":800:913  function getDeployedCampaigns() public view returns (address[] memory){... */\n    tag_4:\n      tag_12\n      tag_13\n      jump\t// in\n    tag_12:\n      mload(0x40)\n      tag_14\n      swap2\n      swap1\n      tag_15\n      jump\t// in\n    tag_14:\n      mload(0x40)\n      dup1\n      swap2\n      sub\n      swap1\n      return\n        /* \"Campaign.sol\":498:735  function createCampaign(uint minimum) public{... */\n    tag_5:\n      tag_16\n      0x04\n      dup1\n      calldatasize\n      sub\n      dup2\n      add\n      swap1\n      tag_17\n      swap2\n      swap1\n      tag_8\n      jump\t// in\n    tag_17:\n      tag_18\n      jump\t// in\n    tag_16:\n      stop\n        /* \"Campaign.sol\":94:128  address[] public deployedCampaigns */\n    tag_9:\n      0x00\n      dup2\n      dup2\n      sload\n      dup2\n      lt\n      tag_19\n      jumpi\n      0x00\n      dup1\n      revert\n    tag_19:\n      swap1\n      0x00\n      mstore\n      keccak256(0x00, 0x20)\n      add\n      0x00\n      swap2\n      pop\n      sload\n      swap1\n      0x0100\n      exp\n      swap1\n      div\n      0xffffffffffffffffffffffffffffffffffffffff\n      and\n      dup2\n      jump\t// out\n        /* \"Campaign.sol\":800:913  function getDeployedCampaigns() public view returns (address[] memory){... */\n    tag_13:\n        /* \"Campaign.sol\":853:869  address[] memory */\n      0x60\n        /* \"Campaign.sol\":888:905  deployedCampaigns */\n      0x00\n        /* \"Campaign.sol\":881:905  return deployedCampaigns */\n      dup1\n      sload\n      dup1\n      0x20\n      mul\n      0x20\n      add\n      mload(0x40)\n      swap1\n      dup2\n      add\n      0x40\n      mstore\n      dup1\n      swap3\n      swap2\n      swap1\n      dup2\n      dup2\n      mstore\n      0x20\n      add\n      dup3\n      dup1\n      sload\n      dup1\n      iszero\n      tag_22\n      jumpi\n      0x20\n      mul\n      dup3\n      add\n      swap2\n      swap1\n      0x00\n      mstore\n      keccak256(0x00, 0x20)\n      swap1\n    tag_23:\n      dup2\n      0x00\n      swap1\n      sload\n      swap1\n      0x0100\n      exp\n      swap1\n      div\n      0xffffffffffffffffffffffffffffffffffffffff\n      and\n      0xffffffffffffffffffffffffffffffffffffffff\n      and\n      dup2\n      mstore\n      0x20\n      add\n      swap1\n      0x01\n      add\n      swap1\n      dup1\n      dup4\n      gt\n      tag_23\n      jumpi\n    tag_22:\n      pop\n      pop\n      pop\n      pop\n      pop\n      swap1\n      pop\n        /* \"Campaign.sol\":800:913  function getDeployedCampaigns() public view returns (address[] memory){... */\n      swap1\n      jump\t// out\n        /* \"Campaign.sol\":498:735  function createCampaign(uint minimum) public{... */\n    tag_18:\n        /* \"Campaign.sol\":618:637  address newCampaign */\n      0x00\n        /* \"Campaign.sol\":661:668  minimum */\n      dup2\n        /* \"Campaign.sol\":669:679  msg.sender */\n      caller\n        /* \"Campaign.sol\":648:680  new Campaign(minimum,msg.sender) */\n      mload(0x40)\n      tag_25\n      swap1\n      tag_26\n      jump\t// in\n    tag_25:\n      tag_27\n      swap3\n      swap2\n      swap1\n      tag_28\n      jump\t// in\n    tag_27:\n      mload(0x40)\n      dup1\n      swap2\n      sub\n      swap1\n      0x00\n      create\n      dup1\n      iszero\n      dup1\n      iszero\n      tag_29\n      jumpi\n      returndatasize\n      0x00\n      dup1\n      returndatacopy\n      revert(0x00, returndatasize)\n    tag_29:\n      pop\n        /* \"Campaign.sol\":618:681  address newCampaign = address(new Campaign(minimum,msg.sender)) */\n      swap1\n      pop\n        /* \"Campaign.sol\":692:709  deployedCampaigns */\n      0x00\n        /* \"Campaign.sol\":715:726  newCampaign */\n      dup2\n        /* \"Campaign.sol\":692:727  deployedCampaigns.push(newCampaign) */\n      swap1\n      dup1\n      0x01\n      dup2\n      sload\n      add\n      dup1\n      dup3\n      sstore\n      dup1\n      swap2\n      pop\n      pop\n      0x01\n      swap1\n      sub\n      swap1\n      0x00\n      mstore\n      keccak256(0x00, 0x20)\n      add\n      0x00\n      swap1\n      swap2\n      swap1\n      swap2\n      swap1\n      swap2\n      0x0100\n      exp\n      dup2\n      sload\n      dup2\n      0xffffffffffffffffffffffffffffffffffffffff\n      mul\n      not\n      and\n      swap1\n      dup4\n      0xffffffffffffffffffffffffffffffffffffffff\n      and\n      mul\n      or\n      swap1\n      sstore\n      pop\n        /* \"Campaign.sol\":542:735  {... */\n      pop\n        /* \"Campaign.sol\":498:735  function createCampaign(uint minimum) public{... */\n      pop\n      jump\t// out\n    tag_26:\n      dataSize(sub_0)\n      dup1\n      dataOffset(sub_0)\n      dup4\n      codecopy\n      add\n      swap1\n      jump\t// out\n        /* \"#utility.yul\":88:205   */\n    tag_32:\n        /* \"#utility.yul\":197:198   */\n      0x00\n        /* \"#utility.yul\":194:195   */\n      dup1\n        /* \"#utility.yul\":187:199   */\n      revert\n        /* \"#utility.yul\":334:411   */\n    tag_34:\n        /* \"#utility.yul\":371:378   */\n      0x00\n        /* \"#utility.yul\":400:405   */\n      dup2\n        /* \"#utility.yul\":389:405   */\n      swap1\n      pop\n        /* \"#utility.yul\":334:411   */\n      swap2\n      swap1\n      pop\n      jump\t// out\n        /* \"#utility.yul\":417:539   */\n    tag_35:\n        /* \"#utility.yul\":490:514   */\n      tag_54\n        /* \"#utility.yul\":508:513   */\n      dup2\n        /* \"#utility.yul\":490:514   */\n      tag_34\n      jump\t// in\n    tag_54:\n        /* \"#utility.yul\":483:488   */\n      dup2\n        /* \"#utility.yul\":480:515   */\n      eq\n        /* \"#utility.yul\":470:533   */\n      tag_55\n      jumpi\n        /* \"#utility.yul\":529:530   */\n      0x00\n        /* \"#utility.yul\":526:527   */\n      dup1\n        /* \"#utility.yul\":519:531   */\n      revert\n        /* \"#utility.yul\":470:533   */\n    tag_55:\n        /* \"#utility.yul\":417:539   */\n      pop\n      jump\t// out\n        /* \"#utility.yul\":545:684   */\n    tag_36:\n        /* \"#utility.yul\":591:596   */\n      0x00\n        /* \"#utility.yul\":629:635   */\n      dup2\n        /* \"#utility.yul\":616:636   */\n      calldataload\n        /* \"#utility.yul\":607:636   */\n      swap1\n      pop\n        /* \"#utility.yul\":645:678   */\n      tag_57\n        /* \"#utility.yul\":672:677   */\n      dup2\n        /* \"#utility.yul\":645:678   */\n      tag_35\n      jump\t// in\n    tag_57:\n        /* \"#utility.yul\":545:684   */\n      swap3\n      swap2\n      pop\n      pop\n      jump\t// out\n        /* \"#utility.yul\":690:1019   */\n    tag_8:\n        /* \"#utility.yul\":749:755   */\n      0x00\n        /* \"#utility.yul\":798:800   */\n      0x20\n        /* \"#utility.yul\":786:795   */\n      dup3\n        /* \"#utility.yul\":777:784   */\n      dup5\n        /* \"#utility.yul\":773:796   */\n      sub\n        /* \"#utility.yul\":769:801   */\n      slt\n        /* \"#utility.yul\":766:885   */\n      iszero\n      tag_59\n      jumpi\n        /* \"#utility.yul\":804:883   */\n      tag_60\n      tag_32\n      jump\t// in\n    tag_60:\n        /* \"#utility.yul\":766:885   */\n    tag_59:\n        /* \"#utility.yul\":924:925   */\n      0x00\n        /* \"#utility.yul\":949:1002   */\n      tag_61\n        /* \"#utility.yul\":994:1001   */\n      dup5\n        /* \"#utility.yul\":985:991   */\n      dup3\n        /* \"#utility.yul\":974:983   */\n      dup6\n        /* \"#utility.yul\":970:992   */\n      add\n        /* \"#utility.yul\":949:1002   */\n      tag_36\n      jump\t// in\n    tag_61:\n        /* \"#utility.yul\":939:1002   */\n      swap2\n      pop\n        /* \"#utility.yul\":895:1012   */\n      pop\n        /* \"#utility.yul\":690:1019   */\n      swap3\n      swap2\n      pop\n      pop\n      jump\t// out\n        /* \"#utility.yul\":1025:1151   */\n    tag_37:\n        /* \"#utility.yul\":1062:1069   */\n      0x00\n        /* \"#utility.yul\":1102:1144   */\n      0xffffffffffffffffffffffffffffffffffffffff\n        /* \"#utility.yul\":1095:1100   */\n      dup3\n        /* \"#utility.yul\":1091:1145   */\n      and\n        /* \"#utility.yul\":1080:1145   */\n      swap1\n      pop\n        /* \"#utility.yul\":1025:1151   */\n      swap2\n      swap1\n      pop\n      jump\t// out\n        /* \"#utility.yul\":1157:1253   */\n    tag_38:\n        /* \"#utility.yul\":1194:1201   */\n      0x00\n        /* \"#utility.yul\":1223:1247   */\n      tag_64\n        /* \"#utility.yul\":1241:1246   */\n      dup3\n        /* \"#utility.yul\":1223:1247   */\n      tag_37\n      jump\t// in\n    tag_64:\n        /* \"#utility.yul\":1212:1247   */\n      swap1\n      pop\n        /* \"#utility.yul\":1157:1253   */\n      swap2\n      swap1\n      pop\n      jump\t// out\n        /* \"#utility.yul\":1259:1377   */\n    tag_39:\n        /* \"#utility.yul\":1346:1370   */\n      tag_66\n        /* \"#utility.yul\":1364:1369   */\n      dup2\n        /* \"#utility.yul\":1346:1370   */\n      tag_38\n      jump\t// in\n    tag_66:\n        /* \"#utility.yul\":1341:1344   */\n      dup3\n        /* \"#utility.yul\":1334:1371   */\n      mstore\n        /* \"#utility.yul\":1259:1377   */\n      pop\n      pop\n      jump\t// out\n        /* \"#utility.yul\":1383:1605   */\n    tag_11:\n        /* \"#utility.yul\":1476:1480   */\n      0x00\n        /* \"#utility.yul\":1514:1516   */\n      0x20\n        /* \"#utility.yul\":1503:1512   */\n      dup3\n        /* \"#utility.yul\":1499:1517   */\n      add\n        /* \"#utility.yul\":1491:1517   */\n      swap1\n      pop\n        /* \"#utility.yul\":1527:1598   */\n      tag_68\n        /* \"#utility.yul\":1595:1596   */\n      0x00\n        /* \"#utility.yul\":1584:1593   */\n      dup4\n        /* \"#utility.yul\":1580:1597   */\n      add\n        /* \"#utility.yul\":1571:1577   */\n      dup5\n        /* \"#utility.yul\":1527:1598   */\n      tag_39\n      jump\t// in\n    tag_68:\n        /* \"#utility.yul\":1383:1605   */\n      swap3\n      swap2\n      pop\n      pop\n      jump\t// out\n        /* \"#utility.yul\":1611:1725   */\n    tag_40:\n        /* \"#utility.yul\":1678:1684   */\n      0x00\n        /* \"#utility.yul\":1712:1717   */\n      dup2\n        /* \"#utility.yul\":1706:1718   */\n      mload\n        /* \"#utility.yul\":1696:1718   */\n      swap1\n      pop\n        /* \"#utility.yul\":1611:1725   */\n      swap2\n      swap1\n      pop\n      jump\t// out\n        /* \"#utility.yul\":1731:1915   */\n    tag_41:\n        /* \"#utility.yul\":1830:1841   */\n      0x00\n        /* \"#utility.yul\":1864:1870   */\n      dup3\n        /* \"#utility.yul\":1859:1862   */\n      dup3\n        /* \"#utility.yul\":1852:1871   */\n      mstore\n        /* \"#utility.yul\":1904:1908   */\n      0x20\n        /* \"#utility.yul\":1899:1902   */\n      dup3\n        /* \"#utility.yul\":1895:1909   */\n      add\n        /* \"#utility.yul\":1880:1909   */\n      swap1\n      pop\n        /* \"#utility.yul\":1731:1915   */\n      swap3\n      swap2\n      pop\n      pop\n      jump\t// out\n        /* \"#utility.yul\":1921:2053   */\n    tag_42:\n        /* \"#utility.yul\":1988:1992   */\n      0x00\n        /* \"#utility.yul\":2011:2014   */\n      dup2\n        /* \"#utility.yul\":2003:2014   */\n      swap1\n      pop\n        /* \"#utility.yul\":2041:2045   */\n      0x20\n        /* \"#utility.yul\":2036:2039   */\n      dup3\n        /* \"#utility.yul\":2032:2046   */\n      add\n        /* \"#utility.yul\":2024:2046   */\n      swap1\n      pop\n        /* \"#utility.yul\":1921:2053   */\n      swap2\n      swap1\n      pop\n      jump\t// out\n        /* \"#utility.yul\":2059:2167   */\n    tag_43:\n        /* \"#utility.yul\":2136:2160   */\n      tag_73\n        /* \"#utility.yul\":2154:2159   */\n      dup2\n        /* \"#utility.yul\":2136:2160   */\n      tag_38\n      jump\t// in\n    tag_73:\n        /* \"#utility.yul\":2131:2134   */\n      dup3\n        /* \"#utility.yul\":2124:2161   */\n      mstore\n        /* \"#utility.yul\":2059:2167   */\n      pop\n      pop\n      jump\t// out\n        /* \"#utility.yul\":2173:2352   */\n    tag_44:\n        /* \"#utility.yul\":2242:2252   */\n      0x00\n        /* \"#utility.yul\":2263:2309   */\n      tag_75\n        /* \"#utility.yul\":2305:2308   */\n      dup4\n        /* \"#utility.yul\":2297:2303   */\n      dup4\n        /* \"#utility.yul\":2263:2309   */\n      tag_43\n      jump\t// in\n    tag_75:\n        /* \"#utility.yul\":2341:2345   */\n      0x20\n        /* \"#utility.yul\":2336:2339   */\n      dup4\n        /* \"#utility.yul\":2332:2346   */\n      add\n        /* \"#utility.yul\":2318:2346   */\n      swap1\n      pop\n        /* \"#utility.yul\":2173:2352   */\n      swap3\n      swap2\n      pop\n      pop\n      jump\t// out\n        /* \"#utility.yul\":2358:2471   */\n    tag_45:\n        /* \"#utility.yul\":2428:2432   */\n      0x00\n        /* \"#utility.yul\":2460:2464   */\n      0x20\n        /* \"#utility.yul\":2455:2458   */\n      dup3\n        /* \"#utility.yul\":2451:2465   */\n      add\n        /* \"#utility.yul\":2443:2465   */\n      swap1\n      pop\n        /* \"#utility.yul\":2358:2471   */\n      swap2\n      swap1\n      pop\n      jump\t// out\n        /* \"#utility.yul\":2507:3239   */\n    tag_46:\n        /* \"#utility.yul\":2626:2629   */\n      0x00\n        /* \"#utility.yul\":2655:2709   */\n      tag_78\n        /* \"#utility.yul\":2703:2708   */\n      dup3\n        /* \"#utility.yul\":2655:2709   */\n      tag_40\n      jump\t// in\n    tag_78:\n        /* \"#utility.yul\":2725:2811   */\n      tag_79\n        /* \"#utility.yul\":2804:2810   */\n      dup2\n        /* \"#utility.yul\":2799:2802   */\n      dup6\n        /* \"#utility.yul\":2725:2811   */\n      tag_41\n      jump\t// in\n    tag_79:\n        /* \"#utility.yul\":2718:2811   */\n      swap4\n      pop\n        /* \"#utility.yul\":2835:2891   */\n      tag_80\n        /* \"#utility.yul\":2885:2890   */\n      dup4\n        /* \"#utility.yul\":2835:2891   */\n      tag_42\n      jump\t// in\n    tag_80:\n        /* \"#utility.yul\":2914:2921   */\n      dup1\n        /* \"#utility.yul\":2945:2946   */\n      0x00\n        /* \"#utility.yul\":2930:3214   */\n    tag_81:\n        /* \"#utility.yul\":2955:2961   */\n      dup4\n        /* \"#utility.yul\":2952:2953   */\n      dup2\n        /* \"#utility.yul\":2949:2962   */\n      lt\n        /* \"#utility.yul\":2930:3214   */\n      iszero\n      tag_83\n      jumpi\n        /* \"#utility.yul\":3031:3037   */\n      dup2\n        /* \"#utility.yul\":3025:3038   */\n      mload\n        /* \"#utility.yul\":3058:3121   */\n      tag_84\n        /* \"#utility.yul\":3117:3120   */\n      dup9\n        /* \"#utility.yul\":3102:3115   */\n      dup3\n        /* \"#utility.yul\":3058:3121   */\n      tag_44\n      jump\t// in\n    tag_84:\n        /* \"#utility.yul\":3051:3121   */\n      swap8\n      pop\n        /* \"#utility.yul\":3144:3204   */\n      tag_85\n        /* \"#utility.yul\":3197:3203   */\n      dup4\n        /* \"#utility.yul\":3144:3204   */\n      tag_45\n      jump\t// in\n    tag_85:\n        /* \"#utility.yul\":3134:3204   */\n      swap3\n      pop\n        /* \"#utility.yul\":2990:3214   */\n      pop\n        /* \"#utility.yul\":2977:2978   */\n      0x01\n        /* \"#utility.yul\":2974:2975   */\n      dup2\n        /* \"#utility.yul\":2970:2979   */\n      add\n        /* \"#utility.yul\":2965:2979   */\n      swap1\n      pop\n        /* \"#utility.yul\":2930:3214   */\n      jump(tag_81)\n    tag_83:\n        /* \"#utility.yul\":2934:2948   */\n      pop\n        /* \"#utility.yul\":3230:3233   */\n      dup6\n        /* \"#utility.yul\":3223:3233   */\n      swap4\n      pop\n        /* \"#utility.yul\":2631:3239   */\n      pop\n      pop\n      pop\n        /* \"#utility.yul\":2507:3239   */\n      swap3\n      swap2\n      pop\n      pop\n      jump\t// out\n        /* \"#utility.yul\":3245:3618   */\n    tag_15:\n        /* \"#utility.yul\":3388:3392   */\n      0x00\n        /* \"#utility.yul\":3426:3428   */\n      0x20\n        /* \"#utility.yul\":3415:3424   */\n      dup3\n        /* \"#utility.yul\":3411:3429   */\n      add\n        /* \"#utility.yul\":3403:3429   */\n      swap1\n      pop\n        /* \"#utility.yul\":3475:3484   */\n      dup2\n        /* \"#utility.yul\":3469:3473   */\n      dup2\n        /* \"#utility.yul\":3465:3485   */\n      sub\n        /* \"#utility.yul\":3461:3462   */\n      0x00\n        /* \"#utility.yul\":3450:3459   */\n      dup4\n        /* \"#utility.yul\":3446:3463   */\n      add\n        /* \"#utility.yul\":3439:3486   */\n      mstore\n        /* \"#utility.yul\":3503:3611   */\n      tag_87\n        /* \"#utility.yul\":3606:3610   */\n      dup2\n        /* \"#utility.yul\":3597:3603   */\n      dup5\n        /* \"#utility.yul\":3503:3611   */\n      tag_46\n      jump\t// in\n    tag_87:\n        /* \"#utility.yul\":3495:3611   */\n      swap1\n      pop\n        /* \"#utility.yul\":3245:3618   */\n      swap3\n      swap2\n      pop\n      pop\n      jump\t// out\n        /* \"#utility.yul\":3624:3742   */\n    tag_47:\n        /* \"#utility.yul\":3711:3735   */\n      tag_89\n        /* \"#utility.yul\":3729:3734   */\n      dup2\n        /* \"#utility.yul\":3711:3735   */\n      tag_34\n      jump\t// in\n    tag_89:\n        /* \"#utility.yul\":3706:3709   */\n      dup3\n        /* \"#utility.yul\":3699:3736   */\n      mstore\n        /* \"#utility.yul\":3624:3742   */\n      pop\n      pop\n      jump\t// out\n        /* \"#utility.yul\":3748:4080   */\n    tag_28:\n        /* \"#utility.yul\":3869:3873   */\n      0x00\n        /* \"#utility.yul\":3907:3909   */\n      0x40\n        /* \"#utility.yul\":3896:3905   */\n      dup3\n        /* \"#utility.yul\":3892:3910   */\n      add\n        /* \"#utility.yul\":3884:3910   */\n      swap1\n      pop\n        /* \"#utility.yul\":3920:3991   */\n      tag_91\n        /* \"#utility.yul\":3988:3989   */\n      0x00\n        /* \"#utility.yul\":3977:3986   */\n      dup4\n        /* \"#utility.yul\":3973:3990   */\n      add\n        /* \"#utility.yul\":3964:3970   */\n      dup6\n        /* \"#utility.yul\":3920:3991   */\n      tag_47\n      jump\t// in\n    tag_91:\n        /* \"#utility.yul\":4001:4073   */\n      tag_92\n        /* \"#utility.yul\":4069:4071   */\n      0x20\n        /* \"#utility.yul\":4058:4067   */\n      dup4\n        /* \"#utility.yul\":4054:4072   */\n      add\n        /* \"#utility.yul\":4045:4051   */\n      dup5\n        /* \"#utility.yul\":4001:4073   */\n      tag_39\n      jump\t// in\n    tag_92:\n        /* \"#utility.yul\":3748:4080   */\n      swap4\n      swap3\n      pop\n      pop\n      pop\n      jump\t// out\n    stop\n\n    sub_0: assembly {\n            /* \"Campaign.sol\":920:5466  contract Campaign{... */\n          mstore(0x40, 0x80)\n            /* \"Campaign.sol\":2301:2420  constructor(uint minimum, address creator) {... */\n          callvalue\n          dup1\n          iszero\n          tag_1\n          jumpi\n          0x00\n          dup1\n          revert\n        tag_1:\n          pop\n          mload(0x40)\n          sub(codesize, bytecodeSize)\n          dup1\n          bytecodeSize\n          dup4\n          codecopy\n          dup2\n          dup2\n          add\n          0x40\n          mstore\n          dup2\n          add\n          swap1\n          tag_2\n          swap2\n          swap1\n          tag_3\n          jump\t// in\n        tag_2:\n            /* \"Campaign.sol\":2365:2372  creator */\n          dup1\n            /* \"Campaign.sol\":2355:2362  manager */\n          0x02\n          0x00\n            /* \"Campaign.sol\":2355:2372  manager = creator */\n          0x0100\n          exp\n          dup2\n          sload\n          dup2\n          0xffffffffffffffffffffffffffffffffffffffff\n          mul\n          not\n          and\n          swap1\n          dup4\n          0xffffffffffffffffffffffffffffffffffffffff\n          and\n          mul\n          or\n          swap1\n          sstore\n          pop\n            /* \"Campaign.sol\":2405:2412  minimum */\n          dup2\n            /* \"Campaign.sol\":2383:2402  minimumContribution */\n          0x03\n            /* \"Campaign.sol\":2383:2412  minimumContribution = minimum */\n          dup2\n          swap1\n          sstore\n          pop\n            /* \"Campaign.sol\":2301:2420  constructor(uint minimum, address creator) {... */\n          pop\n          pop\n            /* \"Campaign.sol\":920:5466  contract Campaign{... */\n          jump(tag_6)\n            /* \"#utility.yul\":88:205   */\n        tag_8:\n            /* \"#utility.yul\":197:198   */\n          0x00\n            /* \"#utility.yul\":194:195   */\n          dup1\n            /* \"#utility.yul\":187:199   */\n          revert\n            /* \"#utility.yul\":334:411   */\n        tag_10:\n            /* \"#utility.yul\":371:378   */\n          0x00\n            /* \"#utility.yul\":400:405   */\n          dup2\n            /* \"#utility.yul\":389:405   */\n          swap1\n          pop\n            /* \"#utility.yul\":334:411   */\n          swap2\n          swap1\n          pop\n          jump\t// out\n            /* \"#utility.yul\":417:539   */\n        tag_11:\n            /* \"#utility.yul\":490:514   */\n          tag_23\n            /* \"#utility.yul\":508:513   */\n          dup2\n            /* \"#utility.yul\":490:514   */\n          tag_10\n          jump\t// in\n        tag_23:\n            /* \"#utility.yul\":483:488   */\n          dup2\n            /* \"#utility.yul\":480:515   */\n          eq\n            /* \"#utility.yul\":470:533   */\n          tag_24\n          jumpi\n            /* \"#utility.yul\":529:530   */\n          0x00\n            /* \"#utility.yul\":526:527   */\n          dup1\n            /* \"#utility.yul\":519:531   */\n          revert\n            /* \"#utility.yul\":470:533   */\n        tag_24:\n            /* \"#utility.yul\":417:539   */\n          pop\n          jump\t// out\n            /* \"#utility.yul\":545:688   */\n        tag_12:\n            /* \"#utility.yul\":602:607   */\n          0x00\n            /* \"#utility.yul\":633:639   */\n          dup2\n            /* \"#utility.yul\":627:640   */\n          mload\n            /* \"#utility.yul\":618:640   */\n          swap1\n          pop\n            /* \"#utility.yul\":649:682   */\n          tag_26\n            /* \"#utility.yul\":676:681   */\n          dup2\n            /* \"#utility.yul\":649:682   */\n          tag_11\n          jump\t// in\n        tag_26:\n            /* \"#utility.yul\":545:688   */\n          swap3\n          swap2\n          pop\n          pop\n          jump\t// out\n            /* \"#utility.yul\":694:820   */\n        tag_13:\n            /* \"#utility.yul\":731:738   */\n          0x00\n            /* \"#utility.yul\":771:813   */\n          0xffffffffffffffffffffffffffffffffffffffff\n            /* \"#utility.yul\":764:769   */\n          dup3\n            /* \"#utility.yul\":760:814   */\n          and\n            /* \"#utility.yul\":749:814   */\n          swap1\n          pop\n            /* \"#utility.yul\":694:820   */\n          swap2\n          swap1\n          pop\n          jump\t// out\n            /* \"#utility.yul\":826:922   */\n        tag_14:\n            /* \"#utility.yul\":863:870   */\n          0x00\n            /* \"#utility.yul\":892:916   */\n          tag_29\n            /* \"#utility.yul\":910:915   */\n          dup3\n            /* \"#utility.yul\":892:916   */\n          tag_13\n          jump\t// in\n        tag_29:\n            /* \"#utility.yul\":881:916   */\n          swap1\n          pop\n            /* \"#utility.yul\":826:922   */\n          swap2\n          swap1\n          pop\n          jump\t// out\n            /* \"#utility.yul\":928:1050   */\n        tag_15:\n            /* \"#utility.yul\":1001:1025   */\n          tag_31\n            /* \"#utility.yul\":1019:1024   */\n          dup2\n            /* \"#utility.yul\":1001:1025   */\n          tag_14\n          jump\t// in\n        tag_31:\n            /* \"#utility.yul\":994:999   */\n          dup2\n            /* \"#utility.yul\":991:1026   */\n          eq\n            /* \"#utility.yul\":981:1044   */\n          tag_32\n          jumpi\n            /* \"#utility.yul\":1040:1041   */\n          0x00\n            /* \"#utility.yul\":1037:1038   */\n          dup1\n            /* \"#utility.yul\":1030:1042   */\n          revert\n            /* \"#utility.yul\":981:1044   */\n        tag_32:\n            /* \"#utility.yul\":928:1050   */\n          pop\n          jump\t// out\n            /* \"#utility.yul\":1056:1199   */\n        tag_16:\n            /* \"#utility.yul\":1113:1118   */\n          0x00\n            /* \"#utility.yul\":1144:1150   */\n          dup2\n            /* \"#utility.yul\":1138:1151   */\n          mload\n            /* \"#utility.yul\":1129:1151   */\n          swap1\n          pop\n            /* \"#utility.yul\":1160:1193   */\n          tag_34\n            /* \"#utility.yul\":1187:1192   */\n          dup2\n            /* \"#utility.yul\":1160:1193   */\n          tag_15\n          jump\t// in\n        tag_34:\n            /* \"#utility.yul\":1056:1199   */\n          swap3\n          swap2\n          pop\n          pop\n          jump\t// out\n            /* \"#utility.yul\":1205:1712   */\n        tag_3:\n            /* \"#utility.yul\":1284:1290   */\n          0x00\n            /* \"#utility.yul\":1292:1298   */\n          dup1\n            /* \"#utility.yul\":1341:1343   */\n          0x40\n            /* \"#utility.yul\":1329:1338   */\n          dup4\n            /* \"#utility.yul\":1320:1327   */\n          dup6\n            /* \"#utility.yul\":1316:1339   */\n          sub\n            /* \"#utility.yul\":1312:1344   */\n          slt\n            /* \"#utility.yul\":1309:1428   */\n          iszero\n          tag_36\n          jumpi\n            /* \"#utility.yul\":1347:1426   */\n          tag_37\n          tag_8\n          jump\t// in\n        tag_37:\n            /* \"#utility.yul\":1309:1428   */\n        tag_36:\n            /* \"#utility.yul\":1467:1468   */\n          0x00\n            /* \"#utility.yul\":1492:1556   */\n          tag_38\n            /* \"#utility.yul\":1548:1555   */\n          dup6\n            /* \"#utility.yul\":1539:1545   */\n          dup3\n            /* \"#utility.yul\":1528:1537   */\n          dup7\n            /* \"#utility.yul\":1524:1546   */\n          add\n            /* \"#utility.yul\":1492:1556   */\n          tag_12\n          jump\t// in\n        tag_38:\n            /* \"#utility.yul\":1482:1556   */\n          swap3\n          pop\n            /* \"#utility.yul\":1438:1566   */\n          pop\n            /* \"#utility.yul\":1605:1607   */\n          0x20\n            /* \"#utility.yul\":1631:1695   */\n          tag_39\n            /* \"#utility.yul\":1687:1694   */\n          dup6\n            /* \"#utility.yul\":1678:1684   */\n          dup3\n            /* \"#utility.yul\":1667:1676   */\n          dup7\n            /* \"#utility.yul\":1663:1685   */\n          add\n            /* \"#utility.yul\":1631:1695   */\n          tag_16\n          jump\t// in\n        tag_39:\n            /* \"#utility.yul\":1621:1695   */\n          swap2\n          pop\n            /* \"#utility.yul\":1576:1705   */\n          pop\n            /* \"#utility.yul\":1205:1712   */\n          swap3\n          pop\n          swap3\n          swap1\n          pop\n          jump\t// out\n            /* \"Campaign.sol\":920:5466  contract Campaign{... */\n        tag_6:\n          dataSize(sub_0)\n          dup1\n          dataOffset(sub_0)\n          0x00\n          codecopy\n          0x00\n          return\n        stop\n\n        sub_0: assembly {\n                /* \"Campaign.sol\":920:5466  contract Campaign{... */\n              mstore(0x40, 0x80)\n              jumpi(tag_1, lt(calldatasize, 0x04))\n              shr(0xe0, calldataload(0x00))\n              dup1\n              0x82fde093\n              gt\n              tag_13\n              jumpi\n              dup1\n              0x82fde093\n              eq\n              tag_7\n              jumpi\n              dup1\n              0x8a9cfd55\n              eq\n              tag_8\n              jumpi\n              dup1\n              0x937e09b1\n              eq\n              tag_9\n              jumpi\n              dup1\n              0x9fb42b1f\n              eq\n              tag_10\n              jumpi\n              dup1\n              0xd7bb99ba\n              eq\n              tag_11\n              jumpi\n              dup1\n              0xd7d1bbdb\n              eq\n              tag_12\n              jumpi\n              jump(tag_1)\n            tag_13:\n              dup1\n              0x03441006\n              eq\n              tag_2\n              jumpi\n              dup1\n              0x0a144391\n              eq\n              tag_3\n              jumpi\n              dup1\n              0x4051ddac\n              eq\n              tag_4\n              jumpi\n              dup1\n              0x481c6a75\n              eq\n              tag_5\n              jumpi\n              dup1\n              0x81d12c58\n              eq\n              tag_6\n              jumpi\n            tag_1:\n              0x00\n              dup1\n              revert\n                /* \"Campaign.sol\":4877:5179  function finalizeRequest(uint index) public restricted{... */\n            tag_2:\n              callvalue\n              dup1\n              iszero\n              tag_14\n              jumpi\n              0x00\n              dup1\n              revert\n            tag_14:\n              pop\n              tag_15\n              0x04\n              dup1\n              calldatasize\n              sub\n              dup2\n              add\n              swap1\n              tag_16\n              swap2\n              swap1\n              tag_17\n              jump\t// in\n            tag_16:\n              tag_18\n              jump\t// in\n            tag_15:\n              stop\n                /* \"Campaign.sol\":2128:2169  mapping(address => bool) public approvers */\n            tag_3:\n              callvalue\n              dup1\n              iszero\n              tag_19\n              jumpi\n              0x00\n              dup1\n              revert\n            tag_19:\n              pop\n              tag_20\n              0x04\n              dup1\n              calldatasize\n              sub\n              dup2\n              add\n              swap1\n              tag_21\n              swap2\n              swap1\n              tag_22\n              jump\t// in\n            tag_21:\n              tag_23\n              jump\t// in\n            tag_20:\n              mload(0x40)\n              tag_24\n              swap2\n              swap1\n              tag_25\n              jump\t// in\n            tag_24:\n              mload(0x40)\n              dup1\n              swap2\n              sub\n              swap1\n              return\n                /* \"Campaign.sol\":5187:5461  function getSummary() public view returns(... */\n            tag_4:\n              callvalue\n              dup1\n              iszero\n              tag_26\n              jumpi\n              0x00\n              dup1\n              revert\n            tag_26:\n              pop\n              tag_27\n              tag_28\n              jump\t// in\n            tag_27:\n              mload(0x40)\n              tag_29\n              swap6\n              swap5\n              swap4\n              swap3\n              swap2\n              swap1\n              tag_30\n              jump\t// in\n            tag_29:\n              mload(0x40)\n              dup1\n              swap2\n              sub\n              swap1\n              return\n                /* \"Campaign.sol\":1563:1585  address public manager */\n            tag_5:\n              callvalue\n              dup1\n              iszero\n              tag_31\n              jumpi\n              0x00\n              dup1\n              revert\n            tag_31:\n              pop\n              tag_32\n              tag_33\n              jump\t// in\n            tag_32:\n              mload(0x40)\n              tag_34\n              swap2\n              swap1\n              tag_35\n              jump\t// in\n            tag_34:\n              mload(0x40)\n              dup1\n              swap2\n              sub\n              swap1\n              return\n                /* \"Campaign.sol\":1513:1554  mapping (uint => Request) public requests */\n            tag_6:\n              callvalue\n              dup1\n              iszero\n              tag_36\n              jumpi\n              0x00\n              dup1\n              revert\n            tag_36:\n              pop\n              tag_37\n              0x04\n              dup1\n              calldatasize\n              sub\n              dup2\n              add\n              swap1\n              tag_38\n              swap2\n              swap1\n              tag_17\n              jump\t// in\n            tag_38:\n              tag_39\n              jump\t// in\n            tag_37:\n              mload(0x40)\n              tag_40\n              swap6\n              swap5\n              swap4\n              swap3\n              swap2\n              swap1\n              tag_41\n              jump\t// in\n            tag_40:\n              mload(0x40)\n              dup1\n              swap2\n              sub\n              swap1\n              return\n                /* \"Campaign.sol\":2176:2202  uint public approversCount */\n            tag_7:\n              callvalue\n              dup1\n              iszero\n              tag_42\n              jumpi\n              0x00\n              dup1\n              revert\n            tag_42:\n              pop\n              tag_43\n              tag_44\n              jump\t// in\n            tag_43:\n              mload(0x40)\n              tag_45\n              swap2\n              swap1\n              tag_46\n              jump\t// in\n            tag_45:\n              mload(0x40)\n              dup1\n              swap2\n              sub\n              swap1\n              return\n                /* \"Campaign.sol\":3262:4198  function createRequest(string memory description, uint value, address payable recipient)... */\n            tag_8:\n              callvalue\n              dup1\n              iszero\n              tag_47\n              jumpi\n              0x00\n              dup1\n              revert\n            tag_47:\n              pop\n              tag_48\n              0x04\n              dup1\n              calldatasize\n              sub\n              dup2\n              add\n              swap1\n              tag_49\n              swap2\n              swap1\n              tag_50\n              jump\t// in\n            tag_49:\n              tag_51\n              jump\t// in\n            tag_48:\n              stop\n                /* \"Campaign.sol\":1592:1623  uint public minimumContribution */\n            tag_9:\n              callvalue\n              dup1\n              iszero\n              tag_52\n              jumpi\n              0x00\n              dup1\n              revert\n            tag_52:\n              pop\n              tag_53\n              tag_54\n              jump\t// in\n            tag_53:\n              mload(0x40)\n              tag_55\n              swap2\n              swap1\n              tag_46\n              jump\t// in\n            tag_55:\n              mload(0x40)\n              dup1\n              swap2\n              sub\n              swap1\n              return\n                /* \"Campaign.sol\":1483:1506  uint public numRequests */\n            tag_10:\n              callvalue\n              dup1\n              iszero\n              tag_56\n              jumpi\n              0x00\n              dup1\n              revert\n            tag_56:\n              pop\n              tag_57\n              tag_58\n              jump\t// in\n            tag_57:\n              mload(0x40)\n              tag_59\n              swap2\n              swap1\n              tag_46\n              jump\t// in\n            tag_59:\n              mload(0x40)\n              dup1\n              swap2\n              sub\n              swap1\n              return\n                /* \"Campaign.sol\":2428:2589  function contribute() public payable{... */\n            tag_11:\n              tag_60\n              tag_61\n              jump\t// in\n            tag_60:\n              stop\n                /* \"Campaign.sol\":4410:4869  function approveRequest(uint index) public {... */\n            tag_12:\n              callvalue\n              dup1\n              iszero\n              tag_62\n              jumpi\n              0x00\n              dup1\n              revert\n            tag_62:\n              pop\n              tag_63\n              0x04\n              dup1\n              calldatasize\n              sub\n              dup2\n              add\n              swap1\n              tag_64\n              swap2\n              swap1\n              tag_17\n              jump\t// in\n            tag_64:\n              tag_65\n              jump\t// in\n            tag_63:\n              stop\n                /* \"Campaign.sol\":4877:5179  function finalizeRequest(uint index) public restricted{... */\n            tag_18:\n                /* \"Campaign.sol\":2265:2272  manager */\n              0x02\n              0x00\n              swap1\n              sload\n              swap1\n              0x0100\n              exp\n              swap1\n              div\n              0xffffffffffffffffffffffffffffffffffffffff\n              and\n                /* \"Campaign.sol\":2251:2272  msg.sender == manager */\n              0xffffffffffffffffffffffffffffffffffffffff\n              and\n                /* \"Campaign.sol\":2251:2261  msg.sender */\n              caller\n                /* \"Campaign.sol\":2251:2272  msg.sender == manager */\n              0xffffffffffffffffffffffffffffffffffffffff\n              and\n              eq\n                /* \"Campaign.sol\":2243:2273  require(msg.sender == manager) */\n              tag_67\n              jumpi\n              0x00\n              dup1\n              revert\n            tag_67:\n                /* \"Campaign.sol\":4942:4965  Request storage request */\n              0x00\n                /* \"Campaign.sol\":4968:4976  requests */\n              0x01\n                /* \"Campaign.sol\":4968:4983  requests[index] */\n              0x00\n                /* \"Campaign.sol\":4977:4982  index */\n              dup4\n                /* \"Campaign.sol\":4968:4983  requests[index] */\n              dup2\n              mstore\n              0x20\n              add\n              swap1\n              dup2\n              mstore\n              0x20\n              add\n              0x00\n              keccak256\n                /* \"Campaign.sol\":4942:4983  Request storage request = requests[index] */\n              swap1\n              pop\n                /* \"Campaign.sol\":5043:5044  2 */\n              0x02\n                /* \"Campaign.sol\":5028:5042  approversCount */\n              sload(0x05)\n                /* \"Campaign.sol\":5028:5044  approversCount/2 */\n              tag_69\n              swap2\n              swap1\n              tag_70\n              jump\t// in\n            tag_69:\n                /* \"Campaign.sol\":5002:5009  request */\n              dup2\n                /* \"Campaign.sol\":5002:5024  request.approvalsCount */\n              0x03\n              add\n              sload\n                /* \"Campaign.sol\":5002:5045  request.approvalsCount > (approversCount/2) */\n              gt\n                /* \"Campaign.sol\":4994:5046  require(request.approvalsCount > (approversCount/2)) */\n              tag_71\n              jumpi\n              0x00\n              dup1\n              revert\n            tag_71:\n                /* \"Campaign.sol\":5066:5073  request */\n              dup1\n                /* \"Campaign.sol\":5066:5082  request.complete */\n              0x02\n              add\n              0x14\n              swap1\n              sload\n              swap1\n              0x0100\n              exp\n              swap1\n              div\n              0xff\n              and\n                /* \"Campaign.sol\":5065:5082  !request.complete */\n              iszero\n                /* \"Campaign.sol\":5057:5083  require(!request.complete) */\n              tag_72\n              jumpi\n              0x00\n              dup1\n              revert\n            tag_72:\n                /* \"Campaign.sol\":5096:5103  request */\n              dup1\n                /* \"Campaign.sol\":5096:5113  request.recipient */\n              0x02\n              add\n              0x00\n              swap1\n              sload\n              swap1\n              0x0100\n              exp\n              swap1\n              div\n              0xffffffffffffffffffffffffffffffffffffffff\n              and\n                /* \"Campaign.sol\":5096:5122  request.recipient.transfer */\n              0xffffffffffffffffffffffffffffffffffffffff\n              and\n                /* \"Campaign.sol\":5096:5137  request.recipient.transfer(request.value) */\n              0x08fc\n                /* \"Campaign.sol\":5123:5130  request */\n              dup3\n                /* \"Campaign.sol\":5123:5136  request.value */\n              0x01\n              add\n              sload\n                /* \"Campaign.sol\":5096:5137  request.recipient.transfer(request.value) */\n              swap1\n              dup2\n              iszero\n              mul\n              swap1\n              mload(0x40)\n              0x00\n              mload(0x40)\n              dup1\n              dup4\n              sub\n              dup2\n              dup6\n              dup9\n              dup9\n              call\n              swap4\n              pop\n              pop\n              pop\n              pop\n              iszero\n              dup1\n              iszero\n              tag_74\n              jumpi\n              returndatasize\n              0x00\n              dup1\n              returndatacopy\n              revert(0x00, returndatasize)\n            tag_74:\n              pop\n                /* \"Campaign.sol\":5167:5171  true */\n              0x01\n                /* \"Campaign.sol\":5148:5155  request */\n              dup2\n                /* \"Campaign.sol\":5148:5164  request.complete */\n              0x02\n              add\n              0x14\n                /* \"Campaign.sol\":5148:5171  request.complete = true */\n              0x0100\n              exp\n              dup2\n              sload\n              dup2\n              0xff\n              mul\n              not\n              and\n              swap1\n              dup4\n              iszero\n              iszero\n              mul\n              or\n              swap1\n              sstore\n              pop\n                /* \"Campaign.sol\":4931:5179  {... */\n              pop\n                /* \"Campaign.sol\":4877:5179  function finalizeRequest(uint index) public restricted{... */\n              pop\n              jump\t// out\n                /* \"Campaign.sol\":2128:2169  mapping(address => bool) public approvers */\n            tag_23:\n              mstore(0x20, 0x04)\n              dup1\n              0x00\n              mstore\n              keccak256(0x00, 0x40)\n              0x00\n              swap2\n              pop\n              sload\n              swap1\n              0x0100\n              exp\n              swap1\n              div\n              0xff\n              and\n              dup2\n              jump\t// out\n                /* \"Campaign.sol\":5187:5461  function getSummary() public view returns(... */\n            tag_28:\n                /* \"Campaign.sol\":5239:5243  uint */\n              0x00\n                /* \"Campaign.sol\":5245:5249  uint */\n              dup1\n                /* \"Campaign.sol\":5251:5255  uint */\n              0x00\n                /* \"Campaign.sol\":5257:5261  uint */\n              dup1\n                /* \"Campaign.sol\":5263:5270  address */\n              0x00\n                /* \"Campaign.sol\":5310:5329  minimumContribution */\n              sload(0x03)\n                /* \"Campaign.sol\":5344:5365  address(this).balance */\n              selfbalance\n                /* \"Campaign.sol\":5380:5391  numRequests */\n              sload(0x00)\n                /* \"Campaign.sol\":5406:5420  approversCount */\n              sload(0x05)\n                /* \"Campaign.sol\":5435:5442  manager */\n              0x02\n              0x00\n              swap1\n              sload\n              swap1\n              0x0100\n              exp\n              swap1\n              div\n              0xffffffffffffffffffffffffffffffffffffffff\n              and\n                /* \"Campaign.sol\":5288:5453  return (... */\n              swap5\n              pop\n              swap5\n              pop\n              swap5\n              pop\n              swap5\n              pop\n              swap5\n              pop\n                /* \"Campaign.sol\":5187:5461  function getSummary() public view returns(... */\n              swap1\n              swap2\n              swap3\n              swap4\n              swap5\n              jump\t// out\n                /* \"Campaign.sol\":1563:1585  address public manager */\n            tag_33:\n              0x02\n              0x00\n              swap1\n              sload\n              swap1\n              0x0100\n              exp\n              swap1\n              div\n              0xffffffffffffffffffffffffffffffffffffffff\n              and\n              dup2\n              jump\t// out\n                /* \"Campaign.sol\":1513:1554  mapping (uint => Request) public requests */\n            tag_39:\n              mstore(0x20, 0x01)\n              dup1\n              0x00\n              mstore\n              keccak256(0x00, 0x40)\n              0x00\n              swap2\n              pop\n              swap1\n              pop\n              dup1\n              0x00\n              add\n              dup1\n              sload\n              tag_76\n              swap1\n              tag_77\n              jump\t// in\n            tag_76:\n              dup1\n              0x1f\n              add\n              0x20\n              dup1\n              swap2\n              div\n              mul\n              0x20\n              add\n              mload(0x40)\n              swap1\n              dup2\n              add\n              0x40\n              mstore\n              dup1\n              swap3\n              swap2\n              swap1\n              dup2\n              dup2\n              mstore\n              0x20\n              add\n              dup3\n              dup1\n              sload\n              tag_78\n              swap1\n              tag_77\n              jump\t// in\n            tag_78:\n              dup1\n              iszero\n              tag_79\n              jumpi\n              dup1\n              0x1f\n              lt\n              tag_80\n              jumpi\n              0x0100\n              dup1\n              dup4\n              sload\n              div\n              mul\n              dup4\n              mstore\n              swap2\n              0x20\n              add\n              swap2\n              jump(tag_79)\n            tag_80:\n              dup3\n              add\n              swap2\n              swap1\n              0x00\n              mstore\n              keccak256(0x00, 0x20)\n              swap1\n            tag_81:\n              dup2\n              sload\n              dup2\n              mstore\n              swap1\n              0x01\n              add\n              swap1\n              0x20\n              add\n              dup1\n              dup4\n              gt\n              tag_81\n              jumpi\n              dup3\n              swap1\n              sub\n              0x1f\n              and\n              dup3\n              add\n              swap2\n            tag_79:\n              pop\n              pop\n              pop\n              pop\n              pop\n              swap1\n              dup1\n              0x01\n              add\n              sload\n              swap1\n              dup1\n              0x02\n              add\n              0x00\n              swap1\n              sload\n              swap1\n              0x0100\n              exp\n              swap1\n              div\n              0xffffffffffffffffffffffffffffffffffffffff\n              and\n              swap1\n              dup1\n              0x02\n              add\n              0x14\n              swap1\n              sload\n              swap1\n              0x0100\n              exp\n              swap1\n              div\n              0xff\n              and\n              swap1\n              dup1\n              0x03\n              add\n              sload\n              swap1\n              pop\n              dup6\n              jump\t// out\n                /* \"Campaign.sol\":2176:2202  uint public approversCount */\n            tag_44:\n              sload(0x05)\n              dup2\n              jump\t// out\n                /* \"Campaign.sol\":3262:4198  function createRequest(string memory description, uint value, address payable recipient)... */\n            tag_51:\n                /* \"Campaign.sol\":2265:2272  manager */\n              0x02\n              0x00\n              swap1\n              sload\n              swap1\n              0x0100\n              exp\n              swap1\n              div\n              0xffffffffffffffffffffffffffffffffffffffff\n              and\n                /* \"Campaign.sol\":2251:2272  msg.sender == manager */\n              0xffffffffffffffffffffffffffffffffffffffff\n              and\n                /* \"Campaign.sol\":2251:2261  msg.sender */\n              caller\n                /* \"Campaign.sol\":2251:2272  msg.sender == manager */\n              0xffffffffffffffffffffffffffffffffffffffff\n              and\n              eq\n                /* \"Campaign.sol\":2243:2273  require(msg.sender == manager) */\n              tag_83\n              jumpi\n              0x00\n              dup1\n              revert\n            tag_83:\n                /* \"Campaign.sol\":3895:3921  Request storage newRequest */\n              0x00\n                /* \"Campaign.sol\":3924:3932  requests */\n              0x01\n                /* \"Campaign.sol\":3924:3947  requests[numRequests++] */\n              0x00\n                /* \"Campaign.sol\":3933:3944  numRequests */\n              dup1\n              0x00\n                /* \"Campaign.sol\":3933:3946  numRequests++ */\n              dup2\n              sload\n              dup1\n              swap3\n              swap2\n              swap1\n              tag_85\n              swap1\n              tag_86\n              jump\t// in\n            tag_85:\n              swap2\n              swap1\n              pop\n              sstore\n                /* \"Campaign.sol\":3924:3947  requests[numRequests++] */\n              dup2\n              mstore\n              0x20\n              add\n              swap1\n              dup2\n              mstore\n              0x20\n              add\n              0x00\n              keccak256\n                /* \"Campaign.sol\":3895:3947  Request storage newRequest = requests[numRequests++] */\n              swap1\n              pop\n                /* \"Campaign.sol\":3991:4002  description */\n              dup4\n                /* \"Campaign.sol\":3966:3976  newRequest */\n              dup2\n                /* \"Campaign.sol\":3966:3988  newRequest.description */\n              0x00\n              add\n                /* \"Campaign.sol\":3966:4002  newRequest.description = description */\n              swap1\n              dup2\n              tag_87\n              swap2\n              swap1\n              tag_88\n              jump\t// in\n            tag_87:\n              pop\n                /* \"Campaign.sol\":4040:4045  value */\n              dup3\n                /* \"Campaign.sol\":4021:4031  newRequest */\n              dup2\n                /* \"Campaign.sol\":4021:4037  newRequest.value */\n              0x01\n              add\n                /* \"Campaign.sol\":4021:4045  newRequest.value = value */\n              dup2\n              swap1\n              sstore\n              pop\n                /* \"Campaign.sol\":4087:4096  recipient */\n              dup2\n                /* \"Campaign.sol\":4064:4074  newRequest */\n              dup2\n                /* \"Campaign.sol\":4064:4084  newRequest.recipient */\n              0x02\n              add\n              0x00\n                /* \"Campaign.sol\":4064:4096  newRequest.recipient = recipient */\n              0x0100\n              exp\n              dup2\n              sload\n              dup2\n              0xffffffffffffffffffffffffffffffffffffffff\n              mul\n              not\n              and\n              swap1\n              dup4\n              0xffffffffffffffffffffffffffffffffffffffff\n              and\n              mul\n              or\n              swap1\n              sstore\n              pop\n                /* \"Campaign.sol\":4137:4142  false */\n              0x00\n                /* \"Campaign.sol\":4115:4125  newRequest */\n              dup2\n                /* \"Campaign.sol\":4115:4134  newRequest.complete */\n              0x02\n              add\n              0x14\n                /* \"Campaign.sol\":4115:4142  newRequest.complete = false */\n              0x0100\n              exp\n              dup2\n              sload\n              dup2\n              0xff\n              mul\n              not\n              and\n              swap1\n              dup4\n              iszero\n              iszero\n              mul\n              or\n              swap1\n              sstore\n              pop\n                /* \"Campaign.sol\":4189:4190  0 */\n              0x00\n                /* \"Campaign.sol\":4161:4171  newRequest */\n              dup2\n                /* \"Campaign.sol\":4161:4186  newRequest.approvalsCount */\n              0x03\n              add\n                /* \"Campaign.sol\":4161:4190  newRequest.approvalsCount = 0 */\n              dup2\n              swap1\n              sstore\n              pop\n                /* \"Campaign.sol\":3374:4198  {... */\n              pop\n                /* \"Campaign.sol\":3262:4198  function createRequest(string memory description, uint value, address payable recipient)... */\n              pop\n              pop\n              pop\n              jump\t// out\n                /* \"Campaign.sol\":1592:1623  uint public minimumContribution */\n            tag_54:\n              sload(0x03)\n              dup2\n              jump\t// out\n                /* \"Campaign.sol\":1483:1506  uint public numRequests */\n            tag_58:\n              sload(0x00)\n              dup2\n              jump\t// out\n                /* \"Campaign.sol\":2428:2589  function contribute() public payable{... */\n            tag_61:\n                /* \"Campaign.sol\":2495:2514  minimumContribution */\n              sload(0x03)\n                /* \"Campaign.sol\":2483:2492  msg.value */\n              callvalue\n                /* \"Campaign.sol\":2483:2514  msg.value > minimumContribution */\n              gt\n                /* \"Campaign.sol\":2475:2515  require(msg.value > minimumContribution) */\n              tag_90\n              jumpi\n              0x00\n              dup1\n              revert\n            tag_90:\n                /* \"Campaign.sol\":2550:2554  true */\n              0x01\n                /* \"Campaign.sol\":2526:2535  approvers */\n              0x04\n                /* \"Campaign.sol\":2526:2547  approvers[msg.sender] */\n              0x00\n                /* \"Campaign.sol\":2536:2546  msg.sender */\n              caller\n                /* \"Campaign.sol\":2526:2547  approvers[msg.sender] */\n              0xffffffffffffffffffffffffffffffffffffffff\n              and\n              0xffffffffffffffffffffffffffffffffffffffff\n              and\n              dup2\n              mstore\n              0x20\n              add\n              swap1\n              dup2\n              mstore\n              0x20\n              add\n              0x00\n              keccak256\n              0x00\n                /* \"Campaign.sol\":2526:2554  approvers[msg.sender] = true */\n              0x0100\n              exp\n              dup2\n              sload\n              dup2\n              0xff\n              mul\n              not\n              and\n              swap1\n              dup4\n              iszero\n              iszero\n              mul\n              or\n              swap1\n              sstore\n              pop\n                /* \"Campaign.sol\":2565:2579  approversCount */\n              0x05\n              0x00\n                /* \"Campaign.sol\":2565:2581  approversCount++ */\n              dup2\n              sload\n              dup1\n              swap3\n              swap2\n              swap1\n              tag_91\n              swap1\n              tag_86\n              jump\t// in\n            tag_91:\n              swap2\n              swap1\n              pop\n              sstore\n              pop\n                /* \"Campaign.sol\":2428:2589  function contribute() public payable{... */\n              jump\t// out\n                /* \"Campaign.sol\":4410:4869  function approveRequest(uint index) public {... */\n            tag_65:\n                /* \"Campaign.sol\":4553:4576  Request storage request */\n              0x00\n                /* \"Campaign.sol\":4579:4587  requests */\n              0x01\n                /* \"Campaign.sol\":4579:4594  requests[index] */\n              0x00\n                /* \"Campaign.sol\":4588:4593  index */\n              dup4\n                /* \"Campaign.sol\":4579:4594  requests[index] */\n              dup2\n              mstore\n              0x20\n              add\n              swap1\n              dup2\n              mstore\n              0x20\n              add\n              0x00\n              keccak256\n                /* \"Campaign.sol\":4553:4594  Request storage request = requests[index] */\n              swap1\n              pop\n                /* \"Campaign.sol\":4658:4667  approvers */\n              0x04\n                /* \"Campaign.sol\":4658:4679  approvers[msg.sender] */\n              0x00\n                /* \"Campaign.sol\":4668:4678  msg.sender */\n              caller\n                /* \"Campaign.sol\":4658:4679  approvers[msg.sender] */\n              0xffffffffffffffffffffffffffffffffffffffff\n              and\n              0xffffffffffffffffffffffffffffffffffffffff\n              and\n              dup2\n              mstore\n              0x20\n              add\n              swap1\n              dup2\n              mstore\n              0x20\n              add\n              0x00\n              keccak256\n              0x00\n              swap1\n              sload\n              swap1\n              0x0100\n              exp\n              swap1\n              div\n              0xff\n              and\n                /* \"Campaign.sol\":4650:4680  require(approvers[msg.sender]) */\n              tag_93\n              jumpi\n              0x00\n              dup1\n              revert\n            tag_93:\n                /* \"Campaign.sol\":4745:4752  request */\n              dup1\n                /* \"Campaign.sol\":4745:4763  request.approvalsY */\n              0x04\n              add\n                /* \"Campaign.sol\":4745:4775  request.approvalsY[msg.sender] */\n              0x00\n                /* \"Campaign.sol\":4764:4774  msg.sender */\n              caller\n                /* \"Campaign.sol\":4745:4775  request.approvalsY[msg.sender] */\n              0xffffffffffffffffffffffffffffffffffffffff\n              and\n              0xffffffffffffffffffffffffffffffffffffffff\n              and\n              dup2\n              mstore\n              0x20\n              add\n              swap1\n              dup2\n              mstore\n              0x20\n              add\n              0x00\n              keccak256\n              0x00\n              swap1\n              sload\n              swap1\n              0x0100\n              exp\n              swap1\n              div\n              0xff\n              and\n                /* \"Campaign.sol\":4744:4775  !request.approvalsY[msg.sender] */\n              iszero\n                /* \"Campaign.sol\":4736:4776  require(!request.approvalsY[msg.sender]) */\n              tag_94\n              jumpi\n              0x00\n              dup1\n              revert\n            tag_94:\n                /* \"Campaign.sol\":4822:4826  true */\n              0x01\n                /* \"Campaign.sol\":4789:4796  request */\n              dup2\n                /* \"Campaign.sol\":4789:4807  request.approvalsY */\n              0x04\n              add\n                /* \"Campaign.sol\":4789:4819  request.approvalsY[msg.sender] */\n              0x00\n                /* \"Campaign.sol\":4808:4818  msg.sender */\n              caller\n                /* \"Campaign.sol\":4789:4819  request.approvalsY[msg.sender] */\n              0xffffffffffffffffffffffffffffffffffffffff\n              and\n              0xffffffffffffffffffffffffffffffffffffffff\n              and\n              dup2\n              mstore\n              0x20\n              add\n              swap1\n              dup2\n              mstore\n              0x20\n              add\n              0x00\n              keccak256\n              0x00\n                /* \"Campaign.sol\":4789:4826  request.approvalsY[msg.sender] = true */\n              0x0100\n              exp\n              dup2\n              sload\n              dup2\n              0xff\n              mul\n              not\n              and\n              swap1\n              dup4\n              iszero\n              iszero\n              mul\n              or\n              swap1\n              sstore\n              pop\n                /* \"Campaign.sol\":4837:4844  request */\n              dup1\n                /* \"Campaign.sol\":4837:4859  request.approvalsCount */\n              0x03\n              add\n              0x00\n                /* \"Campaign.sol\":4837:4861  request.approvalsCount++ */\n              dup2\n              sload\n              dup1\n              swap3\n              swap2\n              swap1\n              tag_95\n              swap1\n              tag_86\n              jump\t// in\n            tag_95:\n              swap2\n              swap1\n              pop\n              sstore\n              pop\n                /* \"Campaign.sol\":4453:4869  {... */\n              pop\n                /* \"Campaign.sol\":4410:4869  function approveRequest(uint index) public {... */\n              pop\n              jump\t// out\n                /* \"#utility.yul\":7:82   */\n            tag_96:\n                /* \"#utility.yul\":40:46   */\n              0x00\n                /* \"#utility.yul\":73:75   */\n              0x40\n                /* \"#utility.yul\":67:76   */\n              mload\n                /* \"#utility.yul\":57:76   */\n              swap1\n              pop\n                /* \"#utility.yul\":7:82   */\n              swap1\n              jump\t// out\n                /* \"#utility.yul\":88:205   */\n            tag_97:\n                /* \"#utility.yul\":197:198   */\n              0x00\n                /* \"#utility.yul\":194:195   */\n              dup1\n                /* \"#utility.yul\":187:199   */\n              revert\n                /* \"#utility.yul\":211:328   */\n            tag_98:\n                /* \"#utility.yul\":320:321   */\n              0x00\n                /* \"#utility.yul\":317:318   */\n              dup1\n                /* \"#utility.yul\":310:322   */\n              revert\n                /* \"#utility.yul\":334:411   */\n            tag_99:\n                /* \"#utility.yul\":371:378   */\n              0x00\n                /* \"#utility.yul\":400:405   */\n              dup2\n                /* \"#utility.yul\":389:405   */\n              swap1\n              pop\n                /* \"#utility.yul\":334:411   */\n              swap2\n              swap1\n              pop\n              jump\t// out\n                /* \"#utility.yul\":417:539   */\n            tag_100:\n                /* \"#utility.yul\":490:514   */\n              tag_152\n                /* \"#utility.yul\":508:513   */\n              dup2\n                /* \"#utility.yul\":490:514   */\n              tag_99\n              jump\t// in\n            tag_152:\n                /* \"#utility.yul\":483:488   */\n              dup2\n                /* \"#utility.yul\":480:515   */\n              eq\n                /* \"#utility.yul\":470:533   */\n              tag_153\n              jumpi\n                /* \"#utility.yul\":529:530   */\n              0x00\n                /* \"#utility.yul\":526:527   */\n              dup1\n                /* \"#utility.yul\":519:531   */\n              revert\n                /* \"#utility.yul\":470:533   */\n            tag_153:\n                /* \"#utility.yul\":417:539   */\n              pop\n              jump\t// out\n                /* \"#utility.yul\":545:684   */\n            tag_101:\n                /* \"#utility.yul\":591:596   */\n              0x00\n                /* \"#utility.yul\":629:635   */\n              dup2\n                /* \"#utility.yul\":616:636   */\n              calldataload\n                /* \"#utility.yul\":607:636   */\n              swap1\n              pop\n                /* \"#utility.yul\":645:678   */\n              tag_155\n                /* \"#utility.yul\":672:677   */\n              dup2\n                /* \"#utility.yul\":645:678   */\n              tag_100\n              jump\t// in\n            tag_155:\n                /* \"#utility.yul\":545:684   */\n              swap3\n              swap2\n              pop\n              pop\n              jump\t// out\n                /* \"#utility.yul\":690:1019   */\n            tag_17:\n                /* \"#utility.yul\":749:755   */\n              0x00\n                /* \"#utility.yul\":798:800   */\n              0x20\n                /* \"#utility.yul\":786:795   */\n              dup3\n                /* \"#utility.yul\":777:784   */\n              dup5\n                /* \"#utility.yul\":773:796   */\n              sub\n                /* \"#utility.yul\":769:801   */\n              slt\n                /* \"#utility.yul\":766:885   */\n              iszero\n              tag_157\n              jumpi\n                /* \"#utility.yul\":804:883   */\n              tag_158\n              tag_97\n              jump\t// in\n            tag_158:\n                /* \"#utility.yul\":766:885   */\n            tag_157:\n                /* \"#utility.yul\":924:925   */\n              0x00\n                /* \"#utility.yul\":949:1002   */\n              tag_159\n                /* \"#utility.yul\":994:1001   */\n              dup5\n                /* \"#utility.yul\":985:991   */\n              dup3\n                /* \"#utility.yul\":974:983   */\n              dup6\n                /* \"#utility.yul\":970:992   */\n              add\n                /* \"#utility.yul\":949:1002   */\n              tag_101\n              jump\t// in\n            tag_159:\n                /* \"#utility.yul\":939:1002   */\n              swap2\n              pop\n                /* \"#utility.yul\":895:1012   */\n              pop\n                /* \"#utility.yul\":690:1019   */\n              swap3\n              swap2\n              pop\n              pop\n              jump\t// out\n                /* \"#utility.yul\":1025:1151   */\n            tag_102:\n                /* \"#utility.yul\":1062:1069   */\n              0x00\n                /* \"#utility.yul\":1102:1144   */\n              0xffffffffffffffffffffffffffffffffffffffff\n                /* \"#utility.yul\":1095:1100   */\n              dup3\n                /* \"#utility.yul\":1091:1145   */\n              and\n                /* \"#utility.yul\":1080:1145   */\n              swap1\n              pop\n                /* \"#utility.yul\":1025:1151   */\n              swap2\n              swap1\n              pop\n              jump\t// out\n                /* \"#utility.yul\":1157:1253   */\n            tag_103:\n                /* \"#utility.yul\":1194:1201   */\n              0x00\n                /* \"#utility.yul\":1223:1247   */\n              tag_162\n                /* \"#utility.yul\":1241:1246   */\n              dup3\n                /* \"#utility.yul\":1223:1247   */\n              tag_102\n              jump\t// in\n            tag_162:\n                /* \"#utility.yul\":1212:1247   */\n              swap1\n              pop\n                /* \"#utility.yul\":1157:1253   */\n              swap2\n              swap1\n              pop\n              jump\t// out\n                /* \"#utility.yul\":1259:1381   */\n            tag_104:\n                /* \"#utility.yul\":1332:1356   */\n              tag_164\n                /* \"#utility.yul\":1350:1355   */\n              dup2\n                /* \"#utility.yul\":1332:1356   */\n              tag_103\n              jump\t// in\n            tag_164:\n                /* \"#utility.yul\":1325:1330   */\n              dup2\n                /* \"#utility.yul\":1322:1357   */\n              eq\n                /* \"#utility.yul\":1312:1375   */\n              tag_165\n              jumpi\n                /* \"#utility.yul\":1371:1372   */\n              0x00\n                /* \"#utility.yul\":1368:1369   */\n              dup1\n                /* \"#utility.yul\":1361:1373   */\n              revert\n                /* \"#utility.yul\":1312:1375   */\n            tag_165:\n                /* \"#utility.yul\":1259:1381   */\n              pop\n              jump\t// out\n                /* \"#utility.yul\":1387:1526   */\n            tag_105:\n                /* \"#utility.yul\":1433:1438   */\n              0x00\n                /* \"#utility.yul\":1471:1477   */\n              dup2\n                /* \"#utility.yul\":1458:1478   */\n              calldataload\n                /* \"#utility.yul\":1449:1478   */\n              swap1\n              pop\n                /* \"#utility.yul\":1487:1520   */\n              tag_167\n                /* \"#utility.yul\":1514:1519   */\n              dup2\n                /* \"#utility.yul\":1487:1520   */\n              tag_104\n              jump\t// in\n            tag_167:\n                /* \"#utility.yul\":1387:1526   */\n              swap3\n              swap2\n              pop\n              pop\n              jump\t// out\n                /* \"#utility.yul\":1532:1861   */\n            tag_22:\n                /* \"#utility.yul\":1591:1597   */\n              0x00\n                /* \"#utility.yul\":1640:1642   */\n              0x20\n                /* \"#utility.yul\":1628:1637   */\n              dup3\n                /* \"#utility.yul\":1619:1626   */\n              dup5\n                /* \"#utility.yul\":1615:1638   */\n              sub\n                /* \"#utility.yul\":1611:1643   */\n              slt\n                /* \"#utility.yul\":1608:1727   */\n              iszero\n              tag_169\n              jumpi\n                /* \"#utility.yul\":1646:1725   */\n              tag_170\n              tag_97\n              jump\t// in\n            tag_170:\n                /* \"#utility.yul\":1608:1727   */\n            tag_169:\n                /* \"#utility.yul\":1766:1767   */\n              0x00\n                /* \"#utility.yul\":1791:1844   */\n              tag_171\n                /* \"#utility.yul\":1836:1843   */\n              dup5\n                /* \"#utility.yul\":1827:1833   */\n              dup3\n                /* \"#utility.yul\":1816:1825   */\n              dup6\n                /* \"#utility.yul\":1812:1834   */\n              add\n                /* \"#utility.yul\":1791:1844   */\n              tag_105\n              jump\t// in\n            tag_171:\n                /* \"#utility.yul\":1781:1844   */\n              swap2\n              pop\n                /* \"#utility.yul\":1737:1854   */\n              pop\n                /* \"#utility.yul\":1532:1861   */\n              swap3\n              swap2\n              pop\n              pop\n              jump\t// out\n                /* \"#utility.yul\":1867:1957   */\n            tag_106:\n                /* \"#utility.yul\":1901:1908   */\n              0x00\n                /* \"#utility.yul\":1944:1949   */\n              dup2\n                /* \"#utility.yul\":1937:1950   */\n              iszero\n                /* \"#utility.yul\":1930:1951   */\n              iszero\n                /* \"#utility.yul\":1919:1951   */\n              swap1\n              pop\n                /* \"#utility.yul\":1867:1957   */\n              swap2\n              swap1\n              pop\n              jump\t// out\n                /* \"#utility.yul\":1963:2072   */\n            tag_107:\n                /* \"#utility.yul\":2044:2065   */\n              tag_174\n                /* \"#utility.yul\":2059:2064   */\n              dup2\n                /* \"#utility.yul\":2044:2065   */\n              tag_106\n              jump\t// in\n            tag_174:\n                /* \"#utility.yul\":2039:2042   */\n              dup3\n                /* \"#utility.yul\":2032:2066   */\n              mstore\n                /* \"#utility.yul\":1963:2072   */\n              pop\n              pop\n              jump\t// out\n                /* \"#utility.yul\":2078:2288   */\n            tag_25:\n                /* \"#utility.yul\":2165:2169   */\n              0x00\n                /* \"#utility.yul\":2203:2205   */\n              0x20\n                /* \"#utility.yul\":2192:2201   */\n              dup3\n                /* \"#utility.yul\":2188:2206   */\n              add\n                /* \"#utility.yul\":2180:2206   */\n              swap1\n              pop\n                /* \"#utility.yul\":2216:2281   */\n              tag_176\n                /* \"#utility.yul\":2278:2279   */\n              0x00\n                /* \"#utility.yul\":2267:2276   */\n              dup4\n                /* \"#utility.yul\":2263:2280   */\n              add\n                /* \"#utility.yul\":2254:2260   */\n              dup5\n                /* \"#utility.yul\":2216:2281   */\n              tag_107\n              jump\t// in\n            tag_176:\n                /* \"#utility.yul\":2078:2288   */\n              swap3\n              swap2\n              pop\n              pop\n              jump\t// out\n                /* \"#utility.yul\":2294:2412   */\n            tag_108:\n                /* \"#utility.yul\":2381:2405   */\n              tag_178\n                /* \"#utility.yul\":2399:2404   */\n              dup2\n                /* \"#utility.yul\":2381:2405   */\n              tag_99\n              jump\t// in\n            tag_178:\n                /* \"#utility.yul\":2376:2379   */\n              dup3\n                /* \"#utility.yul\":2369:2406   */\n              mstore\n                /* \"#utility.yul\":2294:2412   */\n              pop\n              pop\n              jump\t// out\n                /* \"#utility.yul\":2418:2536   */\n            tag_109:\n                /* \"#utility.yul\":2505:2529   */\n              tag_180\n                /* \"#utility.yul\":2523:2528   */\n              dup2\n                /* \"#utility.yul\":2505:2529   */\n              tag_103\n              jump\t// in\n            tag_180:\n                /* \"#utility.yul\":2500:2503   */\n              dup3\n                /* \"#utility.yul\":2493:2530   */\n              mstore\n                /* \"#utility.yul\":2418:2536   */\n              pop\n              pop\n              jump\t// out\n                /* \"#utility.yul\":2542:3206   */\n            tag_30:\n                /* \"#utility.yul\":2747:2751   */\n              0x00\n                /* \"#utility.yul\":2785:2788   */\n              0xa0\n                /* \"#utility.yul\":2774:2783   */\n              dup3\n                /* \"#utility.yul\":2770:2789   */\n              add\n                /* \"#utility.yul\":2762:2789   */\n              swap1\n              pop\n                /* \"#utility.yul\":2799:2870   */\n              tag_182\n                /* \"#utility.yul\":2867:2868   */\n              0x00\n                /* \"#utility.yul\":2856:2865   */\n              dup4\n                /* \"#utility.yul\":2852:2869   */\n              add\n                /* \"#utility.yul\":2843:2849   */\n              dup9\n                /* \"#utility.yul\":2799:2870   */\n              tag_108\n              jump\t// in\n            tag_182:\n                /* \"#utility.yul\":2880:2952   */\n              tag_183\n                /* \"#utility.yul\":2948:2950   */\n              0x20\n                /* \"#utility.yul\":2937:2946   */\n              dup4\n                /* \"#utility.yul\":2933:2951   */\n              add\n                /* \"#utility.yul\":2924:2930   */\n              dup8\n                /* \"#utility.yul\":2880:2952   */\n              tag_108\n              jump\t// in\n            tag_183:\n                /* \"#utility.yul\":2962:3034   */\n              tag_184\n                /* \"#utility.yul\":3030:3032   */\n              0x40\n                /* \"#utility.yul\":3019:3028   */\n              dup4\n                /* \"#utility.yul\":3015:3033   */\n              add\n                /* \"#utility.yul\":3006:3012   */\n              dup7\n                /* \"#utility.yul\":2962:3034   */\n              tag_108\n              jump\t// in\n            tag_184:\n                /* \"#utility.yul\":3044:3116   */\n              tag_185\n                /* \"#utility.yul\":3112:3114   */\n              0x60\n                /* \"#utility.yul\":3101:3110   */\n              dup4\n                /* \"#utility.yul\":3097:3115   */\n              add\n                /* \"#utility.yul\":3088:3094   */\n              dup6\n                /* \"#utility.yul\":3044:3116   */\n              tag_108\n              jump\t// in\n            tag_185:\n                /* \"#utility.yul\":3126:3199   */\n              tag_186\n                /* \"#utility.yul\":3194:3197   */\n              0x80\n                /* \"#utility.yul\":3183:3192   */\n              dup4\n                /* \"#utility.yul\":3179:3198   */\n              add\n                /* \"#utility.yul\":3170:3176   */\n              dup5\n                /* \"#utility.yul\":3126:3199   */\n              tag_109\n              jump\t// in\n            tag_186:\n                /* \"#utility.yul\":2542:3206   */\n              swap7\n              swap6\n              pop\n              pop\n              pop\n              pop\n              pop\n              pop\n              jump\t// out\n                /* \"#utility.yul\":3212:3434   */\n            tag_35:\n                /* \"#utility.yul\":3305:3309   */\n              0x00\n                /* \"#utility.yul\":3343:3345   */\n              0x20\n                /* \"#utility.yul\":3332:3341   */\n              dup3\n                /* \"#utility.yul\":3328:3346   */\n              add\n                /* \"#utility.yul\":3320:3346   */\n              swap1\n              pop\n                /* \"#utility.yul\":3356:3427   */\n              tag_188\n                /* \"#utility.yul\":3424:3425   */\n              0x00\n                /* \"#utility.yul\":3413:3422   */\n              dup4\n                /* \"#utility.yul\":3409:3426   */\n              add\n                /* \"#utility.yul\":3400:3406   */\n              dup5\n                /* \"#utility.yul\":3356:3427   */\n              tag_109\n              jump\t// in\n            tag_188:\n                /* \"#utility.yul\":3212:3434   */\n              swap3\n              swap2\n              pop\n              pop\n              jump\t// out\n                /* \"#utility.yul\":3440:3539   */\n            tag_110:\n                /* \"#utility.yul\":3492:3498   */\n              0x00\n                /* \"#utility.yul\":3526:3531   */\n              dup2\n                /* \"#utility.yul\":3520:3532   */\n              mload\n                /* \"#utility.yul\":3510:3532   */\n              swap1\n              pop\n                /* \"#utility.yul\":3440:3539   */\n              swap2\n              swap1\n              pop\n              jump\t// out\n                /* \"#utility.yul\":3545:3714   */\n            tag_111:\n                /* \"#utility.yul\":3629:3640   */\n              0x00\n                /* \"#utility.yul\":3663:3669   */\n              dup3\n                /* \"#utility.yul\":3658:3661   */\n              dup3\n                /* \"#utility.yul\":3651:3670   */\n              mstore\n                /* \"#utility.yul\":3703:3707   */\n              0x20\n                /* \"#utility.yul\":3698:3701   */\n              dup3\n                /* \"#utility.yul\":3694:3708   */\n              add\n                /* \"#utility.yul\":3679:3708   */\n              swap1\n              pop\n                /* \"#utility.yul\":3545:3714   */\n              swap3\n              swap2\n              pop\n              pop\n              jump\t// out\n                /* \"#utility.yul\":3720:3966   */\n            tag_112:\n                /* \"#utility.yul\":3801:3802   */\n              0x00\n                /* \"#utility.yul\":3811:3924   */\n            tag_192:\n                /* \"#utility.yul\":3825:3831   */\n              dup4\n                /* \"#utility.yul\":3822:3823   */\n              dup2\n                /* \"#utility.yul\":3819:3832   */\n              lt\n                /* \"#utility.yul\":3811:3924   */\n              iszero\n              tag_194\n              jumpi\n                /* \"#utility.yul\":3910:3911   */\n              dup1\n                /* \"#utility.yul\":3905:3908   */\n              dup3\n                /* \"#utility.yul\":3901:3912   */\n              add\n                /* \"#utility.yul\":3895:3913   */\n              mload\n                /* \"#utility.yul\":3891:3892   */\n              dup2\n                /* \"#utility.yul\":3886:3889   */\n              dup5\n                /* \"#utility.yul\":3882:3893   */\n              add\n                /* \"#utility.yul\":3875:3914   */\n              mstore\n                /* \"#utility.yul\":3847:3849   */\n              0x20\n                /* \"#utility.yul\":3844:3845   */\n              dup2\n                /* \"#utility.yul\":3840:3850   */\n              add\n                /* \"#utility.yul\":3835:3850   */\n              swap1\n              pop\n                /* \"#utility.yul\":3811:3924   */\n              jump(tag_192)\n            tag_194:\n                /* \"#utility.yul\":3958:3959   */\n              0x00\n                /* \"#utility.yul\":3949:3955   */\n              dup5\n                /* \"#utility.yul\":3944:3947   */\n              dup5\n                /* \"#utility.yul\":3940:3956   */\n              add\n                /* \"#utility.yul\":3933:3960   */\n              mstore\n                /* \"#utility.yul\":3782:3966   */\n              pop\n                /* \"#utility.yul\":3720:3966   */\n              pop\n              pop\n              pop\n              jump\t// out\n                /* \"#utility.yul\":3972:4074   */\n            tag_113:\n                /* \"#utility.yul\":4013:4019   */\n              0x00\n                /* \"#utility.yul\":4064:4066   */\n              0x1f\n                /* \"#utility.yul\":4060:4067   */\n              not\n                /* \"#utility.yul\":4055:4057   */\n              0x1f\n                /* \"#utility.yul\":4048:4053   */\n              dup4\n                /* \"#utility.yul\":4044:4058   */\n              add\n                /* \"#utility.yul\":4040:4068   */\n              and\n                /* \"#utility.yul\":4030:4068   */\n              swap1\n              pop\n                /* \"#utility.yul\":3972:4074   */\n              swap2\n              swap1\n              pop\n              jump\t// out\n                /* \"#utility.yul\":4080:4457   */\n            tag_114:\n                /* \"#utility.yul\":4168:4171   */\n              0x00\n                /* \"#utility.yul\":4196:4235   */\n              tag_197\n                /* \"#utility.yul\":4229:4234   */\n              dup3\n                /* \"#utility.yul\":4196:4235   */\n              tag_110\n              jump\t// in\n            tag_197:\n                /* \"#utility.yul\":4251:4322   */\n              tag_198\n                /* \"#utility.yul\":4315:4321   */\n              dup2\n                /* \"#utility.yul\":4310:4313   */\n              dup6\n                /* \"#utility.yul\":4251:4322   */\n              tag_111\n              jump\t// in\n            tag_198:\n                /* \"#utility.yul\":4244:4322   */\n              swap4\n              pop\n                /* \"#utility.yul\":4331:4396   */\n              tag_199\n                /* \"#utility.yul\":4389:4395   */\n              dup2\n                /* \"#utility.yul\":4384:4387   */\n              dup6\n                /* \"#utility.yul\":4377:4381   */\n              0x20\n                /* \"#utility.yul\":4370:4375   */\n              dup7\n                /* \"#utility.yul\":4366:4382   */\n              add\n                /* \"#utility.yul\":4331:4396   */\n              tag_112\n              jump\t// in\n            tag_199:\n                /* \"#utility.yul\":4421:4450   */\n              tag_200\n                /* \"#utility.yul\":4443:4449   */\n              dup2\n                /* \"#utility.yul\":4421:4450   */\n              tag_113\n              jump\t// in\n            tag_200:\n                /* \"#utility.yul\":4416:4419   */\n              dup5\n                /* \"#utility.yul\":4412:4451   */\n              add\n                /* \"#utility.yul\":4405:4451   */\n              swap2\n              pop\n                /* \"#utility.yul\":4172:4457   */\n              pop\n                /* \"#utility.yul\":4080:4457   */\n              swap3\n              swap2\n              pop\n              pop\n              jump\t// out\n                /* \"#utility.yul\":4463:4567   */\n            tag_115:\n                /* \"#utility.yul\":4508:4515   */\n              0x00\n                /* \"#utility.yul\":4537:4561   */\n              tag_202\n                /* \"#utility.yul\":4555:4560   */\n              dup3\n                /* \"#utility.yul\":4537:4561   */\n              tag_102\n              jump\t// in\n            tag_202:\n                /* \"#utility.yul\":4526:4561   */\n              swap1\n              pop\n                /* \"#utility.yul\":4463:4567   */\n              swap2\n              swap1\n              pop\n              jump\t// out\n                /* \"#utility.yul\":4573:4715   */\n            tag_116:\n                /* \"#utility.yul\":4676:4708   */\n              tag_204\n                /* \"#utility.yul\":4702:4707   */\n              dup2\n                /* \"#utility.yul\":4676:4708   */\n              tag_115\n              jump\t// in\n            tag_204:\n                /* \"#utility.yul\":4671:4674   */\n              dup3\n                /* \"#utility.yul\":4664:4709   */\n              mstore\n                /* \"#utility.yul\":4573:4715   */\n              pop\n              pop\n              jump\t// out\n                /* \"#utility.yul\":4721:5496   */\n            tag_41:\n                /* \"#utility.yul\":4956:4960   */\n              0x00\n                /* \"#utility.yul\":4994:4997   */\n              0xa0\n                /* \"#utility.yul\":4983:4992   */\n              dup3\n                /* \"#utility.yul\":4979:4998   */\n              add\n                /* \"#utility.yul\":4971:4998   */\n              swap1\n              pop\n                /* \"#utility.yul\":5044:5053   */\n              dup2\n                /* \"#utility.yul\":5038:5042   */\n              dup2\n                /* \"#utility.yul\":5034:5054   */\n              sub\n                /* \"#utility.yul\":5030:5031   */\n              0x00\n                /* \"#utility.yul\":5019:5028   */\n              dup4\n                /* \"#utility.yul\":5015:5032   */\n              add\n                /* \"#utility.yul\":5008:5055   */\n              mstore\n                /* \"#utility.yul\":5072:5150   */\n              tag_206\n                /* \"#utility.yul\":5145:5149   */\n              dup2\n                /* \"#utility.yul\":5136:5142   */\n              dup9\n                /* \"#utility.yul\":5072:5150   */\n              tag_114\n              jump\t// in\n            tag_206:\n                /* \"#utility.yul\":5064:5150   */\n              swap1\n              pop\n                /* \"#utility.yul\":5160:5232   */\n              tag_207\n                /* \"#utility.yul\":5228:5230   */\n              0x20\n                /* \"#utility.yul\":5217:5226   */\n              dup4\n                /* \"#utility.yul\":5213:5231   */\n              add\n                /* \"#utility.yul\":5204:5210   */\n              dup8\n                /* \"#utility.yul\":5160:5232   */\n              tag_108\n              jump\t// in\n            tag_207:\n                /* \"#utility.yul\":5242:5330   */\n              tag_208\n                /* \"#utility.yul\":5326:5328   */\n              0x40\n                /* \"#utility.yul\":5315:5324   */\n              dup4\n                /* \"#utility.yul\":5311:5329   */\n              add\n                /* \"#utility.yul\":5302:5308   */\n              dup7\n                /* \"#utility.yul\":5242:5330   */\n              tag_116\n              jump\t// in\n            tag_208:\n                /* \"#utility.yul\":5340:5406   */\n              tag_209\n                /* \"#utility.yul\":5402:5404   */\n              0x60\n                /* \"#utility.yul\":5391:5400   */\n              dup4\n                /* \"#utility.yul\":5387:5405   */\n              add\n                /* \"#utility.yul\":5378:5384   */\n              dup6\n                /* \"#utility.yul\":5340:5406   */\n              tag_107\n              jump\t// in\n            tag_209:\n                /* \"#utility.yul\":5416:5489   */\n              tag_210\n                /* \"#utility.yul\":5484:5487   */\n              0x80\n                /* \"#utility.yul\":5473:5482   */\n              dup4\n                /* \"#utility.yul\":5469:5488   */\n              add\n                /* \"#utility.yul\":5460:5466   */\n              dup5\n                /* \"#utility.yul\":5416:5489   */\n              tag_108\n              jump\t// in\n            tag_210:\n                /* \"#utility.yul\":4721:5496   */\n              swap7\n              swap6\n              pop\n              pop\n              pop\n              pop\n              pop\n              pop\n              jump\t// out\n                /* \"#utility.yul\":5502:5724   */\n            tag_46:\n                /* \"#utility.yul\":5595:5599   */\n              0x00\n                /* \"#utility.yul\":5633:5635   */\n              0x20\n                /* \"#utility.yul\":5622:5631   */\n              dup3\n                /* \"#utility.yul\":5618:5636   */\n              add\n                /* \"#utility.yul\":5610:5636   */\n              swap1\n              pop\n                /* \"#utility.yul\":5646:5717   */\n              tag_212\n                /* \"#utility.yul\":5714:5715   */\n              0x00\n                /* \"#utility.yul\":5703:5712   */\n              dup4\n                /* \"#utility.yul\":5699:5716   */\n              add\n                /* \"#utility.yul\":5690:5696   */\n              dup5\n                /* \"#utility.yul\":5646:5717   */\n              tag_108\n              jump\t// in\n            tag_212:\n                /* \"#utility.yul\":5502:5724   */\n              swap3\n              swap2\n              pop\n              pop\n              jump\t// out\n                /* \"#utility.yul\":5730:5847   */\n            tag_117:\n                /* \"#utility.yul\":5839:5840   */\n              0x00\n                /* \"#utility.yul\":5836:5837   */\n              dup1\n                /* \"#utility.yul\":5829:5841   */\n              revert\n                /* \"#utility.yul\":5853:5970   */\n            tag_118:\n                /* \"#utility.yul\":5962:5963   */\n              0x00\n                /* \"#utility.yul\":5959:5960   */\n              dup1\n                /* \"#utility.yul\":5952:5964   */\n              revert\n                /* \"#utility.yul\":5976:6156   */\n            tag_119:\n                /* \"#utility.yul\":6024:6101   */\n              0x4e487b7100000000000000000000000000000000000000000000000000000000\n                /* \"#utility.yul\":6021:6022   */\n              0x00\n                /* \"#utility.yul\":6014:6102   */\n              mstore\n                /* \"#utility.yul\":6121:6125   */\n              0x41\n                /* \"#utility.yul\":6118:6119   */\n              0x04\n                /* \"#utility.yul\":6111:6126   */\n              mstore\n                /* \"#utility.yul\":6145:6149   */\n              0x24\n                /* \"#utility.yul\":6142:6143   */\n              0x00\n                /* \"#utility.yul\":6135:6150   */\n              revert\n                /* \"#utility.yul\":6162:6443   */\n            tag_120:\n                /* \"#utility.yul\":6245:6272   */\n              tag_217\n                /* \"#utility.yul\":6267:6271   */\n              dup3\n                /* \"#utility.yul\":6245:6272   */\n              tag_113\n              jump\t// in\n            tag_217:\n                /* \"#utility.yul\":6237:6243   */\n              dup2\n                /* \"#utility.yul\":6233:6273   */\n              add\n                /* \"#utility.yul\":6375:6381   */\n              dup2\n                /* \"#utility.yul\":6363:6373   */\n              dup2\n                /* \"#utility.yul\":6360:6382   */\n              lt\n                /* \"#utility.yul\":6339:6357   */\n              0xffffffffffffffff\n                /* \"#utility.yul\":6327:6337   */\n              dup3\n                /* \"#utility.yul\":6324:6358   */\n              gt\n                /* \"#utility.yul\":6321:6383   */\n              or\n                /* \"#utility.yul\":6318:6406   */\n              iszero\n              tag_218\n              jumpi\n                /* \"#utility.yul\":6386:6404   */\n              tag_219\n              tag_119\n              jump\t// in\n            tag_219:\n                /* \"#utility.yul\":6318:6406   */\n            tag_218:\n                /* \"#utility.yul\":6426:6436   */\n              dup1\n                /* \"#utility.yul\":6422:6424   */\n              0x40\n                /* \"#utility.yul\":6415:6437   */\n              mstore\n                /* \"#utility.yul\":6205:6443   */\n              pop\n                /* \"#utility.yul\":6162:6443   */\n              pop\n              pop\n              jump\t// out\n                /* \"#utility.yul\":6449:6578   */\n            tag_121:\n                /* \"#utility.yul\":6483:6489   */\n              0x00\n                /* \"#utility.yul\":6510:6530   */\n              tag_221\n              tag_96\n              jump\t// in\n            tag_221:\n                /* \"#utility.yul\":6500:6530   */\n              swap1\n              pop\n                /* \"#utility.yul\":6539:6572   */\n              tag_222\n                /* \"#utility.yul\":6567:6571   */\n              dup3\n                /* \"#utility.yul\":6559:6565   */\n              dup3\n                /* \"#utility.yul\":6539:6572   */\n              tag_120\n              jump\t// in\n            tag_222:\n                /* \"#utility.yul\":6449:6578   */\n              swap2\n              swap1\n              pop\n              jump\t// out\n                /* \"#utility.yul\":6584:6892   */\n            tag_122:\n                /* \"#utility.yul\":6646:6650   */\n              0x00\n                /* \"#utility.yul\":6736:6754   */\n              0xffffffffffffffff\n                /* \"#utility.yul\":6728:6734   */\n              dup3\n                /* \"#utility.yul\":6725:6755   */\n              gt\n                /* \"#utility.yul\":6722:6778   */\n              iszero\n              tag_224\n              jumpi\n                /* \"#utility.yul\":6758:6776   */\n              tag_225\n              tag_119\n              jump\t// in\n            tag_225:\n                /* \"#utility.yul\":6722:6778   */\n            tag_224:\n                /* \"#utility.yul\":6796:6825   */\n              tag_226\n                /* \"#utility.yul\":6818:6824   */\n              dup3\n                /* \"#utility.yul\":6796:6825   */\n              tag_113\n              jump\t// in\n            tag_226:\n                /* \"#utility.yul\":6788:6825   */\n              swap1\n              pop\n                /* \"#utility.yul\":6880:6884   */\n              0x20\n                /* \"#utility.yul\":6874:6878   */\n              dup2\n                /* \"#utility.yul\":6870:6885   */\n              add\n                /* \"#utility.yul\":6862:6885   */\n              swap1\n              pop\n                /* \"#utility.yul\":6584:6892   */\n              swap2\n              swap1\n              pop\n              jump\t// out\n                /* \"#utility.yul\":6898:7044   */\n            tag_123:\n                /* \"#utility.yul\":6995:7001   */\n              dup3\n                /* \"#utility.yul\":6990:6993   */\n              dup2\n                /* \"#utility.yul\":6985:6988   */\n              dup4\n                /* \"#utility.yul\":6972:7002   */\n              calldatacopy\n                /* \"#utility.yul\":7036:7037   */\n              0x00\n                /* \"#utility.yul\":7027:7033   */\n              dup4\n                /* \"#utility.yul\":7022:7025   */\n              dup4\n                /* \"#utility.yul\":7018:7034   */\n              add\n                /* \"#utility.yul\":7011:7038   */\n              mstore\n                /* \"#utility.yul\":6898:7044   */\n              pop\n              pop\n              pop\n              jump\t// out\n                /* \"#utility.yul\":7050:7475   */\n            tag_124:\n                /* \"#utility.yul\":7128:7133   */\n              0x00\n                /* \"#utility.yul\":7153:7219   */\n              tag_229\n                /* \"#utility.yul\":7169:7218   */\n              tag_230\n                /* \"#utility.yul\":7211:7217   */\n              dup5\n                /* \"#utility.yul\":7169:7218   */\n              tag_122\n              jump\t// in\n            tag_230:\n                /* \"#utility.yul\":7153:7219   */\n              tag_121\n              jump\t// in\n            tag_229:\n                /* \"#utility.yul\":7144:7219   */\n              swap1\n              pop\n                /* \"#utility.yul\":7242:7248   */\n              dup3\n                /* \"#utility.yul\":7235:7240   */\n              dup2\n                /* \"#utility.yul\":7228:7249   */\n              mstore\n                /* \"#utility.yul\":7280:7284   */\n              0x20\n                /* \"#utility.yul\":7273:7278   */\n              dup2\n                /* \"#utility.yul\":7269:7285   */\n              add\n                /* \"#utility.yul\":7318:7321   */\n              dup5\n                /* \"#utility.yul\":7309:7315   */\n              dup5\n                /* \"#utility.yul\":7304:7307   */\n              dup5\n                /* \"#utility.yul\":7300:7316   */\n              add\n                /* \"#utility.yul\":7297:7322   */\n              gt\n                /* \"#utility.yul\":7294:7406   */\n              iszero\n              tag_231\n              jumpi\n                /* \"#utility.yul\":7325:7404   */\n              tag_232\n              tag_118\n              jump\t// in\n            tag_232:\n                /* \"#utility.yul\":7294:7406   */\n            tag_231:\n                /* \"#utility.yul\":7415:7469   */\n              tag_233\n                /* \"#utility.yul\":7462:7468   */\n              dup5\n                /* \"#utility.yul\":7457:7460   */\n              dup3\n                /* \"#utility.yul\":7452:7455   */\n              dup6\n                /* \"#utility.yul\":7415:7469   */\n              tag_123\n              jump\t// in\n            tag_233:\n                /* \"#utility.yul\":7134:7475   */\n              pop\n                /* \"#utility.yul\":7050:7475   */\n              swap4\n              swap3\n              pop\n              pop\n              pop\n              jump\t// out\n                /* \"#utility.yul\":7495:7835   */\n            tag_125:\n                /* \"#utility.yul\":7551:7556   */\n              0x00\n                /* \"#utility.yul\":7600:7603   */\n              dup3\n                /* \"#utility.yul\":7593:7597   */\n              0x1f\n                /* \"#utility.yul\":7585:7591   */\n              dup4\n                /* \"#utility.yul\":7581:7598   */\n              add\n                /* \"#utility.yul\":7577:7604   */\n              slt\n                /* \"#utility.yul\":7567:7689   */\n              tag_235\n              jumpi\n                /* \"#utility.yul\":7608:7687   */\n              tag_236\n              tag_117\n              jump\t// in\n            tag_236:\n                /* \"#utility.yul\":7567:7689   */\n            tag_235:\n                /* \"#utility.yul\":7725:7731   */\n              dup2\n                /* \"#utility.yul\":7712:7732   */\n              calldataload\n                /* \"#utility.yul\":7750:7829   */\n              tag_237\n                /* \"#utility.yul\":7825:7828   */\n              dup5\n                /* \"#utility.yul\":7817:7823   */\n              dup3\n                /* \"#utility.yul\":7810:7814   */\n              0x20\n                /* \"#utility.yul\":7802:7808   */\n              dup7\n                /* \"#utility.yul\":7798:7815   */\n              add\n                /* \"#utility.yul\":7750:7829   */\n              tag_124\n              jump\t// in\n            tag_237:\n                /* \"#utility.yul\":7741:7829   */\n              swap2\n              pop\n                /* \"#utility.yul\":7557:7835   */\n              pop\n                /* \"#utility.yul\":7495:7835   */\n              swap3\n              swap2\n              pop\n              pop\n              jump\t// out\n                /* \"#utility.yul\":7841:7979   */\n            tag_126:\n                /* \"#utility.yul\":7922:7954   */\n              tag_239\n                /* \"#utility.yul\":7948:7953   */\n              dup2\n                /* \"#utility.yul\":7922:7954   */\n              tag_115\n              jump\t// in\n            tag_239:\n                /* \"#utility.yul\":7915:7920   */\n              dup2\n                /* \"#utility.yul\":7912:7955   */\n              eq\n                /* \"#utility.yul\":7902:7973   */\n              tag_240\n              jumpi\n                /* \"#utility.yul\":7969:7970   */\n              0x00\n                /* \"#utility.yul\":7966:7967   */\n              dup1\n                /* \"#utility.yul\":7959:7971   */\n              revert\n                /* \"#utility.yul\":7902:7973   */\n            tag_240:\n                /* \"#utility.yul\":7841:7979   */\n              pop\n              jump\t// out\n                /* \"#utility.yul\":7985:8140   */\n            tag_127:\n                /* \"#utility.yul\":8039:8044   */\n              0x00\n                /* \"#utility.yul\":8077:8083   */\n              dup2\n                /* \"#utility.yul\":8064:8084   */\n              calldataload\n                /* \"#utility.yul\":8055:8084   */\n              swap1\n              pop\n                /* \"#utility.yul\":8093:8134   */\n              tag_242\n                /* \"#utility.yul\":8128:8133   */\n              dup2\n                /* \"#utility.yul\":8093:8134   */\n              tag_126\n              jump\t// in\n            tag_242:\n                /* \"#utility.yul\":7985:8140   */\n              swap3\n              swap2\n              pop\n              pop\n              jump\t// out\n                /* \"#utility.yul\":8146:8961   */\n            tag_50:\n                /* \"#utility.yul\":8241:8247   */\n              0x00\n                /* \"#utility.yul\":8249:8255   */\n              dup1\n                /* \"#utility.yul\":8257:8263   */\n              0x00\n                /* \"#utility.yul\":8306:8308   */\n              0x60\n                /* \"#utility.yul\":8294:8303   */\n              dup5\n                /* \"#utility.yul\":8285:8292   */\n              dup7\n                /* \"#utility.yul\":8281:8304   */\n              sub\n                /* \"#utility.yul\":8277:8309   */\n              slt\n                /* \"#utility.yul\":8274:8393   */\n              iszero\n              tag_244\n              jumpi\n                /* \"#utility.yul\":8312:8391   */\n              tag_245\n              tag_97\n              jump\t// in\n            tag_245:\n                /* \"#utility.yul\":8274:8393   */\n            tag_244:\n                /* \"#utility.yul\":8460:8461   */\n              0x00\n                /* \"#utility.yul\":8449:8458   */\n              dup5\n                /* \"#utility.yul\":8445:8462   */\n              add\n                /* \"#utility.yul\":8432:8463   */\n              calldataload\n                /* \"#utility.yul\":8490:8508   */\n              0xffffffffffffffff\n                /* \"#utility.yul\":8482:8488   */\n              dup2\n                /* \"#utility.yul\":8479:8509   */\n              gt\n                /* \"#utility.yul\":8476:8593   */\n              iszero\n              tag_246\n              jumpi\n                /* \"#utility.yul\":8512:8591   */\n              tag_247\n              tag_98\n              jump\t// in\n            tag_247:\n                /* \"#utility.yul\":8476:8593   */\n            tag_246:\n                /* \"#utility.yul\":8617:8680   */\n              tag_248\n                /* \"#utility.yul\":8672:8679   */\n              dup7\n                /* \"#utility.yul\":8663:8669   */\n              dup3\n                /* \"#utility.yul\":8652:8661   */\n              dup8\n                /* \"#utility.yul\":8648:8670   */\n              add\n                /* \"#utility.yul\":8617:8680   */\n              tag_125\n              jump\t// in\n            tag_248:\n                /* \"#utility.yul\":8607:8680   */\n              swap4\n              pop\n                /* \"#utility.yul\":8403:8690   */\n              pop\n                /* \"#utility.yul\":8729:8731   */\n              0x20\n                /* \"#utility.yul\":8755:8808   */\n              tag_249\n                /* \"#utility.yul\":8800:8807   */\n              dup7\n                /* \"#utility.yul\":8791:8797   */\n              dup3\n                /* \"#utility.yul\":8780:8789   */\n              dup8\n                /* \"#utility.yul\":8776:8798   */\n              add\n                /* \"#utility.yul\":8755:8808   */\n              tag_101\n              jump\t// in\n            tag_249:\n                /* \"#utility.yul\":8745:8808   */\n              swap3\n              pop\n                /* \"#utility.yul\":8700:8818   */\n              pop\n                /* \"#utility.yul\":8857:8859   */\n              0x40\n                /* \"#utility.yul\":8883:8944   */\n              tag_250\n                /* \"#utility.yul\":8936:8943   */\n              dup7\n                /* \"#utility.yul\":8927:8933   */\n              dup3\n                /* \"#utility.yul\":8916:8925   */\n              dup8\n                /* \"#utility.yul\":8912:8934   */\n              add\n                /* \"#utility.yul\":8883:8944   */\n              tag_127\n              jump\t// in\n            tag_250:\n                /* \"#utility.yul\":8873:8944   */\n              swap2\n              pop\n                /* \"#utility.yul\":8828:8954   */\n              pop\n                /* \"#utility.yul\":8146:8961   */\n              swap3\n              pop\n              swap3\n              pop\n              swap3\n              jump\t// out\n                /* \"#utility.yul\":8967:9147   */\n            tag_128:\n                /* \"#utility.yul\":9015:9092   */\n              0x4e487b7100000000000000000000000000000000000000000000000000000000\n                /* \"#utility.yul\":9012:9013   */\n              0x00\n                /* \"#utility.yul\":9005:9093   */\n              mstore\n                /* \"#utility.yul\":9112:9116   */\n              0x12\n                /* \"#utility.yul\":9109:9110   */\n              0x04\n                /* \"#utility.yul\":9102:9117   */\n              mstore\n                /* \"#utility.yul\":9136:9140   */\n              0x24\n                /* \"#utility.yul\":9133:9134   */\n              0x00\n                /* \"#utility.yul\":9126:9141   */\n              revert\n                /* \"#utility.yul\":9153:9333   */\n            tag_129:\n                /* \"#utility.yul\":9201:9278   */\n              0x4e487b7100000000000000000000000000000000000000000000000000000000\n                /* \"#utility.yul\":9198:9199   */\n              0x00\n                /* \"#utility.yul\":9191:9279   */\n              mstore\n                /* \"#utility.yul\":9298:9302   */\n              0x11\n                /* \"#utility.yul\":9295:9296   */\n              0x04\n                /* \"#utility.yul\":9288:9303   */\n              mstore\n                /* \"#utility.yul\":9322:9326   */\n              0x24\n                /* \"#utility.yul\":9319:9320   */\n              0x00\n                /* \"#utility.yul\":9312:9327   */\n              revert\n                /* \"#utility.yul\":9339:9524   */\n            tag_70:\n                /* \"#utility.yul\":9379:9380   */\n              0x00\n                /* \"#utility.yul\":9396:9416   */\n              tag_254\n                /* \"#utility.yul\":9414:9415   */\n              dup3\n                /* \"#utility.yul\":9396:9416   */\n              tag_99\n              jump\t// in\n            tag_254:\n                /* \"#utility.yul\":9391:9416   */\n              swap2\n              pop\n                /* \"#utility.yul\":9430:9450   */\n              tag_255\n                /* \"#utility.yul\":9448:9449   */\n              dup4\n                /* \"#utility.yul\":9430:9450   */\n              tag_99\n              jump\t// in\n            tag_255:\n                /* \"#utility.yul\":9425:9450   */\n              swap3\n              pop\n                /* \"#utility.yul\":9469:9470   */\n              dup3\n                /* \"#utility.yul\":9459:9494   */\n              tag_256\n              jumpi\n                /* \"#utility.yul\":9474:9492   */\n              tag_257\n              tag_128\n              jump\t// in\n            tag_257:\n                /* \"#utility.yul\":9459:9494   */\n            tag_256:\n                /* \"#utility.yul\":9516:9517   */\n              dup3\n                /* \"#utility.yul\":9513:9514   */\n              dup3\n                /* \"#utility.yul\":9509:9518   */\n              div\n                /* \"#utility.yul\":9504:9518   */\n              swap1\n              pop\n                /* \"#utility.yul\":9339:9524   */\n              swap3\n              swap2\n              pop\n              pop\n              jump\t// out\n                /* \"#utility.yul\":9530:9710   */\n            tag_130:\n                /* \"#utility.yul\":9578:9655   */\n              0x4e487b7100000000000000000000000000000000000000000000000000000000\n                /* \"#utility.yul\":9575:9576   */\n              0x00\n                /* \"#utility.yul\":9568:9656   */\n              mstore\n                /* \"#utility.yul\":9675:9679   */\n              0x22\n                /* \"#utility.yul\":9672:9673   */\n              0x04\n                /* \"#utility.yul\":9665:9680   */\n              mstore\n                /* \"#utility.yul\":9699:9703   */\n              0x24\n                /* \"#utility.yul\":9696:9697   */\n              0x00\n                /* \"#utility.yul\":9689:9704   */\n              revert\n                /* \"#utility.yul\":9716:10036   */\n            tag_77:\n                /* \"#utility.yul\":9760:9766   */\n              0x00\n                /* \"#utility.yul\":9797:9798   */\n              0x02\n                /* \"#utility.yul\":9791:9795   */\n              dup3\n                /* \"#utility.yul\":9787:9799   */\n              div\n                /* \"#utility.yul\":9777:9799   */\n              swap1\n              pop\n                /* \"#utility.yul\":9844:9845   */\n              0x01\n                /* \"#utility.yul\":9838:9842   */\n              dup3\n                /* \"#utility.yul\":9834:9846   */\n              and\n                /* \"#utility.yul\":9865:9883   */\n              dup1\n                /* \"#utility.yul\":9855:9936   */\n              tag_260\n              jumpi\n                /* \"#utility.yul\":9921:9925   */\n              0x7f\n                /* \"#utility.yul\":9913:9919   */\n              dup3\n                /* \"#utility.yul\":9909:9926   */\n              and\n                /* \"#utility.yul\":9899:9926   */\n              swap2\n              pop\n                /* \"#utility.yul\":9855:9936   */\n            tag_260:\n                /* \"#utility.yul\":9983:9985   */\n              0x20\n                /* \"#utility.yul\":9975:9981   */\n              dup3\n                /* \"#utility.yul\":9972:9986   */\n              lt\n                /* \"#utility.yul\":9952:9970   */\n              dup2\n                /* \"#utility.yul\":9949:9987   */\n              sub\n                /* \"#utility.yul\":9946:10030   */\n              tag_261\n              jumpi\n                /* \"#utility.yul\":10002:10020   */\n              tag_262\n              tag_130\n              jump\t// in\n            tag_262:\n                /* \"#utility.yul\":9946:10030   */\n            tag_261:\n                /* \"#utility.yul\":9767:10036   */\n              pop\n                /* \"#utility.yul\":9716:10036   */\n              swap2\n              swap1\n              pop\n              jump\t// out\n                /* \"#utility.yul\":10042:10275   */\n            tag_86:\n                /* \"#utility.yul\":10081:10084   */\n              0x00\n                /* \"#utility.yul\":10104:10128   */\n              tag_264\n                /* \"#utility.yul\":10122:10127   */\n              dup3\n                /* \"#utility.yul\":10104:10128   */\n              tag_99\n              jump\t// in\n            tag_264:\n                /* \"#utility.yul\":10095:10128   */\n              swap2\n              pop\n                /* \"#utility.yul\":10150:10216   */\n              0xffffffffffffffffffffffffffffffffffffffffffffffffffffffffffffffff\n                /* \"#utility.yul\":10143:10148   */\n              dup3\n                /* \"#utility.yul\":10140:10217   */\n              sub\n                /* \"#utility.yul\":10137:10240   */\n              tag_265\n              jumpi\n                /* \"#utility.yul\":10220:10238   */\n              tag_266\n              tag_129\n              jump\t// in\n            tag_266:\n                /* \"#utility.yul\":10137:10240   */\n            tag_265:\n                /* \"#utility.yul\":10267:10268   */\n              0x01\n                /* \"#utility.yul\":10260:10265   */\n              dup3\n                /* \"#utility.yul\":10256:10269   */\n              add\n                /* \"#utility.yul\":10249:10269   */\n              swap1\n              pop\n                /* \"#utility.yul\":10042:10275   */\n              swap2\n              swap1\n              pop\n              jump\t// out\n                /* \"#utility.yul\":10281:10422   */\n            tag_131:\n                /* \"#utility.yul\":10330:10334   */\n              0x00\n                /* \"#utility.yul\":10353:10356   */\n              dup2\n                /* \"#utility.yul\":10345:10356   */\n              swap1\n              pop\n                /* \"#utility.yul\":10376:10379   */\n              dup2\n                /* \"#utility.yul\":10373:10374   */\n              0x00\n                /* \"#utility.yul\":10366:10380   */\n              mstore\n                /* \"#utility.yul\":10410:10414   */\n              0x20\n                /* \"#utility.yul\":10407:10408   */\n              0x00\n                /* \"#utility.yul\":10397:10415   */\n              keccak256\n                /* \"#utility.yul\":10389:10415   */\n              swap1\n              pop\n                /* \"#utility.yul\":10281:10422   */\n              swap2\n              swap1\n              pop\n              jump\t// out\n                /* \"#utility.yul\":10428:10521   */\n            tag_132:\n                /* \"#utility.yul\":10465:10471   */\n              0x00\n                /* \"#utility.yul\":10512:10514   */\n              0x20\n                /* \"#utility.yul\":10507:10509   */\n              0x1f\n                /* \"#utility.yul\":10500:10505   */\n              dup4\n                /* \"#utility.yul\":10496:10510   */\n              add\n                /* \"#utility.yul\":10492:10515   */\n              div\n                /* \"#utility.yul\":10482:10515   */\n              swap1\n              pop\n                /* \"#utility.yul\":10428:10521   */\n              swap2\n              swap1\n              pop\n              jump\t// out\n                /* \"#utility.yul\":10527:10634   */\n            tag_133:\n                /* \"#utility.yul\":10571:10579   */\n              0x00\n                /* \"#utility.yul\":10621:10626   */\n              dup3\n                /* \"#utility.yul\":10615:10619   */\n              dup3\n                /* \"#utility.yul\":10611:10627   */\n              shl\n                /* \"#utility.yul\":10590:10627   */\n              swap1\n              pop\n                /* \"#utility.yul\":10527:10634   */\n              swap3\n              swap2\n              pop\n              pop\n              jump\t// out\n                /* \"#utility.yul\":10640:11033   */\n            tag_134:\n                /* \"#utility.yul\":10709:10715   */\n              0x00\n                /* \"#utility.yul\":10759:10760   */\n              0x08\n                /* \"#utility.yul\":10747:10757   */\n              dup4\n                /* \"#utility.yul\":10743:10761   */\n              mul\n                /* \"#utility.yul\":10782:10879   */\n              tag_271\n                /* \"#utility.yul\":10812:10878   */\n              0xffffffffffffffffffffffffffffffffffffffffffffffffffffffffffffffff\n                /* \"#utility.yul\":10801:10810   */\n              dup3\n                /* \"#utility.yul\":10782:10879   */\n              tag_133\n              jump\t// in\n            tag_271:\n                /* \"#utility.yul\":10900:10939   */\n              tag_272\n                /* \"#utility.yul\":10930:10938   */\n              dup7\n                /* \"#utility.yul\":10919:10928   */\n              dup4\n                /* \"#utility.yul\":10900:10939   */\n              tag_133\n              jump\t// in\n            tag_272:\n                /* \"#utility.yul\":10888:10939   */\n              swap6\n              pop\n                /* \"#utility.yul\":10972:10976   */\n              dup1\n                /* \"#utility.yul\":10968:10977   */\n              not\n                /* \"#utility.yul\":10961:10966   */\n              dup5\n                /* \"#utility.yul\":10957:10978   */\n              and\n                /* \"#utility.yul\":10948:10978   */\n              swap4\n              pop\n                /* \"#utility.yul\":11021:11025   */\n              dup1\n                /* \"#utility.yul\":11011:11019   */\n              dup7\n                /* \"#utility.yul\":11007:11026   */\n              and\n                /* \"#utility.yul\":11000:11005   */\n              dup5\n                /* \"#utility.yul\":10997:11027   */\n              or\n                /* \"#utility.yul\":10987:11027   */\n              swap3\n              pop\n                /* \"#utility.yul\":10716:11033   */\n              pop\n              pop\n                /* \"#utility.yul\":10640:11033   */\n              swap4\n              swap3\n              pop\n              pop\n              pop\n              jump\t// out\n                /* \"#utility.yul\":11039:11099   */\n            tag_135:\n                /* \"#utility.yul\":11067:11070   */\n              0x00\n                /* \"#utility.yul\":11088:11093   */\n              dup2\n                /* \"#utility.yul\":11081:11093   */\n              swap1\n              pop\n                /* \"#utility.yul\":11039:11099   */\n              swap2\n              swap1\n              pop\n              jump\t// out\n                /* \"#utility.yul\":11105:11247   */\n            tag_136:\n                /* \"#utility.yul\":11155:11164   */\n              0x00\n                /* \"#utility.yul\":11188:11241   */\n              tag_275\n                /* \"#utility.yul\":11206:11240   */\n              tag_276\n                /* \"#utility.yul\":11215:11239   */\n              tag_277\n                /* \"#utility.yul\":11233:11238   */\n              dup5\n                /* \"#utility.yul\":11215:11239   */\n              tag_99\n              jump\t// in\n            tag_277:\n                /* \"#utility.yul\":11206:11240   */\n              tag_135\n              jump\t// in\n            tag_276:\n                /* \"#utility.yul\":11188:11241   */\n              tag_99\n              jump\t// in\n            tag_275:\n                /* \"#utility.yul\":11175:11241   */\n              swap1\n              pop\n                /* \"#utility.yul\":11105:11247   */\n              swap2\n              swap1\n              pop\n              jump\t// out\n                /* \"#utility.yul\":11253:11328   */\n            tag_137:\n                /* \"#utility.yul\":11296:11299   */\n              0x00\n                /* \"#utility.yul\":11317:11322   */\n              dup2\n                /* \"#utility.yul\":11310:11322   */\n              swap1\n              pop\n                /* \"#utility.yul\":11253:11328   */\n              swap2\n              swap1\n              pop\n              jump\t// out\n                /* \"#utility.yul\":11334:11603   */\n            tag_138:\n                /* \"#utility.yul\":11444:11483   */\n              tag_280\n                /* \"#utility.yul\":11475:11482   */\n              dup4\n                /* \"#utility.yul\":11444:11483   */\n              tag_136\n              jump\t// in\n            tag_280:\n                /* \"#utility.yul\":11505:11596   */\n              tag_281\n                /* \"#utility.yul\":11554:11595   */\n              tag_282\n                /* \"#utility.yul\":11578:11594   */\n              dup3\n                /* \"#utility.yul\":11554:11595   */\n              tag_137\n              jump\t// in\n            tag_282:\n                /* \"#utility.yul\":11546:11552   */\n              dup5\n                /* \"#utility.yul\":11539:11543   */\n              dup5\n                /* \"#utility.yul\":11533:11544   */\n              sload\n                /* \"#utility.yul\":11505:11596   */\n              tag_134\n              jump\t// in\n            tag_281:\n                /* \"#utility.yul\":11499:11503   */\n              dup3\n                /* \"#utility.yul\":11492:11597   */\n              sstore\n                /* \"#utility.yul\":11410:11603   */\n              pop\n                /* \"#utility.yul\":11334:11603   */\n              pop\n              pop\n              pop\n              jump\t// out\n                /* \"#utility.yul\":11609:11682   */\n            tag_139:\n                /* \"#utility.yul\":11654:11657   */\n              0x00\n                /* \"#utility.yul\":11609:11682   */\n              swap1\n              jump\t// out\n                /* \"#utility.yul\":11688:11877   */\n            tag_140:\n                /* \"#utility.yul\":11765:11797   */\n              tag_285\n              tag_139\n              jump\t// in\n            tag_285:\n                /* \"#utility.yul\":11806:11871   */\n              tag_286\n                /* \"#utility.yul\":11864:11870   */\n              dup2\n                /* \"#utility.yul\":11856:11862   */\n              dup5\n                /* \"#utility.yul\":11850:11854   */\n              dup5\n                /* \"#utility.yul\":11806:11871   */\n              tag_138\n              jump\t// in\n            tag_286:\n                /* \"#utility.yul\":11741:11877   */\n              pop\n                /* \"#utility.yul\":11688:11877   */\n              pop\n              pop\n              jump\t// out\n                /* \"#utility.yul\":11883:12069   */\n            tag_141:\n                /* \"#utility.yul\":11943:12063   */\n            tag_288:\n                /* \"#utility.yul\":11960:11963   */\n              dup2\n                /* \"#utility.yul\":11953:11958   */\n              dup2\n                /* \"#utility.yul\":11950:11964   */\n              lt\n                /* \"#utility.yul\":11943:12063   */\n              iszero\n              tag_290\n              jumpi\n                /* \"#utility.yul\":12014:12053   */\n              tag_291\n                /* \"#utility.yul\":12051:12052   */\n              0x00\n                /* \"#utility.yul\":12044:12049   */\n              dup3\n                /* \"#utility.yul\":12014:12053   */\n              tag_140\n              jump\t// in\n            tag_291:\n                /* \"#utility.yul\":11987:11988   */\n              0x01\n                /* \"#utility.yul\":11980:11985   */\n              dup2\n                /* \"#utility.yul\":11976:11989   */\n              add\n                /* \"#utility.yul\":11967:11989   */\n              swap1\n              pop\n                /* \"#utility.yul\":11943:12063   */\n              jump(tag_288)\n            tag_290:\n                /* \"#utility.yul\":11883:12069   */\n              pop\n              pop\n              jump\t// out\n                /* \"#utility.yul\":12075:12618   */\n            tag_142:\n                /* \"#utility.yul\":12176:12178   */\n              0x1f\n                /* \"#utility.yul\":12171:12174   */\n              dup3\n                /* \"#utility.yul\":12168:12179   */\n              gt\n                /* \"#utility.yul\":12165:12611   */\n              iszero\n              tag_293\n              jumpi\n                /* \"#utility.yul\":12210:12248   */\n              tag_294\n                /* \"#utility.yul\":12242:12247   */\n              dup2\n                /* \"#utility.yul\":12210:12248   */\n              tag_131\n              jump\t// in\n            tag_294:\n                /* \"#utility.yul\":12294:12323   */\n              tag_295\n                /* \"#utility.yul\":12312:12322   */\n              dup5\n                /* \"#utility.yul\":12294:12323   */\n              tag_132\n              jump\t// in\n            tag_295:\n                /* \"#utility.yul\":12284:12292   */\n              dup2\n                /* \"#utility.yul\":12280:12324   */\n              add\n                /* \"#utility.yul\":12477:12479   */\n              0x20\n                /* \"#utility.yul\":12465:12475   */\n              dup6\n                /* \"#utility.yul\":12462:12480   */\n              lt\n                /* \"#utility.yul\":12459:12508   */\n              iszero\n              tag_296\n              jumpi\n                /* \"#utility.yul\":12498:12506   */\n              dup2\n                /* \"#utility.yul\":12483:12506   */\n              swap1\n              pop\n                /* \"#utility.yul\":12459:12508   */\n            tag_296:\n                /* \"#utility.yul\":12521:12601   */\n              tag_297\n                /* \"#utility.yul\":12577:12599   */\n              tag_298\n                /* \"#utility.yul\":12595:12598   */\n              dup6\n                /* \"#utility.yul\":12577:12599   */\n              tag_132\n              jump\t// in\n            tag_298:\n                /* \"#utility.yul\":12567:12575   */\n              dup4\n                /* \"#utility.yul\":12563:12600   */\n              add\n                /* \"#utility.yul\":12550:12561   */\n              dup3\n                /* \"#utility.yul\":12521:12601   */\n              tag_141\n              jump\t// in\n            tag_297:\n                /* \"#utility.yul\":12180:12611   */\n              pop\n              pop\n                /* \"#utility.yul\":12165:12611   */\n            tag_293:\n                /* \"#utility.yul\":12075:12618   */\n              pop\n              pop\n              pop\n              jump\t// out\n                /* \"#utility.yul\":12624:12741   */\n            tag_143:\n                /* \"#utility.yul\":12678:12686   */\n              0x00\n                /* \"#utility.yul\":12728:12733   */\n              dup3\n                /* \"#utility.yul\":12722:12726   */\n              dup3\n                /* \"#utility.yul\":12718:12734   */\n              shr\n                /* \"#utility.yul\":12697:12734   */\n              swap1\n              pop\n                /* \"#utility.yul\":12624:12741   */\n              swap3\n              swap2\n              pop\n              pop\n              jump\t// out\n                /* \"#utility.yul\":12747:12916   */\n            tag_144:\n                /* \"#utility.yul\":12791:12797   */\n              0x00\n                /* \"#utility.yul\":12824:12875   */\n              tag_301\n                /* \"#utility.yul\":12872:12873   */\n              0x00\n                /* \"#utility.yul\":12868:12874   */\n              not\n                /* \"#utility.yul\":12860:12865   */\n              dup5\n                /* \"#utility.yul\":12857:12858   */\n              0x08\n                /* \"#utility.yul\":12853:12866   */\n              mul\n                /* \"#utility.yul\":12824:12875   */\n              tag_143\n              jump\t// in\n            tag_301:\n                /* \"#utility.yul\":12820:12876   */\n              not\n                /* \"#utility.yul\":12905:12909   */\n              dup1\n                /* \"#utility.yul\":12899:12903   */\n              dup4\n                /* \"#utility.yul\":12895:12910   */\n              and\n                /* \"#utility.yul\":12885:12910   */\n              swap2\n              pop\n                /* \"#utility.yul\":12798:12916   */\n              pop\n                /* \"#utility.yul\":12747:12916   */\n              swap3\n              swap2\n              pop\n              pop\n              jump\t// out\n                /* \"#utility.yul\":12921:13216   */\n            tag_145:\n                /* \"#utility.yul\":12997:13001   */\n              0x00\n                /* \"#utility.yul\":13143:13172   */\n              tag_303\n                /* \"#utility.yul\":13168:13171   */\n              dup4\n                /* \"#utility.yul\":13162:13166   */\n              dup4\n                /* \"#utility.yul\":13143:13172   */\n              tag_144\n              jump\t// in\n            tag_303:\n                /* \"#utility.yul\":13135:13172   */\n              swap2\n              pop\n                /* \"#utility.yul\":13205:13208   */\n              dup3\n                /* \"#utility.yul\":13202:13203   */\n              0x02\n                /* \"#utility.yul\":13198:13209   */\n              mul\n                /* \"#utility.yul\":13192:13196   */\n              dup3\n                /* \"#utility.yul\":13189:13210   */\n              or\n                /* \"#utility.yul\":13181:13210   */\n              swap1\n              pop\n                /* \"#utility.yul\":12921:13216   */\n              swap3\n              swap2\n              pop\n              pop\n              jump\t// out\n                /* \"#utility.yul\":13221:14616   */\n            tag_88:\n                /* \"#utility.yul\":13338:13375   */\n              tag_305\n                /* \"#utility.yul\":13371:13374   */\n              dup3\n                /* \"#utility.yul\":13338:13375   */\n              tag_110\n              jump\t// in\n            tag_305:\n                /* \"#utility.yul\":13440:13458   */\n              0xffffffffffffffff\n                /* \"#utility.yul\":13432:13438   */\n              dup2\n                /* \"#utility.yul\":13429:13459   */\n              gt\n                /* \"#utility.yul\":13426:13482   */\n              iszero\n              tag_306\n              jumpi\n                /* \"#utility.yul\":13462:13480   */\n              tag_307\n              tag_119\n              jump\t// in\n            tag_307:\n                /* \"#utility.yul\":13426:13482   */\n            tag_306:\n                /* \"#utility.yul\":13506:13544   */\n              tag_308\n                /* \"#utility.yul\":13538:13542   */\n              dup3\n                /* \"#utility.yul\":13532:13543   */\n              sload\n                /* \"#utility.yul\":13506:13544   */\n              tag_77\n              jump\t// in\n            tag_308:\n                /* \"#utility.yul\":13591:13658   */\n              tag_309\n                /* \"#utility.yul\":13651:13657   */\n              dup3\n                /* \"#utility.yul\":13643:13649   */\n              dup3\n                /* \"#utility.yul\":13637:13641   */\n              dup6\n                /* \"#utility.yul\":13591:13658   */\n              tag_142\n              jump\t// in\n            tag_309:\n                /* \"#utility.yul\":13685:13686   */\n              0x00\n                /* \"#utility.yul\":13709:13713   */\n              0x20\n                /* \"#utility.yul\":13696:13713   */\n              swap1\n              pop\n                /* \"#utility.yul\":13741:13743   */\n              0x1f\n                /* \"#utility.yul\":13733:13739   */\n              dup4\n                /* \"#utility.yul\":13730:13744   */\n              gt\n                /* \"#utility.yul\":13758:13759   */\n              0x01\n                /* \"#utility.yul\":13753:14371   */\n              dup2\n              eq\n              tag_311\n              jumpi\n                /* \"#utility.yul\":14415:14416   */\n              0x00\n                /* \"#utility.yul\":14432:14438   */\n              dup5\n                /* \"#utility.yul\":14429:14506   */\n              iszero\n              tag_312\n              jumpi\n                /* \"#utility.yul\":14481:14490   */\n              dup3\n                /* \"#utility.yul\":14476:14479   */\n              dup8\n                /* \"#utility.yul\":14472:14491   */\n              add\n                /* \"#utility.yul\":14466:14492   */\n              mload\n                /* \"#utility.yul\":14457:14492   */\n              swap1\n              pop\n                /* \"#utility.yul\":14429:14506   */\n            tag_312:\n                /* \"#utility.yul\":14532:14599   */\n              tag_313\n                /* \"#utility.yul\":14592:14598   */\n              dup6\n                /* \"#utility.yul\":14585:14590   */\n              dup3\n                /* \"#utility.yul\":14532:14599   */\n              tag_145\n              jump\t// in\n            tag_313:\n                /* \"#utility.yul\":14526:14530   */\n              dup7\n                /* \"#utility.yul\":14519:14600   */\n              sstore\n                /* \"#utility.yul\":14388:14610   */\n              pop\n                /* \"#utility.yul\":13723:14610   */\n              jump(tag_310)\n                /* \"#utility.yul\":13753:14371   */\n            tag_311:\n                /* \"#utility.yul\":13805:13809   */\n              0x1f\n                /* \"#utility.yul\":13801:13810   */\n              not\n                /* \"#utility.yul\":13793:13799   */\n              dup5\n                /* \"#utility.yul\":13789:13811   */\n              and\n                /* \"#utility.yul\":13839:13876   */\n              tag_314\n                /* \"#utility.yul\":13871:13875   */\n              dup7\n                /* \"#utility.yul\":13839:13876   */\n              tag_131\n              jump\t// in\n            tag_314:\n                /* \"#utility.yul\":13898:13899   */\n              0x00\n                /* \"#utility.yul\":13912:14120   */\n            tag_315:\n                /* \"#utility.yul\":13926:13933   */\n              dup3\n                /* \"#utility.yul\":13923:13924   */\n              dup2\n                /* \"#utility.yul\":13920:13934   */\n              lt\n                /* \"#utility.yul\":13912:14120   */\n              iszero\n              tag_317\n              jumpi\n                /* \"#utility.yul\":14005:14014   */\n              dup5\n                /* \"#utility.yul\":14000:14003   */\n              dup10\n                /* \"#utility.yul\":13996:14015   */\n              add\n                /* \"#utility.yul\":13990:14016   */\n              mload\n                /* \"#utility.yul\":13982:13988   */\n              dup3\n                /* \"#utility.yul\":13975:14017   */\n              sstore\n                /* \"#utility.yul\":14056:14057   */\n              0x01\n                /* \"#utility.yul\":14048:14054   */\n              dup3\n                /* \"#utility.yul\":14044:14058   */\n              add\n                /* \"#utility.yul\":14034:14058   */\n              swap2\n              pop\n                /* \"#utility.yul\":14103:14105   */\n              0x20\n                /* \"#utility.yul\":14092:14101   */\n              dup6\n                /* \"#utility.yul\":14088:14106   */\n              add\n                /* \"#utility.yul\":14075:14106   */\n              swap5\n              pop\n                /* \"#utility.yul\":13949:13953   */\n              0x20\n                /* \"#utility.yul\":13946:13947   */\n              dup2\n                /* \"#utility.yul\":13942:13954   */\n              add\n                /* \"#utility.yul\":13937:13954   */\n              swap1\n              pop\n                /* \"#utility.yul\":13912:14120   */\n              jump(tag_315)\n            tag_317:\n                /* \"#utility.yul\":14148:14154   */\n              dup7\n                /* \"#utility.yul\":14139:14146   */\n              dup4\n                /* \"#utility.yul\":14136:14155   */\n              lt\n                /* \"#utility.yul\":14133:14312   */\n              iszero\n              tag_318\n              jumpi\n                /* \"#utility.yul\":14206:14215   */\n              dup5\n                /* \"#utility.yul\":14201:14204   */\n              dup10\n                /* \"#utility.yul\":14197:14216   */\n              add\n                /* \"#utility.yul\":14191:14217   */\n              mload\n                /* \"#utility.yul\":14249:14297   */\n              tag_319\n                /* \"#utility.yul\":14291:14295   */\n              0x1f\n                /* \"#utility.yul\":14283:14289   */\n              dup10\n                /* \"#utility.yul\":14279:14296   */\n              and\n                /* \"#utility.yul\":14268:14277   */\n              dup3\n                /* \"#utility.yul\":14249:14297   */\n              tag_144\n              jump\t// in\n            tag_319:\n                /* \"#utility.yul\":14241:14247   */\n              dup4\n                /* \"#utility.yul\":14234:14298   */\n              sstore\n                /* \"#utility.yul\":14156:14312   */\n              pop\n                /* \"#utility.yul\":14133:14312   */\n            tag_318:\n                /* \"#utility.yul\":14358:14359   */\n              0x01\n                /* \"#utility.yul\":14354:14355   */\n              0x02\n                /* \"#utility.yul\":14346:14352   */\n              dup9\n                /* \"#utility.yul\":14342:14356   */\n              mul\n                /* \"#utility.yul\":14338:14360   */\n              add\n                /* \"#utility.yul\":14332:14336   */\n              dup9\n                /* \"#utility.yul\":14325:14361   */\n              sstore\n                /* \"#utility.yul\":13760:14371   */\n              pop\n              pop\n              pop\n                /* \"#utility.yul\":13723:14610   */\n            tag_310:\n              pop\n                /* \"#utility.yul\":13313:14616   */\n              pop\n              pop\n              pop\n                /* \"#utility.yul\":13221:14616   */\n              pop\n              pop\n              jump\t// out\n\n            auxdata: 0xa2646970667358221220b734aff18bd336d6959b3d2c7e06aa5e8ae4331ced38b4f8766725294d5162fb64736f6c63430008110033\n        }\n    }\n\n    auxdata: 0xa264697066735822122096724ff4d8be3624827d8e1257e50fecea4240af6c1f6233f33cc11fd9640d6764736f6c63430008110033\n}\n","bytecode":{"linkReferences":{},"object":"608060405234801561001057600080fd5b50611677806100206000396000f3fe608060405234801561001057600080fd5b50600436106100415760003560e01c8063339d50a5146100465780634acb9d4f14610076578063a3303a7514610094575b600080fd5b610060600480360381019061005b9190610266565b6100b0565b60405161006d91906102d4565b60405180910390f35b61007e6100ef565b60405161008b91906103ad565b60405180910390f35b6100ae60048036038101906100a99190610266565b61017d565b005b600081815481106100c057600080fd5b906000526020600020016000915054906101000a900473ffffffffffffffffffffffffffffffffffffffff1681565b6060600080548060200260200160405190810160405280929190818152602001828054801561017357602002820191906000526020600020905b8160009054906101000a900473ffffffffffffffffffffffffffffffffffffffff1673ffffffffffffffffffffffffffffffffffffffff1681526020019060010190808311610129575b5050505050905090565b6000813360405161018d9061021e565b6101989291906103de565b604051809103906000f0801580156101b4573d6000803e3d6000fd5b5090506000819080600181540180825580915050600190039060005260206000200160009091909190916101000a81548173ffffffffffffffffffffffffffffffffffffffff021916908373ffffffffffffffffffffffffffffffffffffffff1602179055505050565b61123a8061040883390190565b600080fd5b6000819050919050565b61024381610230565b811461024e57600080fd5b50565b6000813590506102608161023a565b92915050565b60006020828403121561027c5761027b61022b565b5b600061028a84828501610251565b91505092915050565b600073ffffffffffffffffffffffffffffffffffffffff82169050919050565b60006102be82610293565b9050919050565b6102ce816102b3565b82525050565b60006020820190506102e960008301846102c5565b92915050565b600081519050919050565b600082825260208201905092915050565b6000819050602082019050919050565b610324816102b3565b82525050565b6000610336838361031b565b60208301905092915050565b6000602082019050919050565b600061035a826102ef565b61036481856102fa565b935061036f8361030b565b8060005b838110156103a0578151610387888261032a565b975061039283610342565b925050600181019050610373565b5085935050505092915050565b600060208201905081810360008301526103c7818461034f565b905092915050565b6103d881610230565b82525050565b60006040820190506103f360008301856103cf565b61040060208301846102c5565b939250505056fe60806040523480156200001157600080fd5b506040516200123a3803806200123a83398181016040528101906200003791906200012c565b80600260006101000a81548173ffffffffffffffffffffffffffffffffffffffff021916908373ffffffffffffffffffffffffffffffffffffffff16021790555081600381905550505062000173565b600080fd5b6000819050919050565b620000a1816200008c565b8114620000ad57600080fd5b50565b600081519050620000c18162000096565b92915050565b600073ffffffffffffffffffffffffffffffffffffffff82169050919050565b6000620000f482620000c7565b9050919050565b6200010681620000e7565b81146200011257600080fd5b50565b6000815190506200012681620000fb565b92915050565b6000806040838503121562000146576200014562000087565b5b60006200015685828601620000b0565b9250506020620001698582860162000115565b9150509250929050565b6110b780620001836000396000f3fe60806040526004361061009c5760003560e01c806382fde0931161006457806382fde093146101a25780638a9cfd55146101cd578063937e09b1146101f65780639fb42b1f14610221578063d7bb99ba1461024c578063d7d1bbdb146102565761009c565b806303441006146100a15780630a144391146100ca5780634051ddac14610107578063481c6a751461013657806381d12c5814610161575b600080fd5b3480156100ad57600080fd5b506100c860048036038101906100c3919061085c565b61027f565b005b3480156100d657600080fd5b506100f160048036038101906100ec91906108e7565b6103ba565b6040516100fe919061092f565b60405180910390f35b34801561011357600080fd5b5061011c6103da565b60405161012d959493929190610968565b60405180910390f35b34801561014257600080fd5b5061014b610420565b60405161015891906109bb565b60405180910390f35b34801561016d57600080fd5b506101886004803603810190610183919061085c565b610446565b604051610199959493929190610a87565b60405180910390f35b3480156101ae57600080fd5b506101b7610531565b6040516101c49190610ae1565b60405180910390f35b3480156101d957600080fd5b506101f460048036038101906101ef9190610c5d565b610537565b005b34801561020257600080fd5b5061020b610648565b6040516102189190610ae1565b60405180910390f35b34801561022d57600080fd5b5061023661064e565b6040516102439190610ae1565b60405180910390f35b610254610654565b005b34801561026257600080fd5b5061027d6004803603810190610278919061085c565b6106d4565b005b600260009054906101000a900473ffffffffffffffffffffffffffffffffffffffff1673ffffffffffffffffffffffffffffffffffffffff163373ffffffffffffffffffffffffffffffffffffffff16146102d957600080fd5b600060016000838152602001908152602001600020905060026005546102ff9190610d2a565b81600301541161030e57600080fd5b8060020160149054906101000a900460ff161561032a57600080fd5b8060020160009054906101000a900473ffffffffffffffffffffffffffffffffffffffff1673ffffffffffffffffffffffffffffffffffffffff166108fc82600101549081150290604051600060405180830381858888f19350505050158015610398573d6000803e3d6000fd5b5060018160020160146101000a81548160ff0219169083151502179055505050565b60046020528060005260406000206000915054906101000a900460ff1681565b600080600080600060035447600054600554600260009054906101000a900473ffffffffffffffffffffffffffffffffffffffff16945094509450945094509091929394565b600260009054906101000a900473ffffffffffffffffffffffffffffffffffffffff1681565b600160205280600052604060002060009150905080600001805461046990610d8a565b80601f016020809104026020016040519081016040528092919081815260200182805461049590610d8a565b80156104e25780601f106104b7576101008083540402835291602001916104e2565b820191906000526020600020905b8154815290600101906020018083116104c557829003601f168201915b5050505050908060010154908060020160009054906101000a900473ffffffffffffffffffffffffffffffffffffffff16908060020160149054906101000a900460ff16908060030154905085565b60055481565b600260009054906101000a900473ffffffffffffffffffffffffffffffffffffffff1673ffffffffffffffffffffffffffffffffffffffff163373ffffffffffffffffffffffffffffffffffffffff161461059157600080fd5b6000600160008060008154809291906105a990610dbb565b9190505581526020019081526020016000209050838160000190816105ce9190610faf565b50828160010181905550818160020160006101000a81548173ffffffffffffffffffffffffffffffffffffffff021916908373ffffffffffffffffffffffffffffffffffffffff16021790555060008160020160146101000a81548160ff0219169083151502179055506000816003018190555050505050565b60035481565b60005481565b600354341161066257600080fd5b6001600460003373ffffffffffffffffffffffffffffffffffffffff1673ffffffffffffffffffffffffffffffffffffffff16815260200190815260200160002060006101000a81548160ff021916908315150217905550600560008154809291906106cd90610dbb565b9190505550565b6000600160008381526020019081526020016000209050600460003373ffffffffffffffffffffffffffffffffffffffff1673ffffffffffffffffffffffffffffffffffffffff16815260200190815260200160002060009054906101000a900460ff1661074157600080fd5b8060040160003373ffffffffffffffffffffffffffffffffffffffff1673ffffffffffffffffffffffffffffffffffffffff16815260200190815260200160002060009054906101000a900460ff161561079a57600080fd5b60018160040160003373ffffffffffffffffffffffffffffffffffffffff1673ffffffffffffffffffffffffffffffffffffffff16815260200190815260200160002060006101000a81548160ff02191690831515021790555080600301600081548092919061080990610dbb565b91905055505050565b6000604051905090565b600080fd5b600080fd5b6000819050919050565b61083981610826565b811461084457600080fd5b50565b60008135905061085681610830565b92915050565b6000602082840312156108725761087161081c565b5b600061088084828501610847565b91505092915050565b600073ffffffffffffffffffffffffffffffffffffffff82169050919050565b60006108b482610889565b9050919050565b6108c4816108a9565b81146108cf57600080fd5b50565b6000813590506108e1816108bb565b92915050565b6000602082840312156108fd576108fc61081c565b5b600061090b848285016108d2565b91505092915050565b60008115159050919050565b61092981610914565b82525050565b60006020820190506109446000830184610920565b92915050565b61095381610826565b82525050565b610962816108a9565b82525050565b600060a08201905061097d600083018861094a565b61098a602083018761094a565b610997604083018661094a565b6109a4606083018561094a565b6109b16080830184610959565b9695505050505050565b60006020820190506109d06000830184610959565b92915050565b600081519050919050565b600082825260208201905092915050565b60005b83811015610a105780820151818401526020810190506109f5565b60008484015250505050565b6000601f19601f8301169050919050565b6000610a38826109d6565b610a4281856109e1565b9350610a528185602086016109f2565b610a5b81610a1c565b840191505092915050565b6000610a7182610889565b9050919050565b610a8181610a66565b82525050565b600060a0820190508181036000830152610aa18188610a2d565b9050610ab0602083018761094a565b610abd6040830186610a78565b610aca6060830185610920565b610ad7608083018461094a565b9695505050505050565b6000602082019050610af6600083018461094a565b92915050565b600080fd5b600080fd5b7f4e487b7100000000000000000000000000000000000000000000000000000000600052604160045260246000fd5b610b3e82610a1c565b810181811067ffffffffffffffff82111715610b5d57610b5c610b06565b5b80604052505050565b6000610b70610812565b9050610b7c8282610b35565b919050565b600067ffffffffffffffff821115610b9c57610b9b610b06565b5b610ba582610a1c565b9050602081019050919050565b82818337600083830152505050565b6000610bd4610bcf84610b81565b610b66565b905082815260208101848484011115610bf057610bef610b01565b5b610bfb848285610bb2565b509392505050565b600082601f830112610c1857610c17610afc565b5b8135610c28848260208601610bc1565b91505092915050565b610c3a81610a66565b8114610c4557600080fd5b50565b600081359050610c5781610c31565b92915050565b600080600060608486031215610c7657610c7561081c565b5b600084013567ffffffffffffffff811115610c9457610c93610821565b5b610ca086828701610c03565b9350506020610cb186828701610847565b9250506040610cc286828701610c48565b9150509250925092565b7f4e487b7100000000000000000000000000000000000000000000000000000000600052601260045260246000fd5b7f4e487b7100000000000000000000000000000000000000000000000000000000600052601160045260246000fd5b6000610d3582610826565b9150610d4083610826565b925082610d5057610d4f610ccc565b5b828204905092915050565b7f4e487b7100000000000000000000000000000000000000000000000000000000600052602260045260246000fd5b60006002820490506001821680610da257607f821691505b602082108103610db557610db4610d5b565b5b50919050565b6000610dc682610826565b91507fffffffffffffffffffffffffffffffffffffffffffffffffffffffffffffffff8203610df857610df7610cfb565b5b600182019050919050565b60008190508160005260206000209050919050565b60006020601f8301049050919050565b600082821b905092915050565b600060088302610e657fffffffffffffffffffffffffffffffffffffffffffffffffffffffffffffffff82610e28565b610e6f8683610e28565b95508019841693508086168417925050509392505050565b6000819050919050565b6000610eac610ea7610ea284610826565b610e87565b610826565b9050919050565b6000819050919050565b610ec683610e91565b610eda610ed282610eb3565b848454610e35565b825550505050565b600090565b610eef610ee2565b610efa818484610ebd565b505050565b5b81811015610f1e57610f13600082610ee7565b600181019050610f00565b5050565b601f821115610f6357610f3481610e03565b610f3d84610e18565b81016020851015610f4c578190505b610f60610f5885610e18565b830182610eff565b50505b505050565b600082821c905092915050565b6000610f8660001984600802610f68565b1980831691505092915050565b6000610f9f8383610f75565b9150826002028217905092915050565b610fb8826109d6565b67ffffffffffffffff811115610fd157610fd0610b06565b5b610fdb8254610d8a565b610fe6828285610f22565b600060209050601f8311600181146110195760008415611007578287015190505b6110118582610f93565b865550611079565b601f19841661102786610e03565b60005b8281101561104f5784890151825560018201915060208501945060208101905061102a565b8683101561106c5784890151611068601f891682610f75565b8355505b6001600288020188555050505b50505050505056fea2646970667358221220b734aff18bd336d6959b3d2c7e06aa5e8ae4331ced38b4f8766725294d5162fb64736f6c63430008110033a264697066735822122096724ff4d8be3624827d8e1257e50fecea4240af6c1f6233f33cc11fd9640d6764736f6c63430008110033","opcodes":"PUSH1 0x80 PUSH1 0x40 MSTORE CALLVALUE DUP1 ISZERO PUSH2 0x10 JUMPI PUSH1 0x0 DUP1 REVERT JUMPDEST POP PUSH2 0x1677 DUP1 PUSH2 0x20 PUSH1 0x0 CODECOPY PUSH1 0x0 RETURN INVALID PUSH1 0x80 PUSH1 0x40 MSTORE CALLVALUE DUP1 ISZERO PUSH2 0x10 JUMPI PUSH1 0x0 DUP1 REVERT JUMPDEST POP PUSH1 0x4 CALLDATASIZE LT PUSH2 0x41 JUMPI PUSH1 0x0 CALLDATALOAD PUSH1 0xE0 SHR DUP1 PUSH4 0x339D50A5 EQ PUSH2 0x46 JUMPI DUP1 PUSH4 0x4ACB9D4F EQ PUSH2 0x76 JUMPI DUP1 PUSH4 0xA3303A75 EQ PUSH2 0x94 JUMPI JUMPDEST PUSH1 0x0 DUP1 REVERT JUMPDEST PUSH2 0x60 PUSH1 0x4 DUP1 CALLDATASIZE SUB DUP2 ADD SWAP1 PUSH2 0x5B SWAP2 SWAP1 PUSH2 0x266 JUMP JUMPDEST PUSH2 0xB0 JUMP JUMPDEST PUSH1 0x40 MLOAD PUSH2 0x6D SWAP2 SWAP1 PUSH2 0x2D4 JUMP JUMPDEST PUSH1 0x40 MLOAD DUP1 SWAP2 SUB SWAP1 RETURN JUMPDEST PUSH2 0x7E PUSH2 0xEF JUMP JUMPDEST PUSH1 0x40 MLOAD PUSH2 0x8B SWAP2 SWAP1 PUSH2 0x3AD JUMP JUMPDEST PUSH1 0x40 MLOAD DUP1 SWAP2 SUB SWAP1 RETURN JUMPDEST PUSH2 0xAE PUSH1 0x4 DUP1 CALLDATASIZE SUB DUP2 ADD SWAP1 PUSH2 0xA9 SWAP2 SWAP1 PUSH2 0x266 JUMP JUMPDEST PUSH2 0x17D JUMP JUMPDEST STOP JUMPDEST PUSH1 0x0 DUP2 DUP2 SLOAD DUP2 LT PUSH2 0xC0 JUMPI PUSH1 0x0 DUP1 REVERT JUMPDEST SWAP1 PUSH1 0x0 MSTORE PUSH1 0x20 PUSH1 0x0 KECCAK256 ADD PUSH1 0x0 SWAP2 POP SLOAD SWAP1 PUSH2 0x100 EXP SWAP1 DIV PUSH20 0xFFFFFFFFFFFFFFFFFFFFFFFFFFFFFFFFFFFFFFFF AND DUP2 JUMP JUMPDEST PUSH1 0x60 PUSH1 0x0 DUP1 SLOAD DUP1 PUSH1 0x20 MUL PUSH1 0x20 ADD PUSH1 0x40 MLOAD SWAP1 DUP2 ADD PUSH1 0x40 MSTORE DUP1 SWAP3 SWAP2 SWAP1 DUP2 DUP2 MSTORE PUSH1 0x20 ADD DUP3 DUP1 SLOAD DUP1 ISZERO PUSH2 0x173 JUMPI PUSH1 0x20 MUL DUP3 ADD SWAP2 SWAP1 PUSH1 0x0 MSTORE PUSH1 0x20 PUSH1 0x0 KECCAK256 SWAP1 JUMPDEST DUP2 PUSH1 0x0 SWAP1 SLOAD SWAP1 PUSH2 0x100 EXP SWAP1 DIV PUSH20 0xFFFFFFFFFFFFFFFFFFFFFFFFFFFFFFFFFFFFFFFF AND PUSH20 0xFFFFFFFFFFFFFFFFFFFFFFFFFFFFFFFFFFFFFFFF AND DUP2 MSTORE PUSH1 0x20 ADD SWAP1 PUSH1 0x1 ADD SWAP1 DUP1 DUP4 GT PUSH2 0x129 JUMPI JUMPDEST POP POP POP POP POP SWAP1 POP SWAP1 JUMP JUMPDEST PUSH1 0x0 DUP2 CALLER PUSH1 0x40 MLOAD PUSH2 0x18D SWAP1 PUSH2 0x21E JUMP JUMPDEST PUSH2 0x198 SWAP3 SWAP2 SWAP1 PUSH2 0x3DE JUMP JUMPDEST PUSH1 0x40 MLOAD DUP1 SWAP2 SUB SWAP1 PUSH1 0x0 CREATE DUP1 ISZERO DUP1 ISZERO PUSH2 0x1B4 JUMPI RETURNDATASIZE PUSH1 0x0 DUP1 RETURNDATACOPY RETURNDATASIZE PUSH1 0x0 REVERT JUMPDEST POP SWAP1 POP PUSH1 0x0 DUP2 SWAP1 DUP1 PUSH1 0x1 DUP2 SLOAD ADD DUP1 DUP3 SSTORE DUP1 SWAP2 POP POP PUSH1 0x1 SWAP1 SUB SWAP1 PUSH1 0x0 MSTORE PUSH1 0x20 PUSH1 0x0 KECCAK256 ADD PUSH1 0x0 SWAP1 SWAP2 SWAP1 SWAP2 SWAP1 SWAP2 PUSH2 0x100 EXP DUP2 SLOAD DUP2 PUSH20 0xFFFFFFFFFFFFFFFFFFFFFFFFFFFFFFFFFFFFFFFF MUL NOT AND SWAP1 DUP4 PUSH20 0xFFFFFFFFFFFFFFFFFFFFFFFFFFFFFFFFFFFFFFFF AND MUL OR SWAP1 SSTORE POP POP POP JUMP JUMPDEST PUSH2 0x123A DUP1 PUSH2 0x408 DUP4 CODECOPY ADD SWAP1 JUMP JUMPDEST PUSH1 0x0 DUP1 REVERT JUMPDEST PUSH1 0x0 DUP2 SWAP1 POP SWAP2 SWAP1 POP JUMP JUMPDEST PUSH2 0x243 DUP2 PUSH2 0x230 JUMP JUMPDEST DUP2 EQ PUSH2 0x24E JUMPI PUSH1 0x0 DUP1 REVERT JUMPDEST POP JUMP JUMPDEST PUSH1 0x0 DUP2 CALLDATALOAD SWAP1 POP PUSH2 0x260 DUP2 PUSH2 0x23A JUMP JUMPDEST SWAP3 SWAP2 POP POP JUMP JUMPDEST PUSH1 0x0 PUSH1 0x20 DUP3 DUP5 SUB SLT ISZERO PUSH2 0x27C JUMPI PUSH2 0x27B PUSH2 0x22B JUMP JUMPDEST JUMPDEST PUSH1 0x0 PUSH2 0x28A DUP5 DUP3 DUP6 ADD PUSH2 0x251 JUMP JUMPDEST SWAP2 POP POP SWAP3 SWAP2 POP POP JUMP JUMPDEST PUSH1 0x0 PUSH20 0xFFFFFFFFFFFFFFFFFFFFFFFFFFFFFFFFFFFFFFFF DUP3 AND SWAP1 POP SWAP2 SWAP1 POP JUMP JUMPDEST PUSH1 0x0 PUSH2 0x2BE DUP3 PUSH2 0x293 JUMP JUMPDEST SWAP1 POP SWAP2 SWAP1 POP JUMP JUMPDEST PUSH2 0x2CE DUP2 PUSH2 0x2B3 JUMP JUMPDEST DUP3 MSTORE POP POP JUMP JUMPDEST PUSH1 0x0 PUSH1 0x20 DUP3 ADD SWAP1 POP PUSH2 0x2E9 PUSH1 0x0 DUP4 ADD DUP5 PUSH2 0x2C5 JUMP JUMPDEST SWAP3 SWAP2 POP POP JUMP JUMPDEST PUSH1 0x0 DUP2 MLOAD SWAP1 POP SWAP2 SWAP1 POP JUMP JUMPDEST PUSH1 0x0 DUP3 DUP3 MSTORE PUSH1 0x20 DUP3 ADD SWAP1 POP SWAP3 SWAP2 POP POP JUMP JUMPDEST PUSH1 0x0 DUP2 SWAP1 POP PUSH1 0x20 DUP3 ADD SWAP1 POP SWAP2 SWAP1 POP JUMP JUMPDEST PUSH2 0x324 DUP2 PUSH2 0x2B3 JUMP JUMPDEST DUP3 MSTORE POP POP JUMP JUMPDEST PUSH1 0x0 PUSH2 0x336 DUP4 DUP4 PUSH2 0x31B JUMP JUMPDEST PUSH1 0x20 DUP4 ADD SWAP1 POP SWAP3 SWAP2 POP POP JUMP JUMPDEST PUSH1 0x0 PUSH1 0x20 DUP3 ADD SWAP1 POP SWAP2 SWAP1 POP JUMP JUMPDEST PUSH1 0x0 PUSH2 0x35A DUP3 PUSH2 0x2EF JUMP JUMPDEST PUSH2 0x364 DUP2 DUP6 PUSH2 0x2FA JUMP JUMPDEST SWAP4 POP PUSH2 0x36F DUP4 PUSH2 0x30B JUMP JUMPDEST DUP1 PUSH1 0x0 JUMPDEST DUP4 DUP2 LT ISZERO PUSH2 0x3A0 JUMPI DUP2 MLOAD PUSH2 0x387 DUP9 DUP3 PUSH2 0x32A JUMP JUMPDEST SWAP8 POP PUSH2 0x392 DUP4 PUSH2 0x342 JUMP JUMPDEST SWAP3 POP POP PUSH1 0x1 DUP2 ADD SWAP1 POP PUSH2 0x373 JUMP JUMPDEST POP DUP6 SWAP4 POP POP POP POP SWAP3 SWAP2 POP POP JUMP JUMPDEST PUSH1 0x0 PUSH1 0x20 DUP3 ADD SWAP1 POP DUP2 DUP2 SUB PUSH1 0x0 DUP4 ADD MSTORE PUSH2 0x3C7 DUP2 DUP5 PUSH2 0x34F JUMP JUMPDEST SWAP1 POP SWAP3 SWAP2 POP POP JUMP JUMPDEST PUSH2 0x3D8 DUP2 PUSH2 0x230 JUMP JUMPDEST DUP3 MSTORE POP POP JUMP JUMPDEST PUSH1 0x0 PUSH1 0x40 DUP3 ADD SWAP1 POP PUSH2 0x3F3 PUSH1 0x0 DUP4 ADD DUP6 PUSH2 0x3CF JUMP JUMPDEST PUSH2 0x400 PUSH1 0x20 DUP4 ADD DUP5 PUSH2 0x2C5 JUMP JUMPDEST SWAP4 SWAP3 POP POP POP JUMP INVALID PUSH1 0x80 PUSH1 0x40 MSTORE CALLVALUE DUP1 ISZERO PUSH3 0x11 JUMPI PUSH1 0x0 DUP1 REVERT JUMPDEST POP PUSH1 0x40 MLOAD PUSH3 0x123A CODESIZE SUB DUP1 PUSH3 0x123A DUP4 CODECOPY DUP2 DUP2 ADD PUSH1 0x40 MSTORE DUP2 ADD SWAP1 PUSH3 0x37 SWAP2 SWAP1 PUSH3 0x12C JUMP JUMPDEST DUP1 PUSH1 0x2 PUSH1 0x0 PUSH2 0x100 EXP DUP2 SLOAD DUP2 PUSH20 0xFFFFFFFFFFFFFFFFFFFFFFFFFFFFFFFFFFFFFFFF MUL NOT AND SWAP1 DUP4 PUSH20 0xFFFFFFFFFFFFFFFFFFFFFFFFFFFFFFFFFFFFFFFF AND MUL OR SWAP1 SSTORE POP DUP2 PUSH1 0x3 DUP2 SWAP1 SSTORE POP POP POP PUSH3 0x173 JUMP JUMPDEST PUSH1 0x0 DUP1 REVERT JUMPDEST PUSH1 0x0 DUP2 SWAP1 POP SWAP2 SWAP1 POP JUMP JUMPDEST PUSH3 0xA1 DUP2 PUSH3 0x8C JUMP JUMPDEST DUP2 EQ PUSH3 0xAD JUMPI PUSH1 0x0 DUP1 REVERT JUMPDEST POP JUMP JUMPDEST PUSH1 0x0 DUP2 MLOAD SWAP1 POP PUSH3 0xC1 DUP2 PUSH3 0x96 JUMP JUMPDEST SWAP3 SWAP2 POP POP JUMP JUMPDEST PUSH1 0x0 PUSH20 0xFFFFFFFFFFFFFFFFFFFFFFFFFFFFFFFFFFFFFFFF DUP3 AND SWAP1 POP SWAP2 SWAP1 POP JUMP JUMPDEST PUSH1 0x0 PUSH3 0xF4 DUP3 PUSH3 0xC7 JUMP JUMPDEST SWAP1 POP SWAP2 SWAP1 POP JUMP JUMPDEST PUSH3 0x106 DUP2 PUSH3 0xE7 JUMP JUMPDEST DUP2 EQ PUSH3 0x112 JUMPI PUSH1 0x0 DUP1 REVERT JUMPDEST POP JUMP JUMPDEST PUSH1 0x0 DUP2 MLOAD SWAP1 POP PUSH3 0x126 DUP2 PUSH3 0xFB JUMP JUMPDEST SWAP3 SWAP2 POP POP JUMP JUMPDEST PUSH1 0x0 DUP1 PUSH1 0x40 DUP4 DUP6 SUB SLT ISZERO PUSH3 0x146 JUMPI PUSH3 0x145 PUSH3 0x87 JUMP JUMPDEST JUMPDEST PUSH1 0x0 PUSH3 0x156 DUP6 DUP3 DUP7 ADD PUSH3 0xB0 JUMP JUMPDEST SWAP3 POP POP PUSH1 0x20 PUSH3 0x169 DUP6 DUP3 DUP7 ADD PUSH3 0x115 JUMP JUMPDEST SWAP2 POP POP SWAP3 POP SWAP3 SWAP1 POP JUMP JUMPDEST PUSH2 0x10B7 DUP1 PUSH3 0x183 PUSH1 0x0 CODECOPY PUSH1 0x0 RETURN INVALID PUSH1 0x80 PUSH1 0x40 MSTORE PUSH1 0x4 CALLDATASIZE LT PUSH2 0x9C JUMPI PUSH1 0x0 CALLDATALOAD PUSH1 0xE0 SHR DUP1 PUSH4 0x82FDE093 GT PUSH2 0x64 JUMPI DUP1 PUSH4 0x82FDE093 EQ PUSH2 0x1A2 JUMPI DUP1 PUSH4 0x8A9CFD55 EQ PUSH2 0x1CD JUMPI DUP1 PUSH4 0x937E09B1 EQ PUSH2 0x1F6 JUMPI DUP1 PUSH4 0x9FB42B1F EQ PUSH2 0x221 JUMPI DUP1 PUSH4 0xD7BB99BA EQ PUSH2 0x24C JUMPI DUP1 PUSH4 0xD7D1BBDB EQ PUSH2 0x256 JUMPI PUSH2 0x9C JUMP JUMPDEST DUP1 PUSH4 0x3441006 EQ PUSH2 0xA1 JUMPI DUP1 PUSH4 0xA144391 EQ PUSH2 0xCA JUMPI DUP1 PUSH4 0x4051DDAC EQ PUSH2 0x107 JUMPI DUP1 PUSH4 0x481C6A75 EQ PUSH2 0x136 JUMPI DUP1 PUSH4 0x81D12C58 EQ PUSH2 0x161 JUMPI JUMPDEST PUSH1 0x0 DUP1 REVERT JUMPDEST CALLVALUE DUP1 ISZERO PUSH2 0xAD JUMPI PUSH1 0x0 DUP1 REVERT JUMPDEST POP PUSH2 0xC8 PUSH1 0x4 DUP1 CALLDATASIZE SUB DUP2 ADD SWAP1 PUSH2 0xC3 SWAP2 SWAP1 PUSH2 0x85C JUMP JUMPDEST PUSH2 0x27F JUMP JUMPDEST STOP JUMPDEST CALLVALUE DUP1 ISZERO PUSH2 0xD6 JUMPI PUSH1 0x0 DUP1 REVERT JUMPDEST POP PUSH2 0xF1 PUSH1 0x4 DUP1 CALLDATASIZE SUB DUP2 ADD SWAP1 PUSH2 0xEC SWAP2 SWAP1 PUSH2 0x8E7 JUMP JUMPDEST PUSH2 0x3BA JUMP JUMPDEST PUSH1 0x40 MLOAD PUSH2 0xFE SWAP2 SWAP1 PUSH2 0x92F JUMP JUMPDEST PUSH1 0x40 MLOAD DUP1 SWAP2 SUB SWAP1 RETURN JUMPDEST CALLVALUE DUP1 ISZERO PUSH2 0x113 JUMPI PUSH1 0x0 DUP1 REVERT JUMPDEST POP PUSH2 0x11C PUSH2 0x3DA JUMP JUMPDEST PUSH1 0x40 MLOAD PUSH2 0x12D SWAP6 SWAP5 SWAP4 SWAP3 SWAP2 SWAP1 PUSH2 0x968 JUMP JUMPDEST PUSH1 0x40 MLOAD DUP1 SWAP2 SUB SWAP1 RETURN JUMPDEST CALLVALUE DUP1 ISZERO PUSH2 0x142 JUMPI PUSH1 0x0 DUP1 REVERT JUMPDEST POP PUSH2 0x14B PUSH2 0x420 JUMP JUMPDEST PUSH1 0x40 MLOAD PUSH2 0x158 SWAP2 SWAP1 PUSH2 0x9BB JUMP JUMPDEST PUSH1 0x40 MLOAD DUP1 SWAP2 SUB SWAP1 RETURN JUMPDEST CALLVALUE DUP1 ISZERO PUSH2 0x16D JUMPI PUSH1 0x0 DUP1 REVERT JUMPDEST POP PUSH2 0x188 PUSH1 0x4 DUP1 CALLDATASIZE SUB DUP2 ADD SWAP1 PUSH2 0x183 SWAP2 SWAP1 PUSH2 0x85C JUMP JUMPDEST PUSH2 0x446 JUMP JUMPDEST PUSH1 0x40 MLOAD PUSH2 0x199 SWAP6 SWAP5 SWAP4 SWAP3 SWAP2 SWAP1 PUSH2 0xA87 JUMP JUMPDEST PUSH1 0x40 MLOAD DUP1 SWAP2 SUB SWAP1 RETURN JUMPDEST CALLVALUE DUP1 ISZERO PUSH2 0x1AE JUMPI PUSH1 0x0 DUP1 REVERT JUMPDEST POP PUSH2 0x1B7 PUSH2 0x531 JUMP JUMPDEST PUSH1 0x40 MLOAD PUSH2 0x1C4 SWAP2 SWAP1 PUSH2 0xAE1 JUMP JUMPDEST PUSH1 0x40 MLOAD DUP1 SWAP2 SUB SWAP1 RETURN JUMPDEST CALLVALUE DUP1 ISZERO PUSH2 0x1D9 JUMPI PUSH1 0x0 DUP1 REVERT JUMPDEST POP PUSH2 0x1F4 PUSH1 0x4 DUP1 CALLDATASIZE SUB DUP2 ADD SWAP1 PUSH2 0x1EF SWAP2 SWAP1 PUSH2 0xC5D JUMP JUMPDEST PUSH2 0x537 JUMP JUMPDEST STOP JUMPDEST CALLVALUE DUP1 ISZERO PUSH2 0x202 JUMPI PUSH1 0x0 DUP1 REVERT JUMPDEST POP PUSH2 0x20B PUSH2 0x648 JUMP JUMPDEST PUSH1 0x40 MLOAD PUSH2 0x218 SWAP2 SWAP1 PUSH2 0xAE1 JUMP JUMPDEST PUSH1 0x40 MLOAD DUP1 SWAP2 SUB SWAP1 RETURN JUMPDEST CALLVALUE DUP1 ISZERO PUSH2 0x22D JUMPI PUSH1 0x0 DUP1 REVERT JUMPDEST POP PUSH2 0x236 PUSH2 0x64E JUMP JUMPDEST PUSH1 0x40 MLOAD PUSH2 0x243 SWAP2 SWAP1 PUSH2 0xAE1 JUMP JUMPDEST PUSH1 0x40 MLOAD DUP1 SWAP2 SUB SWAP1 RETURN JUMPDEST PUSH2 0x254 PUSH2 0x654 JUMP JUMPDEST STOP JUMPDEST CALLVALUE DUP1 ISZERO PUSH2 0x262 JUMPI PUSH1 0x0 DUP1 REVERT JUMPDEST POP PUSH2 0x27D PUSH1 0x4 DUP1 CALLDATASIZE SUB DUP2 ADD SWAP1 PUSH2 0x278 SWAP2 SWAP1 PUSH2 0x85C JUMP JUMPDEST PUSH2 0x6D4 JUMP JUMPDEST STOP JUMPDEST PUSH1 0x2 PUSH1 0x0 SWAP1 SLOAD SWAP1 PUSH2 0x100 EXP SWAP1 DIV PUSH20 0xFFFFFFFFFFFFFFFFFFFFFFFFFFFFFFFFFFFFFFFF AND PUSH20 0xFFFFFFFFFFFFFFFFFFFFFFFFFFFFFFFFFFFFFFFF AND CALLER PUSH20 0xFFFFFFFFFFFFFFFFFFFFFFFFFFFFFFFFFFFFFFFF AND EQ PUSH2 0x2D9 JUMPI PUSH1 0x0 DUP1 REVERT JUMPDEST PUSH1 0x0 PUSH1 0x1 PUSH1 0x0 DUP4 DUP2 MSTORE PUSH1 0x20 ADD SWAP1 DUP2 MSTORE PUSH1 0x20 ADD PUSH1 0x0 KECCAK256 SWAP1 POP PUSH1 0x2 PUSH1 0x5 SLOAD PUSH2 0x2FF SWAP2 SWAP1 PUSH2 0xD2A JUMP JUMPDEST DUP2 PUSH1 0x3 ADD SLOAD GT PUSH2 0x30E JUMPI PUSH1 0x0 DUP1 REVERT JUMPDEST DUP1 PUSH1 0x2 ADD PUSH1 0x14 SWAP1 SLOAD SWAP1 PUSH2 0x100 EXP SWAP1 DIV PUSH1 0xFF AND ISZERO PUSH2 0x32A JUMPI PUSH1 0x0 DUP1 REVERT JUMPDEST DUP1 PUSH1 0x2 ADD PUSH1 0x0 SWAP1 SLOAD SWAP1 PUSH2 0x100 EXP SWAP1 DIV PUSH20 0xFFFFFFFFFFFFFFFFFFFFFFFFFFFFFFFFFFFFFFFF AND PUSH20 0xFFFFFFFFFFFFFFFFFFFFFFFFFFFFFFFFFFFFFFFF AND PUSH2 0x8FC DUP3 PUSH1 0x1 ADD SLOAD SWAP1 DUP2 ISZERO MUL SWAP1 PUSH1 0x40 MLOAD PUSH1 0x0 PUSH1 0x40 MLOAD DUP1 DUP4 SUB DUP2 DUP6 DUP9 DUP9 CALL SWAP4 POP POP POP POP ISZERO DUP1 ISZERO PUSH2 0x398 JUMPI RETURNDATASIZE PUSH1 0x0 DUP1 RETURNDATACOPY RETURNDATASIZE PUSH1 0x0 REVERT JUMPDEST POP PUSH1 0x1 DUP2 PUSH1 0x2 ADD PUSH1 0x14 PUSH2 0x100 EXP DUP2 SLOAD DUP2 PUSH1 0xFF MUL NOT AND SWAP1 DUP4 ISZERO ISZERO MUL OR SWAP1 SSTORE POP POP POP JUMP JUMPDEST PUSH1 0x4 PUSH1 0x20 MSTORE DUP1 PUSH1 0x0 MSTORE PUSH1 0x40 PUSH1 0x0 KECCAK256 PUSH1 0x0 SWAP2 POP SLOAD SWAP1 PUSH2 0x100 EXP SWAP1 DIV PUSH1 0xFF AND DUP2 JUMP JUMPDEST PUSH1 0x0 DUP1 PUSH1 0x0 DUP1 PUSH1 0x0 PUSH1 0x3 SLOAD SELFBALANCE PUSH1 0x0 SLOAD PUSH1 0x5 SLOAD PUSH1 0x2 PUSH1 0x0 SWAP1 SLOAD SWAP1 PUSH2 0x100 EXP SWAP1 DIV PUSH20 0xFFFFFFFFFFFFFFFFFFFFFFFFFFFFFFFFFFFFFFFF AND SWAP5 POP SWAP5 POP SWAP5 POP SWAP5 POP SWAP5 POP SWAP1 SWAP2 SWAP3 SWAP4 SWAP5 JUMP JUMPDEST PUSH1 0x2 PUSH1 0x0 SWAP1 SLOAD SWAP1 PUSH2 0x100 EXP SWAP1 DIV PUSH20 0xFFFFFFFFFFFFFFFFFFFFFFFFFFFFFFFFFFFFFFFF AND DUP2 JUMP JUMPDEST PUSH1 0x1 PUSH1 0x20 MSTORE DUP1 PUSH1 0x0 MSTORE PUSH1 0x40 PUSH1 0x0 KECCAK256 PUSH1 0x0 SWAP2 POP SWAP1 POP DUP1 PUSH1 0x0 ADD DUP1 SLOAD PUSH2 0x469 SWAP1 PUSH2 0xD8A JUMP JUMPDEST DUP1 PUSH1 0x1F ADD PUSH1 0x20 DUP1 SWAP2 DIV MUL PUSH1 0x20 ADD PUSH1 0x40 MLOAD SWAP1 DUP2 ADD PUSH1 0x40 MSTORE DUP1 SWAP3 SWAP2 SWAP1 DUP2 DUP2 MSTORE PUSH1 0x20 ADD DUP3 DUP1 SLOAD PUSH2 0x495 SWAP1 PUSH2 0xD8A JUMP JUMPDEST DUP1 ISZERO PUSH2 0x4E2 JUMPI DUP1 PUSH1 0x1F LT PUSH2 0x4B7 JUMPI PUSH2 0x100 DUP1 DUP4 SLOAD DIV MUL DUP4 MSTORE SWAP2 PUSH1 0x20 ADD SWAP2 PUSH2 0x4E2 JUMP JUMPDEST DUP3 ADD SWAP2 SWAP1 PUSH1 0x0 MSTORE PUSH1 0x20 PUSH1 0x0 KECCAK256 SWAP1 JUMPDEST DUP2 SLOAD DUP2 MSTORE SWAP1 PUSH1 0x1 ADD SWAP1 PUSH1 0x20 ADD DUP1 DUP4 GT PUSH2 0x4C5 JUMPI DUP3 SWAP1 SUB PUSH1 0x1F AND DUP3 ADD SWAP2 JUMPDEST POP POP POP POP POP SWAP1 DUP1 PUSH1 0x1 ADD SLOAD SWAP1 DUP1 PUSH1 0x2 ADD PUSH1 0x0 SWAP1 SLOAD SWAP1 PUSH2 0x100 EXP SWAP1 DIV PUSH20 0xFFFFFFFFFFFFFFFFFFFFFFFFFFFFFFFFFFFFFFFF AND SWAP1 DUP1 PUSH1 0x2 ADD PUSH1 0x14 SWAP1 SLOAD SWAP1 PUSH2 0x100 EXP SWAP1 DIV PUSH1 0xFF AND SWAP1 DUP1 PUSH1 0x3 ADD SLOAD SWAP1 POP DUP6 JUMP JUMPDEST PUSH1 0x5 SLOAD DUP2 JUMP JUMPDEST PUSH1 0x2 PUSH1 0x0 SWAP1 SLOAD SWAP1 PUSH2 0x100 EXP SWAP1 DIV PUSH20 0xFFFFFFFFFFFFFFFFFFFFFFFFFFFFFFFFFFFFFFFF AND PUSH20 0xFFFFFFFFFFFFFFFFFFFFFFFFFFFFFFFFFFFFFFFF AND CALLER PUSH20 0xFFFFFFFFFFFFFFFFFFFFFFFFFFFFFFFFFFFFFFFF AND EQ PUSH2 0x591 JUMPI PUSH1 0x0 DUP1 REVERT JUMPDEST PUSH1 0x0 PUSH1 0x1 PUSH1 0x0 DUP1 PUSH1 0x0 DUP2 SLOAD DUP1 SWAP3 SWAP2 SWAP1 PUSH2 0x5A9 SWAP1 PUSH2 0xDBB JUMP JUMPDEST SWAP2 SWAP1 POP SSTORE DUP2 MSTORE PUSH1 0x20 ADD SWAP1 DUP2 MSTORE PUSH1 0x20 ADD PUSH1 0x0 KECCAK256 SWAP1 POP DUP4 DUP2 PUSH1 0x0 ADD SWAP1 DUP2 PUSH2 0x5CE SWAP2 SWAP1 PUSH2 0xFAF JUMP JUMPDEST POP DUP3 DUP2 PUSH1 0x1 ADD DUP2 SWAP1 SSTORE POP DUP2 DUP2 PUSH1 0x2 ADD PUSH1 0x0 PUSH2 0x100 EXP DUP2 SLOAD DUP2 PUSH20 0xFFFFFFFFFFFFFFFFFFFFFFFFFFFFFFFFFFFFFFFF MUL NOT AND SWAP1 DUP4 PUSH20 0xFFFFFFFFFFFFFFFFFFFFFFFFFFFFFFFFFFFFFFFF AND MUL OR SWAP1 SSTORE POP PUSH1 0x0 DUP2 PUSH1 0x2 ADD PUSH1 0x14 PUSH2 0x100 EXP DUP2 SLOAD DUP2 PUSH1 0xFF MUL NOT AND SWAP1 DUP4 ISZERO ISZERO MUL OR SWAP1 SSTORE POP PUSH1 0x0 DUP2 PUSH1 0x3 ADD DUP2 SWAP1 SSTORE POP POP POP POP POP JUMP JUMPDEST PUSH1 0x3 SLOAD DUP2 JUMP JUMPDEST PUSH1 0x0 SLOAD DUP2 JUMP JUMPDEST PUSH1 0x3 SLOAD CALLVALUE GT PUSH2 0x662 JUMPI PUSH1 0x0 DUP1 REVERT JUMPDEST PUSH1 0x1 PUSH1 0x4 PUSH1 0x0 CALLER PUSH20 0xFFFFFFFFFFFFFFFFFFFFFFFFFFFFFFFFFFFFFFFF AND PUSH20 0xFFFFFFFFFFFFFFFFFFFFFFFFFFFFFFFFFFFFFFFF AND DUP2 MSTORE PUSH1 0x20 ADD SWAP1 DUP2 MSTORE PUSH1 0x20 ADD PUSH1 0x0 KECCAK256 PUSH1 0x0 PUSH2 0x100 EXP DUP2 SLOAD DUP2 PUSH1 0xFF MUL NOT AND SWAP1 DUP4 ISZERO ISZERO MUL OR SWAP1 SSTORE POP PUSH1 0x5 PUSH1 0x0 DUP2 SLOAD DUP1 SWAP3 SWAP2 SWAP1 PUSH2 0x6CD SWAP1 PUSH2 0xDBB JUMP JUMPDEST SWAP2 SWAP1 POP SSTORE POP JUMP JUMPDEST PUSH1 0x0 PUSH1 0x1 PUSH1 0x0 DUP4 DUP2 MSTORE PUSH1 0x20 ADD SWAP1 DUP2 MSTORE PUSH1 0x20 ADD PUSH1 0x0 KECCAK256 SWAP1 POP PUSH1 0x4 PUSH1 0x0 CALLER PUSH20 0xFFFFFFFFFFFFFFFFFFFFFFFFFFFFFFFFFFFFFFFF AND PUSH20 0xFFFFFFFFFFFFFFFFFFFFFFFFFFFFFFFFFFFFFFFF AND DUP2 MSTORE PUSH1 0x20 ADD SWAP1 DUP2 MSTORE PUSH1 0x20 ADD PUSH1 0x0 KECCAK256 PUSH1 0x0 SWAP1 SLOAD SWAP1 PUSH2 0x100 EXP SWAP1 DIV PUSH1 0xFF AND PUSH2 0x741 JUMPI PUSH1 0x0 DUP1 REVERT JUMPDEST DUP1 PUSH1 0x4 ADD PUSH1 0x0 CALLER PUSH20 0xFFFFFFFFFFFFFFFFFFFFFFFFFFFFFFFFFFFFFFFF AND PUSH20 0xFFFFFFFFFFFFFFFFFFFFFFFFFFFFFFFFFFFFFFFF AND DUP2 MSTORE PUSH1 0x20 ADD SWAP1 DUP2 MSTORE PUSH1 0x20 ADD PUSH1 0x0 KECCAK256 PUSH1 0x0 SWAP1 SLOAD SWAP1 PUSH2 0x100 EXP SWAP1 DIV PUSH1 0xFF AND ISZERO PUSH2 0x79A JUMPI PUSH1 0x0 DUP1 REVERT JUMPDEST PUSH1 0x1 DUP2 PUSH1 0x4 ADD PUSH1 0x0 CALLER PUSH20 0xFFFFFFFFFFFFFFFFFFFFFFFFFFFFFFFFFFFFFFFF AND PUSH20 0xFFFFFFFFFFFFFFFFFFFFFFFFFFFFFFFFFFFFFFFF AND DUP2 MSTORE PUSH1 0x20 ADD SWAP1 DUP2 MSTORE PUSH1 0x20 ADD PUSH1 0x0 KECCAK256 PUSH1 0x0 PUSH2 0x100 EXP DUP2 SLOAD DUP2 PUSH1 0xFF MUL NOT AND SWAP1 DUP4 ISZERO ISZERO MUL OR SWAP1 SSTORE POP DUP1 PUSH1 0x3 ADD PUSH1 0x0 DUP2 SLOAD DUP1 SWAP3 SWAP2 SWAP1 PUSH2 0x809 SWAP1 PUSH2 0xDBB JUMP JUMPDEST SWAP2 SWAP1 POP SSTORE POP POP POP JUMP JUMPDEST PUSH1 0x0 PUSH1 0x40 MLOAD SWAP1 POP SWAP1 JUMP JUMPDEST PUSH1 0x0 DUP1 REVERT JUMPDEST PUSH1 0x0 DUP1 REVERT JUMPDEST PUSH1 0x0 DUP2 SWAP1 POP SWAP2 SWAP1 POP JUMP JUMPDEST PUSH2 0x839 DUP2 PUSH2 0x826 JUMP JUMPDEST DUP2 EQ PUSH2 0x844 JUMPI PUSH1 0x0 DUP1 REVERT JUMPDEST POP JUMP JUMPDEST PUSH1 0x0 DUP2 CALLDATALOAD SWAP1 POP PUSH2 0x856 DUP2 PUSH2 0x830 JUMP JUMPDEST SWAP3 SWAP2 POP POP JUMP JUMPDEST PUSH1 0x0 PUSH1 0x20 DUP3 DUP5 SUB SLT ISZERO PUSH2 0x872 JUMPI PUSH2 0x871 PUSH2 0x81C JUMP JUMPDEST JUMPDEST PUSH1 0x0 PUSH2 0x880 DUP5 DUP3 DUP6 ADD PUSH2 0x847 JUMP JUMPDEST SWAP2 POP POP SWAP3 SWAP2 POP POP JUMP JUMPDEST PUSH1 0x0 PUSH20 0xFFFFFFFFFFFFFFFFFFFFFFFFFFFFFFFFFFFFFFFF DUP3 AND SWAP1 POP SWAP2 SWAP1 POP JUMP JUMPDEST PUSH1 0x0 PUSH2 0x8B4 DUP3 PUSH2 0x889 JUMP JUMPDEST SWAP1 POP SWAP2 SWAP1 POP JUMP JUMPDEST PUSH2 0x8C4 DUP2 PUSH2 0x8A9 JUMP JUMPDEST DUP2 EQ PUSH2 0x8CF JUMPI PUSH1 0x0 DUP1 REVERT JUMPDEST POP JUMP JUMPDEST PUSH1 0x0 DUP2 CALLDATALOAD SWAP1 POP PUSH2 0x8E1 DUP2 PUSH2 0x8BB JUMP JUMPDEST SWAP3 SWAP2 POP POP JUMP JUMPDEST PUSH1 0x0 PUSH1 0x20 DUP3 DUP5 SUB SLT ISZERO PUSH2 0x8FD JUMPI PUSH2 0x8FC PUSH2 0x81C JUMP JUMPDEST JUMPDEST PUSH1 0x0 PUSH2 0x90B DUP5 DUP3 DUP6 ADD PUSH2 0x8D2 JUMP JUMPDEST SWAP2 POP POP SWAP3 SWAP2 POP POP JUMP JUMPDEST PUSH1 0x0 DUP2 ISZERO ISZERO SWAP1 POP SWAP2 SWAP1 POP JUMP JUMPDEST PUSH2 0x929 DUP2 PUSH2 0x914 JUMP JUMPDEST DUP3 MSTORE POP POP JUMP JUMPDEST PUSH1 0x0 PUSH1 0x20 DUP3 ADD SWAP1 POP PUSH2 0x944 PUSH1 0x0 DUP4 ADD DUP5 PUSH2 0x920 JUMP JUMPDEST SWAP3 SWAP2 POP POP JUMP JUMPDEST PUSH2 0x953 DUP2 PUSH2 0x826 JUMP JUMPDEST DUP3 MSTORE POP POP JUMP JUMPDEST PUSH2 0x962 DUP2 PUSH2 0x8A9 JUMP JUMPDEST DUP3 MSTORE POP POP JUMP JUMPDEST PUSH1 0x0 PUSH1 0xA0 DUP3 ADD SWAP1 POP PUSH2 0x97D PUSH1 0x0 DUP4 ADD DUP9 PUSH2 0x94A JUMP JUMPDEST PUSH2 0x98A PUSH1 0x20 DUP4 ADD DUP8 PUSH2 0x94A JUMP JUMPDEST PUSH2 0x997 PUSH1 0x40 DUP4 ADD DUP7 PUSH2 0x94A JUMP JUMPDEST PUSH2 0x9A4 PUSH1 0x60 DUP4 ADD DUP6 PUSH2 0x94A JUMP JUMPDEST PUSH2 0x9B1 PUSH1 0x80 DUP4 ADD DUP5 PUSH2 0x959 JUMP JUMPDEST SWAP7 SWAP6 POP POP POP POP POP POP JUMP JUMPDEST PUSH1 0x0 PUSH1 0x20 DUP3 ADD SWAP1 POP PUSH2 0x9D0 PUSH1 0x0 DUP4 ADD DUP5 PUSH2 0x959 JUMP JUMPDEST SWAP3 SWAP2 POP POP JUMP JUMPDEST PUSH1 0x0 DUP2 MLOAD SWAP1 POP SWAP2 SWAP1 POP JUMP JUMPDEST PUSH1 0x0 DUP3 DUP3 MSTORE PUSH1 0x20 DUP3 ADD SWAP1 POP SWAP3 SWAP2 POP POP JUMP JUMPDEST PUSH1 0x0 JUMPDEST DUP4 DUP2 LT ISZERO PUSH2 0xA10 JUMPI DUP1 DUP3 ADD MLOAD DUP2 DUP5 ADD MSTORE PUSH1 0x20 DUP2 ADD SWAP1 POP PUSH2 0x9F5 JUMP JUMPDEST PUSH1 0x0 DUP5 DUP5 ADD MSTORE POP POP POP POP JUMP JUMPDEST PUSH1 0x0 PUSH1 0x1F NOT PUSH1 0x1F DUP4 ADD AND SWAP1 POP SWAP2 SWAP1 POP JUMP JUMPDEST PUSH1 0x0 PUSH2 0xA38 DUP3 PUSH2 0x9D6 JUMP JUMPDEST PUSH2 0xA42 DUP2 DUP6 PUSH2 0x9E1 JUMP JUMPDEST SWAP4 POP PUSH2 0xA52 DUP2 DUP6 PUSH1 0x20 DUP7 ADD PUSH2 0x9F2 JUMP JUMPDEST PUSH2 0xA5B DUP2 PUSH2 0xA1C JUMP JUMPDEST DUP5 ADD SWAP2 POP POP SWAP3 SWAP2 POP POP JUMP JUMPDEST PUSH1 0x0 PUSH2 0xA71 DUP3 PUSH2 0x889 JUMP JUMPDEST SWAP1 POP SWAP2 SWAP1 POP JUMP JUMPDEST PUSH2 0xA81 DUP2 PUSH2 0xA66 JUMP JUMPDEST DUP3 MSTORE POP POP JUMP JUMPDEST PUSH1 0x0 PUSH1 0xA0 DUP3 ADD SWAP1 POP DUP2 DUP2 SUB PUSH1 0x0 DUP4 ADD MSTORE PUSH2 0xAA1 DUP2 DUP9 PUSH2 0xA2D JUMP JUMPDEST SWAP1 POP PUSH2 0xAB0 PUSH1 0x20 DUP4 ADD DUP8 PUSH2 0x94A JUMP JUMPDEST PUSH2 0xABD PUSH1 0x40 DUP4 ADD DUP7 PUSH2 0xA78 JUMP JUMPDEST PUSH2 0xACA PUSH1 0x60 DUP4 ADD DUP6 PUSH2 0x920 JUMP JUMPDEST PUSH2 0xAD7 PUSH1 0x80 DUP4 ADD DUP5 PUSH2 0x94A JUMP JUMPDEST SWAP7 SWAP6 POP POP POP POP POP POP JUMP JUMPDEST PUSH1 0x0 PUSH1 0x20 DUP3 ADD SWAP1 POP PUSH2 0xAF6 PUSH1 0x0 DUP4 ADD DUP5 PUSH2 0x94A JUMP JUMPDEST SWAP3 SWAP2 POP POP JUMP JUMPDEST PUSH1 0x0 DUP1 REVERT JUMPDEST PUSH1 0x0 DUP1 REVERT JUMPDEST PUSH32 0x4E487B7100000000000000000000000000000000000000000000000000000000 PUSH1 0x0 MSTORE PUSH1 0x41 PUSH1 0x4 MSTORE PUSH1 0x24 PUSH1 0x0 REVERT JUMPDEST PUSH2 0xB3E DUP3 PUSH2 0xA1C JUMP JUMPDEST DUP2 ADD DUP2 DUP2 LT PUSH8 0xFFFFFFFFFFFFFFFF DUP3 GT OR ISZERO PUSH2 0xB5D JUMPI PUSH2 0xB5C PUSH2 0xB06 JUMP JUMPDEST JUMPDEST DUP1 PUSH1 0x40 MSTORE POP POP POP JUMP JUMPDEST PUSH1 0x0 PUSH2 0xB70 PUSH2 0x812 JUMP JUMPDEST SWAP1 POP PUSH2 0xB7C DUP3 DUP3 PUSH2 0xB35 JUMP JUMPDEST SWAP2 SWAP1 POP JUMP JUMPDEST PUSH1 0x0 PUSH8 0xFFFFFFFFFFFFFFFF DUP3 GT ISZERO PUSH2 0xB9C JUMPI PUSH2 0xB9B PUSH2 0xB06 JUMP JUMPDEST JUMPDEST PUSH2 0xBA5 DUP3 PUSH2 0xA1C JUMP JUMPDEST SWAP1 POP PUSH1 0x20 DUP2 ADD SWAP1 POP SWAP2 SWAP1 POP JUMP JUMPDEST DUP3 DUP2 DUP4 CALLDATACOPY PUSH1 0x0 DUP4 DUP4 ADD MSTORE POP POP POP JUMP JUMPDEST PUSH1 0x0 PUSH2 0xBD4 PUSH2 0xBCF DUP5 PUSH2 0xB81 JUMP JUMPDEST PUSH2 0xB66 JUMP JUMPDEST SWAP1 POP DUP3 DUP2 MSTORE PUSH1 0x20 DUP2 ADD DUP5 DUP5 DUP5 ADD GT ISZERO PUSH2 0xBF0 JUMPI PUSH2 0xBEF PUSH2 0xB01 JUMP JUMPDEST JUMPDEST PUSH2 0xBFB DUP5 DUP3 DUP6 PUSH2 0xBB2 JUMP JUMPDEST POP SWAP4 SWAP3 POP POP POP JUMP JUMPDEST PUSH1 0x0 DUP3 PUSH1 0x1F DUP4 ADD SLT PUSH2 0xC18 JUMPI PUSH2 0xC17 PUSH2 0xAFC JUMP JUMPDEST JUMPDEST DUP2 CALLDATALOAD PUSH2 0xC28 DUP5 DUP3 PUSH1 0x20 DUP7 ADD PUSH2 0xBC1 JUMP JUMPDEST SWAP2 POP POP SWAP3 SWAP2 POP POP JUMP JUMPDEST PUSH2 0xC3A DUP2 PUSH2 0xA66 JUMP JUMPDEST DUP2 EQ PUSH2 0xC45 JUMPI PUSH1 0x0 DUP1 REVERT JUMPDEST POP JUMP JUMPDEST PUSH1 0x0 DUP2 CALLDATALOAD SWAP1 POP PUSH2 0xC57 DUP2 PUSH2 0xC31 JUMP JUMPDEST SWAP3 SWAP2 POP POP JUMP JUMPDEST PUSH1 0x0 DUP1 PUSH1 0x0 PUSH1 0x60 DUP5 DUP7 SUB SLT ISZERO PUSH2 0xC76 JUMPI PUSH2 0xC75 PUSH2 0x81C JUMP JUMPDEST JUMPDEST PUSH1 0x0 DUP5 ADD CALLDATALOAD PUSH8 0xFFFFFFFFFFFFFFFF DUP2 GT ISZERO PUSH2 0xC94 JUMPI PUSH2 0xC93 PUSH2 0x821 JUMP JUMPDEST JUMPDEST PUSH2 0xCA0 DUP7 DUP3 DUP8 ADD PUSH2 0xC03 JUMP JUMPDEST SWAP4 POP POP PUSH1 0x20 PUSH2 0xCB1 DUP7 DUP3 DUP8 ADD PUSH2 0x847 JUMP JUMPDEST SWAP3 POP POP PUSH1 0x40 PUSH2 0xCC2 DUP7 DUP3 DUP8 ADD PUSH2 0xC48 JUMP JUMPDEST SWAP2 POP POP SWAP3 POP SWAP3 POP SWAP3 JUMP JUMPDEST PUSH32 0x4E487B7100000000000000000000000000000000000000000000000000000000 PUSH1 0x0 MSTORE PUSH1 0x12 PUSH1 0x4 MSTORE PUSH1 0x24 PUSH1 0x0 REVERT JUMPDEST PUSH32 0x4E487B7100000000000000000000000000000000000000000000000000000000 PUSH1 0x0 MSTORE PUSH1 0x11 PUSH1 0x4 MSTORE PUSH1 0x24 PUSH1 0x0 REVERT JUMPDEST PUSH1 0x0 PUSH2 0xD35 DUP3 PUSH2 0x826 JUMP JUMPDEST SWAP2 POP PUSH2 0xD40 DUP4 PUSH2 0x826 JUMP JUMPDEST SWAP3 POP DUP3 PUSH2 0xD50 JUMPI PUSH2 0xD4F PUSH2 0xCCC JUMP JUMPDEST JUMPDEST DUP3 DUP3 DIV SWAP1 POP SWAP3 SWAP2 POP POP JUMP JUMPDEST PUSH32 0x4E487B7100000000000000000000000000000000000000000000000000000000 PUSH1 0x0 MSTORE PUSH1 0x22 PUSH1 0x4 MSTORE PUSH1 0x24 PUSH1 0x0 REVERT JUMPDEST PUSH1 0x0 PUSH1 0x2 DUP3 DIV SWAP1 POP PUSH1 0x1 DUP3 AND DUP1 PUSH2 0xDA2 JUMPI PUSH1 0x7F DUP3 AND SWAP2 POP JUMPDEST PUSH1 0x20 DUP3 LT DUP2 SUB PUSH2 0xDB5 JUMPI PUSH2 0xDB4 PUSH2 0xD5B JUMP JUMPDEST JUMPDEST POP SWAP2 SWAP1 POP JUMP JUMPDEST PUSH1 0x0 PUSH2 0xDC6 DUP3 PUSH2 0x826 JUMP JUMPDEST SWAP2 POP PUSH32 0xFFFFFFFFFFFFFFFFFFFFFFFFFFFFFFFFFFFFFFFFFFFFFFFFFFFFFFFFFFFFFFFF DUP3 SUB PUSH2 0xDF8 JUMPI PUSH2 0xDF7 PUSH2 0xCFB JUMP JUMPDEST JUMPDEST PUSH1 0x1 DUP3 ADD SWAP1 POP SWAP2 SWAP1 POP JUMP JUMPDEST PUSH1 0x0 DUP2 SWAP1 POP DUP2 PUSH1 0x0 MSTORE PUSH1 0x20 PUSH1 0x0 KECCAK256 SWAP1 POP SWAP2 SWAP1 POP JUMP JUMPDEST PUSH1 0x0 PUSH1 0x20 PUSH1 0x1F DUP4 ADD DIV SWAP1 POP SWAP2 SWAP1 POP JUMP JUMPDEST PUSH1 0x0 DUP3 DUP3 SHL SWAP1 POP SWAP3 SWAP2 POP POP JUMP JUMPDEST PUSH1 0x0 PUSH1 0x8 DUP4 MUL PUSH2 0xE65 PUSH32 0xFFFFFFFFFFFFFFFFFFFFFFFFFFFFFFFFFFFFFFFFFFFFFFFFFFFFFFFFFFFFFFFF DUP3 PUSH2 0xE28 JUMP JUMPDEST PUSH2 0xE6F DUP7 DUP4 PUSH2 0xE28 JUMP JUMPDEST SWAP6 POP DUP1 NOT DUP5 AND SWAP4 POP DUP1 DUP7 AND DUP5 OR SWAP3 POP POP POP SWAP4 SWAP3 POP POP POP JUMP JUMPDEST PUSH1 0x0 DUP2 SWAP1 POP SWAP2 SWAP1 POP JUMP JUMPDEST PUSH1 0x0 PUSH2 0xEAC PUSH2 0xEA7 PUSH2 0xEA2 DUP5 PUSH2 0x826 JUMP JUMPDEST PUSH2 0xE87 JUMP JUMPDEST PUSH2 0x826 JUMP JUMPDEST SWAP1 POP SWAP2 SWAP1 POP JUMP JUMPDEST PUSH1 0x0 DUP2 SWAP1 POP SWAP2 SWAP1 POP JUMP JUMPDEST PUSH2 0xEC6 DUP4 PUSH2 0xE91 JUMP JUMPDEST PUSH2 0xEDA PUSH2 0xED2 DUP3 PUSH2 0xEB3 JUMP JUMPDEST DUP5 DUP5 SLOAD PUSH2 0xE35 JUMP JUMPDEST DUP3 SSTORE POP POP POP POP JUMP JUMPDEST PUSH1 0x0 SWAP1 JUMP JUMPDEST PUSH2 0xEEF PUSH2 0xEE2 JUMP JUMPDEST PUSH2 0xEFA DUP2 DUP5 DUP5 PUSH2 0xEBD JUMP JUMPDEST POP POP POP JUMP JUMPDEST JUMPDEST DUP2 DUP2 LT ISZERO PUSH2 0xF1E JUMPI PUSH2 0xF13 PUSH1 0x0 DUP3 PUSH2 0xEE7 JUMP JUMPDEST PUSH1 0x1 DUP2 ADD SWAP1 POP PUSH2 0xF00 JUMP JUMPDEST POP POP JUMP JUMPDEST PUSH1 0x1F DUP3 GT ISZERO PUSH2 0xF63 JUMPI PUSH2 0xF34 DUP2 PUSH2 0xE03 JUMP JUMPDEST PUSH2 0xF3D DUP5 PUSH2 0xE18 JUMP JUMPDEST DUP2 ADD PUSH1 0x20 DUP6 LT ISZERO PUSH2 0xF4C JUMPI DUP2 SWAP1 POP JUMPDEST PUSH2 0xF60 PUSH2 0xF58 DUP6 PUSH2 0xE18 JUMP JUMPDEST DUP4 ADD DUP3 PUSH2 0xEFF JUMP JUMPDEST POP POP JUMPDEST POP POP POP JUMP JUMPDEST PUSH1 0x0 DUP3 DUP3 SHR SWAP1 POP SWAP3 SWAP2 POP POP JUMP JUMPDEST PUSH1 0x0 PUSH2 0xF86 PUSH1 0x0 NOT DUP5 PUSH1 0x8 MUL PUSH2 0xF68 JUMP JUMPDEST NOT DUP1 DUP4 AND SWAP2 POP POP SWAP3 SWAP2 POP POP JUMP JUMPDEST PUSH1 0x0 PUSH2 0xF9F DUP4 DUP4 PUSH2 0xF75 JUMP JUMPDEST SWAP2 POP DUP3 PUSH1 0x2 MUL DUP3 OR SWAP1 POP SWAP3 SWAP2 POP POP JUMP JUMPDEST PUSH2 0xFB8 DUP3 PUSH2 0x9D6 JUMP JUMPDEST PUSH8 0xFFFFFFFFFFFFFFFF DUP2 GT ISZERO PUSH2 0xFD1 JUMPI PUSH2 0xFD0 PUSH2 0xB06 JUMP JUMPDEST JUMPDEST PUSH2 0xFDB DUP3 SLOAD PUSH2 0xD8A JUMP JUMPDEST PUSH2 0xFE6 DUP3 DUP3 DUP6 PUSH2 0xF22 JUMP JUMPDEST PUSH1 0x0 PUSH1 0x20 SWAP1 POP PUSH1 0x1F DUP4 GT PUSH1 0x1 DUP2 EQ PUSH2 0x1019 JUMPI PUSH1 0x0 DUP5 ISZERO PUSH2 0x1007 JUMPI DUP3 DUP8 ADD MLOAD SWAP1 POP JUMPDEST PUSH2 0x1011 DUP6 DUP3 PUSH2 0xF93 JUMP JUMPDEST DUP7 SSTORE POP PUSH2 0x1079 JUMP JUMPDEST PUSH1 0x1F NOT DUP5 AND PUSH2 0x1027 DUP7 PUSH2 0xE03 JUMP JUMPDEST PUSH1 0x0 JUMPDEST DUP3 DUP2 LT ISZERO PUSH2 0x104F JUMPI DUP5 DUP10 ADD MLOAD DUP3 SSTORE PUSH1 0x1 DUP3 ADD SWAP2 POP PUSH1 0x20 DUP6 ADD SWAP5 POP PUSH1 0x20 DUP2 ADD SWAP1 POP PUSH2 0x102A JUMP JUMPDEST DUP7 DUP4 LT ISZERO PUSH2 0x106C JUMPI DUP5 DUP10 ADD MLOAD PUSH2 0x1068 PUSH1 0x1F DUP10 AND DUP3 PUSH2 0xF75 JUMP JUMPDEST DUP4 SSTORE POP JUMPDEST PUSH1 0x1 PUSH1 0x2 DUP9 MUL ADD DUP9 SSTORE POP POP POP JUMPDEST POP POP POP POP POP POP JUMP INVALID LOG2 PUSH5 0x6970667358 0x22 SLT KECCAK256 0xB7 CALLVALUE 0xAF CALL DUP12 0xD3 CALLDATASIZE 0xD6 SWAP6 SWAP12 RETURNDATASIZE 0x2C PUSH31 0x6AA5E8AE4331CED38B4F8766725294D5162FB64736F6C63430008110033A2 PUSH5 0x6970667358 0x22 SLT KECCAK256 SWAP7 PUSH19 0x4FF4D8BE3624827D8E1257E50FECEA4240AF6C 0x1F PUSH3 0x33F33C 0xC1 0x1F 0xD9 PUSH5 0xD6764736F PUSH13 0x63430008110033000000000000 "},"gasEstimates":{"creation":{"codeDepositCost":"1150200","executionCost":"1194","totalCost":"1151394"},"external":{"createCampaign(uint256)":"infinite","deployedCampaigns(uint256)":"4934","getDeployedCampaigns()":"infinite"}},"methodIdentifiers":{"createCampaign(uint256)":"a3303a75","deployedCampaigns(uint256)":"339d50a5","getDeployedCampaigns()":"4acb9d4f"}},"storageLayout":{"storage":[{"astId":4,"contract":"Campaign.sol:CampaignFactory","label":"deployedCampaigns","offset":0,"slot":"0","type":"t_array(t_address)dyn_storage"}],"types":{"t_address":{"encoding":"inplace","label":"address","numberOfBytes":"20"},"t_array(t_address)dyn_storage":{"base":"t_address","encoding":"dynamic_array","label":"address[]","numberOfBytes":"32"}}},"userdoc":{"kind":"user","methods":{},"version":1}}